{
  "_format": "hh-sol-artifact-1",
  "contractName": "NyigbaNames",
  "sourceName": "contracts/NyigbaNames.sol",
  "abi": [
    {
      "inputs": [],
      "stateMutability": "nonpayable",
      "type": "constructor"
    },
    {
      "inputs": [],
      "name": "owner",
      "outputs": [
        {
          "internalType": "address",
          "name": "",
          "type": "address"
        }
      ],
      "stateMutability": "view",
      "type": "function"
    }
  ],
  "bytecode": "0x60808060405234602657600080546001600160a01b031916331790556082908161002c8239f35b600080fdfe6080806040526004361015601257600080fd5b600090813560e01c638da5cb5b14602857600080fd5b346048578160031936011260485790546001600160a01b03168152602090f35b5080fdfea2646970667358221220bb546a08b37290e12dde96ab391953cc07fe5df1c1f47db8f0f3a2fd84fee1ce64736f6c63430008180033",
  "linkReferences": {},
  "deployedLinkReferences": {}
}