{
  "_format": "hh-sol-artifact-1",
  "contractName": "NyigbaToken",
  "sourceName": "contracts/NyigbaToken.sol",
  "abi": [
    {
      "inputs": [],
      "stateMutability": "nonpayable",
      "type": "constructor"
    },
    {
      "inputs": [],
      "name": "CheckpointUnorderedInsertion",
      "type": "error"
    },
    {
      "inputs": [],
      "name": "ECDSAInvalidSignature",
      "type": "error"
    },
    {
      "inputs": [
        {
          "internalType": "uint256",
          "name": "length",
          "type": "uint256"
        }
      ],
      "name": "ECDSAInvalidSignatureLength",
      "type": "error"
    },
    {
      "inputs": [
        {
          "internalType": "bytes32",
          "name": "s",
          "type": "bytes32"
        }
      ],
      "name": "ECDSAInvalidSignatureS",
      "type": "error"
    },
    {
      "inputs": [
        {
          "internalType": "uint256",
          "name": "increasedSupply",
          "type": "uint256"
        },
        {
          "internalType": "uint256",
          "name": "cap",
          "type": "uint256"
        }
      ],
      "name": "ERC20ExceededSafeSupply",
      "type": "error"
    },
    {
      "inputs": [
        {
          "internalType": "address",
          "name": "spender",
          "type": "address"
        },
        {
          "internalType": "uint256",
          "name": "allowance",
          "type": "uint256"
        },
        {
          "internalType": "uint256",
          "name": "needed",
          "type": "uint256"
        }
      ],
      "name": "ERC20InsufficientAllowance",
      "type": "error"
    },
    {
      "inputs": [
        {
          "internalType": "address",
          "name": "sender",
          "type": "address"
        },
        {
          "internalType": "uint256",
          "name": "balance",
          "type": "uint256"
        },
        {
          "internalType": "uint256",
          "name": "needed",
          "type": "uint256"
        }
      ],
      "name": "ERC20InsufficientBalance",
      "type": "error"
    },
    {
      "inputs": [
        {
          "internalType": "address",
          "name": "approver",
          "type": "address"
        }
      ],
      "name": "ERC20InvalidApprover",
      "type": "error"
    },
    {
      "inputs": [
        {
          "internalType": "address",
          "name": "receiver",
          "type": "address"
        }
      ],
      "name": "ERC20InvalidReceiver",
      "type": "error"
    },
    {
      "inputs": [
        {
          "internalType": "address",
          "name": "sender",
          "type": "address"
        }
      ],
      "name": "ERC20InvalidSender",
      "type": "error"
    },
    {
      "inputs": [
        {
          "internalType": "address",
          "name": "spender",
          "type": "address"
        }
      ],
      "name": "ERC20InvalidSpender",
      "type": "error"
    },
    {
      "inputs": [
        {
          "internalType": "uint256",
          "name": "deadline",
          "type": "uint256"
        }
      ],
      "name": "ERC2612ExpiredSignature",
      "type": "error"
    },
    {
      "inputs": [
        {
          "internalType": "address",
          "name": "signer",
          "type": "address"
        },
        {
          "internalType": "address",
          "name": "owner",
          "type": "address"
        }
      ],
      "name": "ERC2612InvalidSigner",
      "type": "error"
    },
    {
      "inputs": [
        {
          "internalType": "uint256",
          "name": "timepoint",
          "type": "uint256"
        },
        {
          "internalType": "uint48",
          "name": "clock",
          "type": "uint48"
        }
      ],
      "name": "ERC5805FutureLookup",
      "type": "error"
    },
    {
      "inputs": [],
      "name": "ERC6372InconsistentClock",
      "type": "error"
    },
    {
      "inputs": [
        {
          "internalType": "address",
          "name": "account",
          "type": "address"
        },
        {
          "internalType": "uint256",
          "name": "currentNonce",
          "type": "uint256"
        }
      ],
      "name": "InvalidAccountNonce",
      "type": "error"
    },
    {
      "inputs": [],
      "name": "InvalidShortString",
      "type": "error"
    },
    {
      "inputs": [
        {
          "internalType": "address",
          "name": "owner",
          "type": "address"
        }
      ],
      "name": "OwnableInvalidOwner",
      "type": "error"
    },
    {
      "inputs": [
        {
          "internalType": "address",
          "name": "account",
          "type": "address"
        }
      ],
      "name": "OwnableUnauthorizedAccount",
      "type": "error"
    },
    {
      "inputs": [
        {
          "internalType": "uint8",
          "name": "bits",
          "type": "uint8"
        },
        {
          "internalType": "uint256",
          "name": "value",
          "type": "uint256"
        }
      ],
      "name": "SafeCastOverflowedUintDowncast",
      "type": "error"
    },
    {
      "inputs": [
        {
          "internalType": "string",
          "name": "str",
          "type": "string"
        }
      ],
      "name": "StringTooLong",
      "type": "error"
    },
    {
      "inputs": [
        {
          "internalType": "uint256",
          "name": "expiry",
          "type": "uint256"
        }
      ],
      "name": "VotesExpiredSignature",
      "type": "error"
    },
    {
      "anonymous": false,
      "inputs": [
        {
          "indexed": true,
          "internalType": "address",
          "name": "owner",
          "type": "address"
        },
        {
          "indexed": true,
          "internalType": "address",
          "name": "spender",
          "type": "address"
        },
        {
          "indexed": false,
          "internalType": "uint256",
          "name": "value",
          "type": "uint256"
        }
      ],
      "name": "Approval",
      "type": "event"
    },
    {
      "anonymous": false,
      "inputs": [
        {
          "indexed": true,
          "internalType": "address",
          "name": "delegator",
          "type": "address"
        },
        {
          "indexed": true,
          "internalType": "address",
          "name": "fromDelegate",
          "type": "address"
        },
        {
          "indexed": true,
          "internalType": "address",
          "name": "toDelegate",
          "type": "address"
        }
      ],
      "name": "DelegateChanged",
      "type": "event"
    },
    {
      "anonymous": false,
      "inputs": [
        {
          "indexed": true,
          "internalType": "address",
          "name": "delegate",
          "type": "address"
        },
        {
          "indexed": false,
          "internalType": "uint256",
          "name": "previousVotes",
          "type": "uint256"
        },
        {
          "indexed": false,
          "internalType": "uint256",
          "name": "newVotes",
          "type": "uint256"
        }
      ],
      "name": "DelegateVotesChanged",
      "type": "event"
    },
    {
      "anonymous": false,
      "inputs": [],
      "name": "EIP712DomainChanged",
      "type": "event"
    },
    {
      "anonymous": false,
      "inputs": [
        {
          "indexed": true,
          "internalType": "address",
          "name": "minter",
          "type": "address"
        }
      ],
      "name": "MinterAdded",
      "type": "event"
    },
    {
      "anonymous": false,
      "inputs": [
        {
          "indexed": true,
          "internalType": "address",
          "name": "minter",
          "type": "address"
        }
      ],
      "name": "MinterRemoved",
      "type": "event"
    },
    {
      "anonymous": false,
      "inputs": [],
      "name": "MintingDisabled",
      "type": "event"
    },
    {
      "anonymous": false,
      "inputs": [
        {
          "indexed": true,
          "internalType": "address",
          "name": "previousOwner",
          "type": "address"
        },
        {
          "indexed": true,
          "internalType": "address",
          "name": "newOwner",
          "type": "address"
        }
      ],
      "name": "OwnershipTransferred",
      "type": "event"
    },
    {
      "anonymous": false,
      "inputs": [
        {
          "indexed": true,
          "internalType": "address",
          "name": "from",
          "type": "address"
        },
        {
          "indexed": true,
          "internalType": "address",
          "name": "to",
          "type": "address"
        },
        {
          "indexed": false,
          "internalType": "uint256",
          "name": "value",
          "type": "uint256"
        }
      ],
      "name": "Transfer",
      "type": "event"
    },
    {
      "inputs": [],
      "name": "CLOCK_MODE",
      "outputs": [
        {
          "internalType": "string",
          "name": "",
          "type": "string"
        }
      ],
      "stateMutability": "view",
      "type": "function"
    },
    {
      "inputs": [],
      "name": "DOMAIN_SEPARATOR",
      "outputs": [
        {
          "internalType": "bytes32",
          "name": "",
          "type": "bytes32"
        }
      ],
      "stateMutability": "view",
      "type": "function"
    },
    {
      "inputs": [],
      "name": "INITIAL_SUPPLY",
      "outputs": [
        {
          "internalType": "uint256",
          "name": "",
          "type": "uint256"
        }
      ],
      "stateMutability": "view",
      "type": "function"
    },
    {
      "inputs": [],
      "name": "MAX_SUPPLY",
      "outputs": [
        {
          "internalType": "uint256",
          "name": "",
          "type": "uint256"
        }
      ],
      "stateMutability": "view",
      "type": "function"
    },
    {
      "inputs": [
        {
          "internalType": "address",
          "name": "minter",
          "type": "address"
        }
      ],
      "name": "addMinter",
      "outputs": [],
      "stateMutability": "nonpayable",
      "type": "function"
    },
    {
      "inputs": [
        {
          "internalType": "address",
          "name": "owner",
          "type": "address"
        },
        {
          "internalType": "address",
          "name": "spender",
          "type": "address"
        }
      ],
      "name": "allowance",
      "outputs": [
        {
          "internalType": "uint256",
          "name": "",
          "type": "uint256"
        }
      ],
      "stateMutability": "view",
      "type": "function"
    },
    {
      "inputs": [
        {
          "internalType": "address",
          "name": "spender",
          "type": "address"
        },
        {
          "internalType": "uint256",
          "name": "value",
          "type": "uint256"
        }
      ],
      "name": "approve",
      "outputs": [
        {
          "internalType": "bool",
          "name": "",
          "type": "bool"
        }
      ],
      "stateMutability": "nonpayable",
      "type": "function"
    },
    {
      "inputs": [
        {
          "internalType": "address",
          "name": "account",
          "type": "address"
        }
      ],
      "name": "balanceOf",
      "outputs": [
        {
          "internalType": "uint256",
          "name": "",
          "type": "uint256"
        }
      ],
      "stateMutability": "view",
      "type": "function"
    },
    {
      "inputs": [
        {
          "internalType": "uint256",
          "name": "amount",
          "type": "uint256"
        }
      ],
      "name": "burn",
      "outputs": [],
      "stateMutability": "nonpayable",
      "type": "function"
    },
    {
      "inputs": [
        {
          "internalType": "address",
          "name": "account",
          "type": "address"
        },
        {
          "internalType": "uint256",
          "name": "amount",
          "type": "uint256"
        }
      ],
      "name": "burnFrom",
      "outputs": [],
      "stateMutability": "nonpayable",
      "type": "function"
    },
    {
      "inputs": [
        {
          "internalType": "address",
          "name": "account",
          "type": "address"
        },
        {
          "internalType": "uint32",
          "name": "pos",
          "type": "uint32"
        }
      ],
      "name": "checkpoints",
      "outputs": [
        {
          "components": [
            {
              "internalType": "uint48",
              "name": "_key",
              "type": "uint48"
            },
            {
              "internalType": "uint208",
              "name": "_value",
              "type": "uint208"
            }
          ],
          "internalType": "struct Checkpoints.Checkpoint208",
          "name": "",
          "type": "tuple"
        }
      ],
      "stateMutability": "view",
      "type": "function"
    },
    {
      "inputs": [],
      "name": "clock",
      "outputs": [
        {
          "internalType": "uint48",
          "name": "",
          "type": "uint48"
        }
      ],
      "stateMutability": "view",
      "type": "function"
    },
    {
      "inputs": [],
      "name": "decimals",
      "outputs": [
        {
          "internalType": "uint8",
          "name": "",
          "type": "uint8"
        }
      ],
      "stateMutability": "view",
      "type": "function"
    },
    {
      "inputs": [
        {
          "internalType": "address",
          "name": "delegatee",
          "type": "address"
        }
      ],
      "name": "delegate",
      "outputs": [],
      "stateMutability": "nonpayable",
      "type": "function"
    },
    {
      "inputs": [
        {
          "internalType": "address",
          "name": "delegatee",
          "type": "address"
        },
        {
          "internalType": "uint256",
          "name": "nonce",
          "type": "uint256"
        },
        {
          "internalType": "uint256",
          "name": "expiry",
          "type": "uint256"
        },
        {
          "internalType": "uint8",
          "name": "v",
          "type": "uint8"
        },
        {
          "internalType": "bytes32",
          "name": "r",
          "type": "bytes32"
        },
        {
          "internalType": "bytes32",
          "name": "s",
          "type": "bytes32"
        }
      ],
      "name": "delegateBySig",
      "outputs": [],
      "stateMutability": "nonpayable",
      "type": "function"
    },
    {
      "inputs": [
        {
          "internalType": "address",
          "name": "account",
          "type": "address"
        }
      ],
      "name": "delegates",
      "outputs": [
        {
          "internalType": "address",
          "name": "",
          "type": "address"
        }
      ],
      "stateMutability": "view",
      "type": "function"
    },
    {
      "inputs": [],
      "name": "disableMinting",
      "outputs": [],
      "stateMutability": "nonpayable",
      "type": "function"
    },
    {
      "inputs": [],
      "name": "eip712Domain",
      "outputs": [
        {
          "internalType": "bytes1",
          "name": "fields",
          "type": "bytes1"
        },
        {
          "internalType": "string",
          "name": "name",
          "type": "string"
        },
        {
          "internalType": "string",
          "name": "version",
          "type": "string"
        },
        {
          "internalType": "uint256",
          "name": "chainId",
          "type": "uint256"
        },
        {
          "internalType": "address",
          "name": "verifyingContract",
          "type": "address"
        },
        {
          "internalType": "bytes32",
          "name": "salt",
          "type": "bytes32"
        },
        {
          "internalType": "uint256[]",
          "name": "extensions",
          "type": "uint256[]"
        }
      ],
      "stateMutability": "view",
      "type": "function"
    },
    {
      "inputs": [
        {
          "internalType": "uint256",
          "name": "timepoint",
          "type": "uint256"
        }
      ],
      "name": "getPastTotalSupply",
      "outputs": [
        {
          "internalType": "uint256",
          "name": "",
          "type": "uint256"
        }
      ],
      "stateMutability": "view",
      "type": "function"
    },
    {
      "inputs": [
        {
          "internalType": "address",
          "name": "account",
          "type": "address"
        },
        {
          "internalType": "uint256",
          "name": "timepoint",
          "type": "uint256"
        }
      ],
      "name": "getPastVotes",
      "outputs": [
        {
          "internalType": "uint256",
          "name": "",
          "type": "uint256"
        }
      ],
      "stateMutability": "view",
      "type": "function"
    },
    {
      "inputs": [
        {
          "internalType": "address",
          "name": "account",
          "type": "address"
        }
      ],
      "name": "getVotes",
      "outputs": [
        {
          "internalType": "uint256",
          "name": "",
          "type": "uint256"
        }
      ],
      "stateMutability": "view",
      "type": "function"
    },
    {
      "inputs": [
        {
          "internalType": "address",
          "name": "to",
          "type": "address"
        },
        {
          "internalType": "uint256",
          "name": "amount",
          "type": "uint256"
        }
      ],
      "name": "mint",
      "outputs": [],
      "stateMutability": "nonpayable",
      "type": "function"
    },
    {
      "inputs": [
        {
          "internalType": "address",
          "name": "",
          "type": "address"
        }
      ],
      "name": "minters",
      "outputs": [
        {
          "internalType": "bool",
          "name": "",
          "type": "bool"
        }
      ],
      "stateMutability": "view",
      "type": "function"
    },
    {
      "inputs": [],
      "name": "mintingEnabled",
      "outputs": [
        {
          "internalType": "bool",
          "name": "",
          "type": "bool"
        }
      ],
      "stateMutability": "view",
      "type": "function"
    },
    {
      "inputs": [],
      "name": "name",
      "outputs": [
        {
          "internalType": "string",
          "name": "",
          "type": "string"
        }
      ],
      "stateMutability": "view",
      "type": "function"
    },
    {
      "inputs": [
        {
          "internalType": "address",
          "name": "owner",
          "type": "address"
        }
      ],
      "name": "nonces",
      "outputs": [
        {
          "internalType": "uint256",
          "name": "",
          "type": "uint256"
        }
      ],
      "stateMutability": "view",
      "type": "function"
    },
    {
      "inputs": [
        {
          "internalType": "address",
          "name": "account",
          "type": "address"
        }
      ],
      "name": "numCheckpoints",
      "outputs": [
        {
          "internalType": "uint32",
          "name": "",
          "type": "uint32"
        }
      ],
      "stateMutability": "view",
      "type": "function"
    },
    {
      "inputs": [],
      "name": "owner",
      "outputs": [
        {
          "internalType": "address",
          "name": "",
          "type": "address"
        }
      ],
      "stateMutability": "view",
      "type": "function"
    },
    {
      "inputs": [
        {
          "internalType": "address",
          "name": "owner",
          "type": "address"
        },
        {
          "internalType": "address",
          "name": "spender",
          "type": "address"
        },
        {
          "internalType": "uint256",
          "name": "value",
          "type": "uint256"
        },
        {
          "internalType": "uint256",
          "name": "deadline",
          "type": "uint256"
        },
        {
          "internalType": "uint8",
          "name": "v",
          "type": "uint8"
        },
        {
          "internalType": "bytes32",
          "name": "r",
          "type": "bytes32"
        },
        {
          "internalType": "bytes32",
          "name": "s",
          "type": "bytes32"
        }
      ],
      "name": "permit",
      "outputs": [],
      "stateMutability": "nonpayable",
      "type": "function"
    },
    {
      "inputs": [
        {
          "internalType": "address",
          "name": "minter",
          "type": "address"
        }
      ],
      "name": "removeMinter",
      "outputs": [],
      "stateMutability": "nonpayable",
      "type": "function"
    },
    {
      "inputs": [],
      "name": "renounceOwnership",
      "outputs": [],
      "stateMutability": "nonpayable",
      "type": "function"
    },
    {
      "inputs": [],
      "name": "symbol",
      "outputs": [
        {
          "internalType": "string",
          "name": "",
          "type": "string"
        }
      ],
      "stateMutability": "view",
      "type": "function"
    },
    {
      "inputs": [],
      "name": "totalSupply",
      "outputs": [
        {
          "internalType": "uint256",
          "name": "",
          "type": "uint256"
        }
      ],
      "stateMutability": "view",
      "type": "function"
    },
    {
      "inputs": [
        {
          "internalType": "address",
          "name": "to",
          "type": "address"
        },
        {
          "internalType": "uint256",
          "name": "value",
          "type": "uint256"
        }
      ],
      "name": "transfer",
      "outputs": [
        {
          "internalType": "bool",
          "name": "",
          "type": "bool"
        }
      ],
      "stateMutability": "nonpayable",
      "type": "function"
    },
    {
      "inputs": [
        {
          "internalType": "address",
          "name": "from",
          "type": "address"
        },
        {
          "internalType": "address",
          "name": "to",
          "type": "address"
        },
        {
          "internalType": "uint256",
          "name": "value",
          "type": "uint256"
        }
      ],
      "name": "transferFrom",
      "outputs": [
        {
          "internalType": "bool",
          "name": "",
          "type": "bool"
        }
      ],
      "stateMutability": "nonpayable",
      "type": "function"
    },
    {
      "inputs": [
        {
          "internalType": "address",
          "name": "newOwner",
          "type": "address"
        }
      ],
      "name": "transferOwnership",
      "outputs": [],
      "stateMutability": "nonpayable",
      "type": "function"
    }
  ],
  "bytecode": "0x61016060405234620002625762000015620002d4565b6200001f620002d4565b906200002a620002aa565b91602092654e594947424160d01b8482015262000046620002bf565b603160f81b858201908152835190939192916001600160401b0382116200025c576200007f82620000796003546200030f565b6200034c565b8690601f8311600114620001cc579180620000b892620000c19594600092620001c0575b50508160011b916000199060031b1c19161790565b600355620004b8565b620000cc83620006e4565b92610120938452620000de82620007f4565b94610140958652815191012060e052519020916101009283524660a0526200010562000901565b6080523060c0523315620001a7576200011e336200069b565b62000131600160ff19600d541617600d55565b6200013c33620005a6565b336000908152600c602052604090206200015d90805460ff19166001179055565b604051916125b79384620010498539608051846115cb015260a05184611686015260c05184611595015260e0518461161a01525183611640015251826109bb015251816109e50152f35b604051631e4fbdf760e01b815260006004820152602490fd5b015190503880620000a3565b6003600052601f19831691907fc2575a0e9e593c00f959f8c92f12db2869c3395a3b0502d05e2516446f71f85b9260005b8a82821062000245575050916001939185620000c1979694106200022b575b505050811b01600355620004b8565b015160001960f88460031b161c191690553880806200021c565b6001859682939686015181550195019301620001fd565b62000267565b600080fd5b634e487b7160e01b600052604160045260246000fd5b604081019081106001600160401b038211176200025c57604052565b60405190620002a8826200027d565b565b60405190620002b9826200027d565b60068252565b60405190620002ce826200027d565b60018252565b60405190620002e3826200027d565b601782527f4e796967626120476f7665726e616e636520546f6b656e0000000000000000006020830152565b90600182811c9216801562000341575b60208310146200032b57565b634e487b7160e01b600052602260045260246000fd5b91607f16916200031f565b601f811162000359575050565b60009060036000526020600020906020601f850160051c830194106200039c575b601f0160051c01915b8281106200039057505050565b81815560010162000383565b90925082906200037a565b601f8111620003b4575050565b60009060046000526020600020906020601f850160051c83019410620003f7575b601f0160051c01915b828110620003eb57505050565b818155600101620003de565b9092508290620003d5565b601f81116200040f575050565b60009060056000526020600020906020601f850160051c8301941062000452575b601f0160051c01915b8281106200044657505050565b81815560010162000439565b909250829062000430565b601f81116200046a575050565b60009060066000526020600020906020601f850160051c83019410620004ad575b601f0160051c01915b828110620004a157505050565b81815560010162000494565b90925082906200048b565b80519091906001600160401b0381116200025c57620004e481620004de6004546200030f565b620003a7565b602080601f83116001146200051e57508190620005199394600092620001c05750508160011b916000199060031b1c19161790565b600455565b6004600052601f198316949091907f8a35acfbc15ff81a39ae7d344fd709f28e8600b4aa8c65c6b64bfe7fe36bd19b926000905b8782106200058d57505083600195961062000573575b505050811b01600455565b015160001960f88460031b161c1916905538808062000568565b8060018596829496860151815501950193019062000552565b6001600160a01b038116801562000682576002546a52b7d2dcc80cd2e4000000908181018091116200067c576002556001600160a01b038316600090815260208190526040902090815401905560007fddf252ad1be2c89b69c2b068fc378daa952ba7f163c4a11628f55a4df523b3ef604051806200063481906a52b7d2dcc80cd2e4000000602083019252565b0390a36002546001600160d01b038111620006555750620002a89062000a24565b604051630e58ae9360e11b815260048101919091526001600160d01b036024820152604490fd5b62000a0e565b60405163ec442f0560e01b815260006004820152602490fd5b600b80546001600160a01b039283166001600160a01b0319821681179092559091167f8be0079c531659141344cd1fd0a4f28419497f9722a3daafe3b4186f6b6457e0600080a3565b90815160208082106000146200070557505090620007029062000991565b90565b6001600160401b0382116200025c576200072c82620007266005546200030f565b62000402565b602090601f83116001146200076957508190620007619394600092620001c05750508160011b916000199060031b1c19161790565b60055560ff90565b6005600052601f198316949091907f036b6384b5eca791c62761152d0c79bb0604c104a5fb6f4eb0703f3154bb3db0926000905b878210620007db575050836001959610620007c1575b505050811b0160055560ff90565b015160001960f88460031b161c19169055388080620007b3565b806001859682949686015181550195019301906200079d565b90815160208082106000146200081257505090620007029062000991565b6001600160401b0382116200025c576200083982620008336006546200030f565b6200045d565b602090601f831160011462000876575081906200086e9394600092620001c05750508160011b916000199060031b1c19161790565b60065560ff90565b6006600052601f198316949091907ff652222313e28459528d920b65115c16c04f3efc82aaedc97be59f3f377c0d3f926000905b878210620008e8575050836001959610620008ce575b505050811b0160065560ff90565b015160001960f88460031b161c19169055388080620008c0565b80600185968294968601518155019501930190620008aa565b60e051610100516040519060208201927f8b73c3c69bb8fe3d512ecc4cf759cc79239f7b179b0ffacaa9a75d522b39400f8452604083015260608201524660808201523060a082015260a0815260c0810181811060018060401b038211176200025c5760405251902090565b60208151910151906020811062000982575090565b6000199060200360031b1b1690565b601f815111620009ac57620009a6816200096d565b90511790565b6040519063305a27a960e01b82528160208060048301528251908160248401526000935b828510620009f4575050604492506000838284010152601f80199101168101030190fd5b8481018201518686016044015293810193859350620009d0565b634e487b7160e01b600052601160045260246000fd5b65ffffffffffff9081431162000af357600a548062000ac0575062000a5c620002a89262000a53600062001001565b90431662000e38565b50506001600160a01b0390811690811562000aae575b60086020527f5eff886ea0ce6ca488a3d6e336d6c0f75f46d19b42c06ce5ee98e42c96d256c75460009283526040909220548116911662000bfe565b62000ab862000b12565b505062000a72565b916000199083828101116200067c5762000a5362000a5c92620002a895600a600052602060002001015460301c62001001565b6040516306dfcc6560e41b815260306004820152436024820152604490fd5b65ffffffffffff80431162000af357600a548062000b60575060005b6001600160d01b039081166a52b7d2dcc80cd2e3ffffff19019081116200067c5762000b5c91431662000e38565b9091565b6000199080828101116200067c57600a6000520160008051602062003600833981519152015460301c62000b2e565b65ffffffffffff9081431162000af35780548062000bda57506000905b6001600160d01b039182166a52b7d2dcc80cd2e4000000019182116200067c5762000b5c9243169062000f34565b6000199080828101116200067c5782600052602060002001015460301c9062000bac565b6001600160a01b03808316929190811690818414158062000d51575b62000c26575b50505050565b8162000c94575b50508162000c3e575b808062000c20565b6001600160a01b03166000908152600960205260409020600080516020620036208339815191529062000c719062000b8f565b604080516001600160d01b039384168152919092166020820152a2388062000c36565b6001600160a01b0316600090815260096020526040902065ffffffffffff9081431162000af35780548062000d135750600080516020620036208339815191529162000cf09162000ce6600062001024565b9143169062000f34565b604080516001600160d01b039384168152919092166020820152a2388062000c2d565b916000199183838101116200067c5762000ce662000cf093600080516020620036208339815191529583600052602060002001015460301c62001024565b50600162000c1a565b6000198101919082116200067c57565b600a5490680100000000000000008210156200025c576001820180600a5582101562000dcc57600a60005280516020919091015160301b65ffffffffffff191665ffffffffffff91909116176000805160206200360083398151915290910155565b634e487b7160e01b600052603260045260246000fd5b908154680100000000000000008110156200025c576001810180845581101562000dcc5760009283526020928390208251929093015160301b65ffffffffffff191665ffffffffffff9290921691909117910155565b600a54919291801562000f055762000e5462000e6d9162000d5a565b600a600052600080516020620036008339815191520190565b9081549165ffffffffffff9081841691831680831162000ef35786920362000eb55762000eae92509065ffffffffffff82549181199060301b169116179055565b60301c9190565b505062000eed9062000ed862000eca62000299565b65ffffffffffff9092168252565b6001600160d01b038516602082015262000d6a565b62000eae565b604051632520601d60e01b8152600490fd5b5062000f2e9062000f1962000eca62000299565b6001600160d01b038416602082015262000d6a565b60009190565b8054929392801562000fd75762000f4f62000f5c9162000d5a565b8260005260206000200190565b9182549265ffffffffffff9182851692811680841162000ef35787930362000f9e575062000eae92509065ffffffffffff82549181199060301b169116179055565b91505062000eed9162000fc262000fb462000299565b65ffffffffffff9093168352565b6001600160d01b038616602083015262000de2565b509062000f2e9162000fec62000fb462000299565b6001600160d01b038516602083015262000de2565b6001600160d01b039081166a52b7d2dcc80cd2e4000000019081116200067c5790565b6001600160d01b039081166a52b7d2dcc80cd2e3ffffff19019081116200067c579056fe6080604052600436101561001257600080fd5b60003560e01c806306fdde0314610257578063095ea7b31461025257806318160ddd1461024d57806323b872dd146102485780632ff2e9dc146102435780633092afd51461023e578063313ce5671461023957806332cb6b0c146102345780633644e5151461022f5780633a46b1a81461022a57806340c10f191461022557806342966c68146102205780634bf5d7e91461021b578063587cde1e146102165780635c19a95c146102115780636fcfff451461020c57806370a0823114610207578063715018a61461020257806379cc6790146101fd5780637e5cd5c1146101f85780637ecebe00146101f357806384b0196e146101ee5780638da5cb5b146101e95780638e539e8c146101e457806391ddadf4146101df57806395d89b41146101da578063983b2d56146101d55780639ab24eb0146101d05780639fd6db12146101cb578063a9059cbb146101c6578063c3cda520146101c1578063d505accf146101bc578063dd62ed3e146101b7578063f1127ed8146101b2578063f2fde38b146101ad5763f46eccc4146101a857600080fd5b61115d565b6110cf565b61101c565b610fc4565b610e90565b610dc7565b610d81565b610d5e565b610d15565b610c66565b610bbe565b610b92565b610ac4565b610a9b565b6109a0565b610966565b61091b565b6108eb565b61088d565b610854565b6107ec565b6107ca565b61078f565b6106fd565b6106e0565b61062d565b610545565b610522565b6104fb565b6104df565b610477565b610451565b610419565b6103fb565b6103ca565b6102b0565b919082519283825260005b848110610288575050826000602080949584010152601f8019910116010190565b602081830181015184830182015201610267565b9060206102ad92818152019061025c565b90565b3461039957600080600319360112610396576040519080600354906102d4826111b2565b808552916020916001918281169081156103695750600114610311575b61030d8661030181880382611277565b6040519182918261029c565b0390f35b9350600384527fc2575a0e9e593c00f959f8c92f12db2869c3395a3b0502d05e2516446f71f85b5b838510610356575050505081016020016103018261030d386102f1565b8054868601840152938201938101610339565b905086955061030d9693506020925061030194915060ff191682840152151560051b8201019293386102f1565b80fd5b600080fd5b600435906001600160a01b038216820361039957565b602435906001600160a01b038216820361039957565b34610399576040366003190112610399576103f06103e661039e565b6024359033611a25565b602060405160018152f35b34610399576000366003190112610399576020600254604051908152f35b34610399576060366003190112610399576103f061043561039e565b61043d6103b4565b6044359161044c83338361135c565b611454565b346103995760003660031901126103995760206040516a52b7d2dcc80cd2e40000008152f35b346103995760203660031901126103995761049061039e565b610498611566565b6001600160a01b03166000818152600c60205260408120805460ff19169055907fe94479a9f7e1952cc78f2d6baab678adc1b772d936c6583def489e524cb666928280a280f35b3461039957600036600319011261039957602060405160128152f35b346103995760003660031901126103995760206040516b033b2e3c9fd0803ce80000008152f35b3461039957600036600319011261039957602061053d611592565b604051908152f35b346103995760403660031901126103995761055e61039e565b6001600160a01b03166000908152600960205260408120906105816024356116ac565b918054829381600581116105d3575b509060209461059f9284611c76565b806105b95750505b6040516001600160d01b039091168152f35b916105c58492936116ed565b92815220015460301c6105a7565b946105dd86611ae2565b86039586116106285760209561059f9385875265ffffffffffff80838a8a20015416908516106000146106165750915b91925094610590565b929150610622906112d8565b9061060d565b61119c565b346103995760403660031901126103995761064661039e565b60243533600052600c60205260ff60406000205416156106a2576106a091610678610673600d5460ff1690565b611299565b61069b6b033b2e3c9fd0803ce8000000610694846002546112e6565b11156112f3565b6116fc565b005b60405162461bcd60e51b8152602060048201526016602482015275139bdd08185d5d1a1bdc9a5e9959081d1bc81b5a5b9d60521b6044820152606490fd5b34610399576020366003190112610399576106a0600435336117a8565b346103995760003660031901126103995761071743611a90565b65ffffffffffff8061072843611a90565b1691160361077d5761030d60405161073f81611202565b601d81527f6d6f64653d626c6f636b6e756d6265722666726f6d3d64656661756c74000000602082015260405191829160208352602083019061025c565b6040516301bfc1c560e61b8152600490fd5b346103995760203660031901126103995760206001600160a01b03806107b361039e565b166000526008825260406000205416604051908152f35b34610399576020366003190112610399576106a06107e661039e565b3361189b565b34610399576020366003190112610399576001600160a01b0361080d61039e565b16600052600960205260406000205463ffffffff908181116108355760209160405191168152f35b604490604051906306dfcc6560e41b8252602060048301526024820152fd5b3461039957602036600319011261039957602061053d61087261039e565b6001600160a01b031660009081526020819052604090205490565b3461039957600080600319360112610396576108a7611566565b600b80546001600160a01b0319811690915581906001600160a01b03167f8be0079c531659141344cd1fd0a4f28419497f9722a3daafe3b4186f6b6457e08280a380f35b34610399576040366003190112610399576106a061090761039e565b6024359061091682338361135c565b6117a8565b346103995760008060031936011261039657610935611566565b60ff19600d5416600d557faf79b4370f6af9d950564bbe6b81f7f0834c003c455db9248f4e55e6bf865eb78180a180f35b34610399576020366003190112610399576001600160a01b0361098761039e565b1660005260076020526020604060002054604051908152f35b346103995760008060031936011261039657610a3e906109df7f0000000000000000000000000000000000000000000000000000000000000000611e29565b90610a097f0000000000000000000000000000000000000000000000000000000000000000611f2a565b9060405191610a1783611223565b818352610a4c602091604051968796600f60f81b885260e0602089015260e088019061025c565b90868203604088015261025c565b904660608601523060808601528260a086015284820360c0860152602080855193848152019401925b828110610a8457505050500390f35b835185528695509381019392810192600101610a75565b3461039957600036600319011261039957600b546040516001600160a01b039091168152602090f35b3461039957602036600319011261039957610ae06004356116ac565b600a54906000829160058411610b36575b610afb9350611c0d565b80610b0d575060405160008152602090f35b610b186020916116ed565b600a600052600080516020612562833981519152015460301c6105a7565b9192610b4181611ae2565b810390811161062857610afb93600a60005265ffffffffffff808360008051602061256283398151915201541690851610600014610b80575091610af1565b929150610b8c906112d8565b90610af1565b34610399576000366003190112610399576020610bae43611a90565b65ffffffffffff60405191168152f35b346103995760008060031936011261039657604051908060045490610be2826111b2565b808552916020916001918281169081156103695750600114610c0e5761030d8661030181880382611277565b9350600484527f8a35acfbc15ff81a39ae7d344fd709f28e8600b4aa8c65c6b64bfe7fe36bd19b5b838510610c53575050505081016020016103018261030d386102f1565b8054868601840152938201938101610c36565b3461039957602036600319011261039957610c7f61039e565b610c87611566565b6001600160a01b03168015610cd7576000818152600c60205260408120805460ff19166001179055907f6ae172837ea30b801fbfcdd4108aa1d5bf8ff775444fd70256b44e6bf3dfc3f68280a280f35b60405162461bcd60e51b8152602060048201526016602482015275496e76616c6964206d696e746572206164647265737360501b6044820152606490fd5b34610399576020366003190112610399576001600160a01b03610d3661039e565b166000526009602052602060018060d01b03610d556040600020611965565b16604051908152f35b3461039957600036600319011261039957602060ff600d54166040519015158152f35b34610399576040366003190112610399576103f0610d9d61039e565b6024359033611454565b6064359060ff8216820361039957565b6084359060ff8216820361039957565b346103995760c036600319011261039957610de061039e565b60443590602435610def610da7565b834211610e7757610e6b6106a094610e72926040519060208201927fe48329057bfd03d55e49b547132e39cffd9c1820ad7b9d4c5307691425d15adf845260018060a01b0388166040840152866060840152608083015260808252610e538261123f565b610e6660a4359360843593519020611991565b6119b7565b91826119cf565b61189b565b604051632341d78760e11b815260048101859052602490fd5b346103995760e036600319011261039957610ea961039e565b610eb16103b4565b60443590606435610ec0610db7565b814211610fab576001600160a01b0385811660008181526007602090815260409182902080546001810190915582517f6e71edae12b1b97f4d1f60370fef10105fa2faae0126114a169c64845d6126c99281019283529283019390935292861660608201526080810187905260a081019190915260c080820194909452928352610f64929091610f5160e083611277565b610e6660c4359360a43593519020611991565b6001600160a01b0384811690821603610f8157506106a092611a25565b6040516325c0072360e11b81526001600160a01b0391821660048201529084166024820152604490fd5b60405163313c898160e11b815260048101839052602490fd5b34610399576040366003190112610399576020611013610fe261039e565b610fea6103b4565b6001600160a01b0391821660009081526001855260408082209290931681526020919091522090565b54604051908152f35b346103995760403660031901126103995761103561039e565b6024359063ffffffff821682036103995761030d9161108591611056611343565b5061105f611343565b506001600160a01b0316600090815260096020526040902061107f611343565b50612127565b506040519061109382611202565b5465ffffffffffff811680835260309190911c60209283019081526040805192835290516001600160d01b031692820192909252918291820190565b34610399576020366003190112610399576110e861039e565b6110f0611566565b6001600160a01b0390811690811561114457600b54826bffffffffffffffffffffffff60a01b821617600b55167f8be0079c531659141344cd1fd0a4f28419497f9722a3daafe3b4186f6b6457e0600080a3005b604051631e4fbdf760e01b815260006004820152602490fd5b34610399576020366003190112610399576001600160a01b0361117e61039e565b16600052600c602052602060ff604060002054166040519015158152f35b634e487b7160e01b600052601160045260246000fd5b90600182811c921680156111e2575b60208310146111cc57565b634e487b7160e01b600052602260045260246000fd5b91607f16916111c1565b634e487b7160e01b600052604160045260246000fd5b6040810190811067ffffffffffffffff82111761121e57604052565b6111ec565b6020810190811067ffffffffffffffff82111761121e57604052565b60a0810190811067ffffffffffffffff82111761121e57604052565b60c0810190811067ffffffffffffffff82111761121e57604052565b90601f8019910116810190811067ffffffffffffffff82111761121e57604052565b156112a057565b60405162461bcd60e51b815260206004820152601060248201526f135a5b9d1a5b99c8191a5cd8589b195960821b6044820152606490fd5b906001820180921161062857565b9190820180921161062857565b156112fa57565b60405162461bcd60e51b815260206004820152601260248201527145786365656473206d617820737570706c7960701b6044820152606490fd5b6040519061134182611202565b565b6040519061135082611202565b60006020838281520152565b6001600160a01b0381811660008181526001602090815260408083208786168452909152902054929493929190600019831061139b575b505050505050565b848310611425571561140c578216156113f3576113e7926113d091039360018060a01b03166000526001602052604060002090565b9060018060a01b0316600052602052604060002090565b55388080808080611393565b604051634a1406b160e11b815260006004820152602490fd5b60405163e602df0560e01b815260006004820152602490fd5b604051637dc7a0d960e11b81526001600160a01b03851660048201526024810184905260448101869052606490fd5b6001600160a01b038082169493929190851561154d5782168015611534576001600160a01b0382166000908152602081905260409020549584871061150557846113419697036114b68460018060a01b03166000526000602052604060002090565b556001600160a01b0384166000908152602081815260409182902080548801905590518681527fddf252ad1be2c89b69c2b068fc378daa952ba7f163c4a11628f55a4df523b3ef9190a361229a565b60405163391434e360e21b81526001600160a01b03841660048201526024810188905260448101869052606490fd5b60405163ec442f0560e01b815260006004820152602490fd5b604051634b637e8f60e11b815260006004820152602490fd5b600b546001600160a01b0316330361157a57565b60405163118cdaa760e01b8152336004820152602490fd5b307f00000000000000000000000000000000000000000000000000000000000000006001600160a01b03161480611683575b156115ed577f000000000000000000000000000000000000000000000000000000000000000090565b60405160208101907f8b73c3c69bb8fe3d512ecc4cf759cc79239f7b179b0ffacaa9a75d522b39400f82527f000000000000000000000000000000000000000000000000000000000000000060408201527f000000000000000000000000000000000000000000000000000000000000000060608201524660808201523060a082015260a0815261167d8161125b565b51902090565b507f000000000000000000000000000000000000000000000000000000000000000046146115c4565b65ffffffffffff6116bc43611a90565b16808210156116cf57506102ad90611a90565b6044925060405191637669fc0f60e11b835260048301526024820152fd5b60001981019190821161062857565b91906001600160a01b038316801561153457600254828101809111610628576002556001600160a01b038416600090815260208181526040808320805486019055518481527fddf252ad1be2c89b69c2b068fc378daa952ba7f163c4a11628f55a4df523b3ef9190a3600254926001600160d01b03841161178257611341929350612221565b604051630e58ae9360e11b8152600481018590526001600160d01b036024820152604490fd5b91906001600160a01b03808416801561154d576001600160a01b0385166000908152602081905260409020549483861061186a579060209291611804856113419798039160018060a01b03166000526000602052604060002090565b558360025403600255604051848152817fddf252ad1be2c89b69c2b068fc378daa952ba7f163c4a11628f55a4df523b3ef6000958693a361184c61184785612155565b6121ef565b50508252600860205260408181842054169280805220541690611cd7565b60405163391434e360e21b81526001600160a01b039190911660048201526024810186905260448101849052606490fd5b6001600160a01b03818116600081815260086020526040812080548685166001600160a01b031982168117909255611341969416946119189390928691907f3134e8a2e6d97e929a7e54011ea5485d7d196dd5f0ba4d4ef95803e8e3fc257f9080a46001600160a01b031660009081526020819052604090205490565b91611cd7565b600a548061192c5750600090565b8060001981011161062857600a6000527fc65a7bb8d6351c1cf70c95a316cc6a92839c986682d98bc35f958f4883f9d2a7015460301c90565b805480611973575050600090565b60001991818381011161062857600052602060002001015460301c90565b60429061199c611592565b906040519161190160f01b8352600283015260228201522090565b916102ad93916119c693611fea565b9092919261209a565b6001600160a01b038116600090815260076020526040902080546001810190915590918190036119fd575050565b6040516301d4b62360e61b81526001600160a01b039092166004830152602482015260449150fd5b6001600160a01b03808216929190831561140c5782169384156113f35780611a867f8c5be1e5ebec7d5bd14f71427d1e84f3dd0314c0f7b2291e5b200ac8c7c3b925946113d060209560018060a01b03166000526001602052604060002090565b55604051908152a3565b65ffffffffffff90818111611aa3571690565b604490604051906306dfcc6560e41b8252603060048301526024820152fd5b8115611acc570490565b634e487b7160e01b600052601260045260246000fd5b60018111156102ad57600181600160801b811015611bfb575b611ba3611b99611b8f611b85611b7b611b71611baf97600488600160401b611baa9a1015611bee575b640100000000811015611be1575b62010000811015611bd4575b610100811015611bc8575b6010811015611bbc575b1015611bb4575b60030260011c611b6a818b611ac2565b0160011c90565b611b6a818a611ac2565b611b6a8189611ac2565b611b6a8188611ac2565b611b6a8187611ac2565b611b6a8186611ac2565b8093611ac2565b821190565b900390565b60011b611b5a565b811c9160021b91611b53565b60081c91811b91611b49565b60101c9160081b91611b3e565b60201c9160101b91611b32565b60401c9160201b91611b24565b50600160401b9050608082901c611afb565b905b828110611c1b57505090565b90918082169080831860011c820180921161062857600a60005265ffffffffffff808360008051602061256283398151915201541690851610600014611c645750915b90611c0f565b929150611c70906112d8565b90611c5e565b91905b838210611c865750505090565b9091928083169080841860011c82018092116106285760008581526020902082015465ffffffffffff9081169084161015611cc55750925b9190611c79565b939250611cd1906112d8565b91611cbe565b6001600160a01b03808316939291908116908185141580611e20575b611cff575b5050505050565b81611d84575b505082611d14575b8080611cf8565b6001600160a01b031660009081526009602052604090207fdec2bacdd2f05b59de34da9b523dff8be42e5e38e818c82fdb0bae774387a72491611d6191611d5b9091612155565b90612188565b604080516001600160d01b039384168152919092166020820152a2388080611d0d565b6001600160a01b03166000908152600960205260409020611da484612155565b611dad43611a90565b6001600160d01b03918280611dc186611965565b169116900392828411610628577fdec2bacdd2f05b59de34da9b523dff8be42e5e38e818c82fdb0bae774387a72493611e1692611dfd926124a5565b6040805192851683529316602082015291829190820190565b0390a23880611d05565b50831515611cf3565b60ff8114611e675760ff811690601f8211611e555760405191611e4b83611202565b8252602082015290565b604051632cd44ac360e21b8152600490fd5b50604051600554816000611e7a836111b2565b80835292602090600190818116908115611f065750600114611ea5575b50506102ad92500382611277565b91509260056000527f036b6384b5eca791c62761152d0c79bb0604c104a5fb6f4eb0703f3154bb3db0936000925b828410611eee57506102ad9450505081016020013880611e97565b85548785018301529485019486945092810192611ed3565b915050602092506102ad94915060ff191682840152151560051b8201013880611e97565b60ff8114611f4c5760ff811690601f8211611e555760405191611e4b83611202565b50604051600654816000611f5f836111b2565b80835292602090600190818116908115611f065750600114611f895750506102ad92500382611277565b91509260066000527ff652222313e28459528d920b65115c16c04f3efc82aaedc97be59f3f377c0d3f936000925b828410611fd257506102ad9450505081016020013880611e97565b85548785018301529485019486945092810192611fb7565b91907f7fffffffffffffffffffffffffffffff5d576e7357a4501ddfe92f46681b20a0841161206e57926020929160ff608095604051948552168484015260408301526060820152600092839182805260015afa156120625780516001600160a01b0381161561205957918190565b50809160019190565b604051903d90823e3d90fd5b50505060009160039190565b6004111561208457565b634e487b7160e01b600052602160045260246000fd5b6120a38161207a565b806120ac575050565b6120b58161207a565b600181036120cf5760405163f645eedf60e01b8152600490fd5b6120d88161207a565b600281036120f95760405163fce698f760e01b815260048101839052602490fd5b8061210560039261207a565b1461210d5750565b6040516335e2f38360e21b81526004810191909152602490fd5b805482101561213f5760005260206000200190600090565b634e487b7160e01b600052603260045260246000fd5b6001600160d01b0390818111612169571690565b604490604051906306dfcc6560e41b825260d060048301526024820152fd5b9061219243611a90565b6001600160d01b039182806121a686611965565b16911601918211610628576121ba926124a5565b9091565b6121c743611a90565b906001600160d01b039081806121db61191e565b16911601908111610628576121ba916123bc565b6121f843611a90565b906001600160d01b0390818061220c61191e565b1691169003908111610628576121ba916123bc565b906113419161223761223283612155565b6121be565b50506001600160a01b03908116908115612287575b60086020527f5eff886ea0ce6ca488a3d6e336d6c0f75f46d19b42c06ce5ee98e42c96d256c754600092835260409092205481169116611cd7565b61229361184784612155565b505061224c565b61134192916001600160a01b039182169190819083156122f2575b169182156122df575b60005260086020528060406000205416916000526040600020541690611cd7565b6122eb61184785612155565b50506122be565b6122fe61223286612155565b50506122b5565b600a5490600160401b82101561121e576001820180600a5582101561213f57600a600052805160209091015160301b65ffffffffffff191665ffffffffffff919091161760008051602061256283398151915290910155565b8054600160401b81101561121e5761237b91600182018155612127565b6123a657815160209092015160301b65ffffffffffff191665ffffffffffff92909216919091179055565b634e487b7160e01b600052600060045260246000fd5b600a54919291801561247b576123d46123ec916116ed565b600a6000526000805160206125628339815191520190565b9081549165ffffffffffff90818416918316808311612469578692036124315761242a92509065ffffffffffff82549181199060301b169116179055565b60301c9190565b505061246490612450612442611334565b65ffffffffffff9092168252565b6001600160d01b0385166020820152612305565b61242a565b604051632520601d60e01b8152600490fd5b5061249f9061248b612442611334565b6001600160d01b0384166020820152612305565b60009190565b8054929392801561253c576124bc6124c9916116ed565b8260005260206000200190565b9182549265ffffffffffff9182851692811680841161246957879303612508575061242a92509065ffffffffffff82549181199060301b169116179055565b9150506124649161252861251a611334565b65ffffffffffff9093168352565b6001600160d01b038616602083015261235e565b509061249f9161254d61251a611334565b6001600160d01b038516602083015261235e56fec65a7bb8d6351c1cf70c95a316cc6a92839c986682d98bc35f958f4883f9d2a8a26469706673582212203d436b11795bf497ed9aedbaa4705ce5734039069955ca8a02c6d93774055f2f64736f6c63430008180033c65a7bb8d6351c1cf70c95a316cc6a92839c986682d98bc35f958f4883f9d2a8dec2bacdd2f05b59de34da9b523dff8be42e5e38e818c82fdb0bae774387a724",
  "linkReferences": {},
  "deployedLinkReferences": {}
}