{
  "_format": "hh-sol-artifact-1",
  "contractName": "ENSPaymentRouter",
  "sourceName": "contracts/ENSPaymentRouter.sol",
  "abi": [
    {
      "inputs": [
        {
          "internalType": "address",
          "name": "_nyigbaNamesContract",
          "type": "address"
        }
      ],
      "stateMutability": "nonpayable",
      "type": "constructor"
    },
    {
      "inputs": [
        {
          "internalType": "address",
          "name": "owner",
          "type": "address"
        }
      ],
      "name": "OwnableInvalidOwner",
      "type": "error"
    },
    {
      "inputs": [
        {
          "internalType": "address",
          "name": "account",
          "type": "address"
        }
      ],
      "name": "OwnableUnauthorizedAccount",
      "type": "error"
    },
    {
      "inputs": [],
      "name": "ReentrancyGuardReentrantCall",
      "type": "error"
    },
    {
      "anonymous": false,
      "inputs": [
        {
          "indexed": true,
          "internalType": "bytes32",
          "name": "fromAgent",
          "type": "bytes32"
        },
        {
          "indexed": true,
          "internalType": "bytes32",
          "name": "toAgent",
          "type": "bytes32"
        },
        {
          "indexed": false,
          "internalType": "uint256",
          "name": "amount",
          "type": "uint256"
        }
      ],
      "name": "AgentTransactionInitiated",
      "type": "event"
    },
    {
      "anonymous": false,
      "inputs": [
        {
          "indexed": true,
          "internalType": "bytes32",
          "name": "channelId",
          "type": "bytes32"
        },
        {
          "indexed": false,
          "internalType": "uint256",
          "name": "amount",
          "type": "uint256"
        },
        {
          "indexed": false,
          "internalType": "uint256",
          "name": "fee",
          "type": "uint256"
        }
      ],
      "name": "ENSPaymentProcessed",
      "type": "event"
    },
    {
      "anonymous": false,
      "inputs": [
        {
          "indexed": true,
          "internalType": "address",
          "name": "previousOwner",
          "type": "address"
        },
        {
          "indexed": true,
          "internalType": "address",
          "name": "newOwner",
          "type": "address"
        }
      ],
      "name": "OwnershipTransferred",
      "type": "event"
    },
    {
      "anonymous": false,
      "inputs": [
        {
          "indexed": true,
          "internalType": "bytes32",
          "name": "channelId",
          "type": "bytes32"
        },
        {
          "indexed": true,
          "internalType": "address",
          "name": "sender",
          "type": "address"
        },
        {
          "indexed": false,
          "internalType": "bytes32",
          "name": "nameNode",
          "type": "bytes32"
        }
      ],
      "name": "PaymentChannelCreated",
      "type": "event"
    },
    {
      "anonymous": false,
      "inputs": [
        {
          "indexed": true,
          "internalType": "bytes32",
          "name": "nameNode",
          "type": "bytes32"
        },
        {
          "indexed": false,
          "internalType": "address",
          "name": "newAddress",
          "type": "address"
        }
      ],
      "name": "RotatingAddressUpdated",
      "type": "event"
    },
    {
      "inputs": [],
      "name": "MAX_FEE",
      "outputs": [
        {
          "internalType": "uint256",
          "name": "",
          "type": "uint256"
        }
      ],
      "stateMutability": "view",
      "type": "function"
    },
    {
      "inputs": [
        {
          "internalType": "bytes32",
          "name": "",
          "type": "bytes32"
        },
        {
          "internalType": "uint256",
          "name": "",
          "type": "uint256"
        }
      ],
      "name": "agentTransactions",
      "outputs": [
        {
          "internalType": "bytes32",
          "name": "fromAgent",
          "type": "bytes32"
        },
        {
          "internalType": "bytes32",
          "name": "toAgent",
          "type": "bytes32"
        },
        {
          "internalType": "uint256",
          "name": "amount",
          "type": "uint256"
        },
        {
          "internalType": "string",
          "name": "purpose",
          "type": "string"
        },
        {
          "internalType": "uint256",
          "name": "timestamp",
          "type": "uint256"
        },
        {
          "internalType": "bool",
          "name": "executed",
          "type": "bool"
        }
      ],
      "stateMutability": "view",
      "type": "function"
    },
    {
      "inputs": [
        {
          "internalType": "bytes32",
          "name": "nameNode",
          "type": "bytes32"
        },
        {
          "internalType": "address",
          "name": "recipient",
          "type": "address"
        },
        {
          "internalType": "uint256",
          "name": "fee",
          "type": "uint256"
        }
      ],
      "name": "createPaymentChannel",
      "outputs": [
        {
          "internalType": "bytes32",
          "name": "",
          "type": "bytes32"
        }
      ],
      "stateMutability": "nonpayable",
      "type": "function"
    },
    {
      "inputs": [],
      "name": "emergencyWithdraw",
      "outputs": [],
      "stateMutability": "nonpayable",
      "type": "function"
    },
    {
      "inputs": [
        {
          "internalType": "bytes32",
          "name": "fromAgent",
          "type": "bytes32"
        },
        {
          "internalType": "uint256",
          "name": "transactionIndex",
          "type": "uint256"
        },
        {
          "internalType": "address",
          "name": "recipient",
          "type": "address"
        }
      ],
      "name": "executeAgentTransaction",
      "outputs": [],
      "stateMutability": "nonpayable",
      "type": "function"
    },
    {
      "inputs": [
        {
          "internalType": "bytes32",
          "name": "agentId",
          "type": "bytes32"
        }
      ],
      "name": "getAgentTransactions",
      "outputs": [
        {
          "components": [
            {
              "internalType": "bytes32",
              "name": "fromAgent",
              "type": "bytes32"
            },
            {
              "internalType": "bytes32",
              "name": "toAgent",
              "type": "bytes32"
            },
            {
              "internalType": "uint256",
              "name": "amount",
              "type": "uint256"
            },
            {
              "internalType": "string",
              "name": "purpose",
              "type": "string"
            },
            {
              "internalType": "uint256",
              "name": "timestamp",
              "type": "uint256"
            },
            {
              "internalType": "bool",
              "name": "executed",
              "type": "bool"
            }
          ],
          "internalType": "struct ENSPaymentRouter.AgentTransaction[]",
          "name": "",
          "type": "tuple[]"
        }
      ],
      "stateMutability": "view",
      "type": "function"
    },
    {
      "inputs": [
        {
          "internalType": "bytes32",
          "name": "channelId",
          "type": "bytes32"
        }
      ],
      "name": "getPaymentChannel",
      "outputs": [
        {
          "components": [
            {
              "internalType": "address",
              "name": "sender",
              "type": "address"
            },
            {
              "internalType": "address",
              "name": "recipient",
              "type": "address"
            },
            {
              "internalType": "address",
              "name": "ensContract",
              "type": "address"
            },
            {
              "internalType": "bytes32",
              "name": "nameNode",
              "type": "bytes32"
            },
            {
              "internalType": "uint256",
              "name": "fee",
              "type": "uint256"
            },
            {
              "internalType": "bool",
              "name": "isActive",
              "type": "bool"
            },
            {
              "internalType": "uint256",
              "name": "totalVolume",
              "type": "uint256"
            },
            {
              "internalType": "uint256",
              "name": "transactionCount",
              "type": "uint256"
            }
          ],
          "internalType": "struct ENSPaymentRouter.PaymentChannel",
          "name": "",
          "type": "tuple"
        }
      ],
      "stateMutability": "view",
      "type": "function"
    },
    {
      "inputs": [
        {
          "internalType": "address",
          "name": "user",
          "type": "address"
        }
      ],
      "name": "getUserChannels",
      "outputs": [
        {
          "internalType": "bytes32[]",
          "name": "",
          "type": "bytes32[]"
        }
      ],
      "stateMutability": "view",
      "type": "function"
    },
    {
      "inputs": [
        {
          "internalType": "bytes32",
          "name": "fromAgent",
          "type": "bytes32"
        },
        {
          "internalType": "bytes32",
          "name": "toAgent",
          "type": "bytes32"
        },
        {
          "internalType": "uint256",
          "name": "amount",
          "type": "uint256"
        },
        {
          "internalType": "string",
          "name": "purpose",
          "type": "string"
        }
      ],
      "name": "initiateAgentTransaction",
      "outputs": [],
      "stateMutability": "payable",
      "type": "function"
    },
    {
      "inputs": [],
      "name": "nyigbaNamesContract",
      "outputs": [
        {
          "internalType": "address",
          "name": "",
          "type": "address"
        }
      ],
      "stateMutability": "view",
      "type": "function"
    },
    {
      "inputs": [],
      "name": "owner",
      "outputs": [
        {
          "internalType": "address",
          "name": "",
          "type": "address"
        }
      ],
      "stateMutability": "view",
      "type": "function"
    },
    {
      "inputs": [
        {
          "internalType": "bytes32",
          "name": "",
          "type": "bytes32"
        }
      ],
      "name": "paymentChannels",
      "outputs": [
        {
          "internalType": "address",
          "name": "sender",
          "type": "address"
        },
        {
          "internalType": "address",
          "name": "recipient",
          "type": "address"
        },
        {
          "internalType": "address",
          "name": "ensContract",
          "type": "address"
        },
        {
          "internalType": "bytes32",
          "name": "nameNode",
          "type": "bytes32"
        },
        {
          "internalType": "uint256",
          "name": "fee",
          "type": "uint256"
        },
        {
          "internalType": "bool",
          "name": "isActive",
          "type": "bool"
        },
        {
          "internalType": "uint256",
          "name": "totalVolume",
          "type": "uint256"
        },
        {
          "internalType": "uint256",
          "name": "transactionCount",
          "type": "uint256"
        }
      ],
      "stateMutability": "view",
      "type": "function"
    },
    {
      "inputs": [
        {
          "internalType": "bytes32",
          "name": "channelId",
          "type": "bytes32"
        }
      ],
      "name": "processENSPayment",
      "outputs": [],
      "stateMutability": "payable",
      "type": "function"
    },
    {
      "inputs": [],
      "name": "renounceOwnership",
      "outputs": [],
      "stateMutability": "nonpayable",
      "type": "function"
    },
    {
      "inputs": [
        {
          "internalType": "address",
          "name": "newOwner",
          "type": "address"
        }
      ],
      "name": "transferOwnership",
      "outputs": [],
      "stateMutability": "nonpayable",
      "type": "function"
    },
    {
      "inputs": [
        {
          "internalType": "bytes32",
          "name": "nameNode",
          "type": "bytes32"
        },
        {
          "internalType": "address",
          "name": "newAddress",
          "type": "address"
        }
      ],
      "name": "updateRotatingAddress",
      "outputs": [],
      "stateMutability": "nonpayable",
      "type": "function"
    },
    {
      "inputs": [
        {
          "internalType": "address",
          "name": "",
          "type": "address"
        },
        {
          "internalType": "uint256",
          "name": "",
          "type": "uint256"
        }
      ],
      "name": "userChannels",
      "outputs": [
        {
          "internalType": "bytes32",
          "name": "",
          "type": "bytes32"
        }
      ],
      "stateMutability": "view",
      "type": "function"
    }
  ],
  "bytecode": "0x6080346100ca57601f6113ff38819003918201601f19168301916001600160401b038311848410176100cf578084926020946040528339810103126100ca57516001600160a01b0390818116908190036100ca5733156100b15760005460018060a01b0319903382821617600055604051933391167f8be0079c531659141344cd1fd0a4f28419497f9722a3daafe3b4186f6b6457e0600080a360018055600554161760055561131990816100e68239f35b604051631e4fbdf760e01b815260006004820152602490fd5b600080fd5b634e487b7160e01b600052604160045260246000fdfe608080604052600436101561001357600080fd5b60e0600035811c91826309d87ad914611034575081630ca95bbd14610ed757816327fa223414610dc65781634367980114610b9f578163490f982d14610b1457508063715018a614610abb5780638320540914610a2c57806385e684f3146109d35780638da5cb5b146109aa57806395050a20146109145780639778cbc41461079b578063b8a4b622146105f2578063bc063e1a146105d5578063d35ade8d146102da578063db2e21bc14610223578063dc66b28a1461016f5763f2fde38b146100dc57600080fd5b3461016a57602036600319011261016a576100f561106e565b6100fd6112b7565b6001600160a01b0390811690811561015157600054826bffffffffffffffffffffffff60a01b821617600055167f8be0079c531659141344cd1fd0a4f28419497f9722a3daafe3b4186f6b6457e0600080a3005b604051631e4fbdf760e01b815260006004820152602490fd5b600080fd5b3461016a5760208060031936011261016a576001600160a01b0361019161106e565b1660005260038152604060002060405190818382549182815201908192600052846000209060005b8682821061020f5786866101cf82880383611141565b604051928392818401908285525180915260408401929160005b8281106101f857505050500390f35b8351855286955093810193928101926001016101e9565b8354855290930192600192830192016101b9565b3461016a57600036600319011261016a5761023c6112b7565b47801561029c5760008080809360018060a01b038254165af161025d611264565b501561026557005b60405162461bcd60e51b815260206004820152600f60248201526e15da5d1a191c985dc819985a5b1959608a1b6044820152606490fd5b60405162461bcd60e51b81526020600482015260166024820152754e6f2062616c616e636520746f20776974686472617760501b6044820152606490fd5b608036600319011261016a5767ffffffffffffffff602460643582811161016a573660238201121561016a5780600401359083821161016a573683838301011161016a57610326611294565b604435341061059a576040519061033c82611125565b60043582526020820192843584526000602060408501926044358452808861036382611248565b966103716040519889611141565b82885201838701378401015260608301918252426080840152600060a084015260043560005260046020526040600020805490600160401b82101561058557906103c0916001820181556110b2565b94909461057057835185555160018501555160028401555193845190811161055b576103ef60038401546110ce565b601f8111610510575b506020601f821160011461049857918160a092600594610454979860009261048d575b50508160011b916000199060031b1c19161760038501555b608081015160048501550151151591019060ff801983541691151516179055565b60405190604435825235907fff11872d87f30913e08e3e145a0dfb3e1f12b83773fb83364b8224a3f7e0a3db602060043592a360018055005b01519050888061041b565b6003840160005260206000209560005b601f19841681106104f857508261045496976005959360019360a096601f198116106104df575b505050811b016003850155610433565b015160001960f88460031b161c191690558880806104cf565b828201518855600190970196602092830192016104a8565b600384016000526020600020601f830160051c81019160208410610551575b601f0160051c01905b81811061054557506103f8565b60008155600101610538565b909150819061052f565b83634e487b7160e01b60005260416004526000fd5b85634e487b7160e01b60005260006004526000fd5b86634e487b7160e01b60005260416004526000fd5b60405162461bcd60e51b81526020600482015260148185015273125b9cdd59999a58da595b9d081c185e5b595b9d60621b6044820152606490fd5b3461016a57600036600319011261016a5760206040516101f48152f35b60208060031936011261016a576004359061060b611294565b8160005260028152604060002060ff6005820154161561076157341561072a5760048101548034029034820403610714576127109004908134039034821161071457600681018054903482018092116107145755600781018054600019811461071457600190810190915501546000918291829182916001600160a01b03165af1610694611264565b50156106cf577fe8e7ef0c8bc3d5d382650a44d4f0ab18c27be43061d635fe00a02f18d4979e9b91604091825191348352820152a260018055005b60405162461bcd60e51b815260048101839052601760248201527f5061796d656e74207472616e73666572206661696c65640000000000000000006044820152606490fd5b634e487b7160e01b600052601160045260246000fd5b60405162461bcd60e51b815260048101839052600f60248201526e139bc81c185e5b595b9d081cd95b9d608a1b6044820152606490fd5b60405162461bcd60e51b81526004810183905260126024820152714368616e6e656c206e6f742061637469766560701b6044820152606490fd5b3461016a5760208060031936011261016a5760043560005260048152604060002080549067ffffffffffffffff82116108fe578290600592604051936107e6848360051b0186611141565b81855260009283528383208486019391845b84841061089957604080518881528951818a01819052600092600582901b83018101918a918c9085015b82871061082f5785850386f35b909192938280600192603f1989820301855287519061087360c083518352848401518584015260408401516040840152606090808286015192850152830190611208565b916080808201519083015260a08091015115159101529601920196019592919092610822565b60068760019260409a999a516108ae81611125565b865481528487015483820152600287015460408201526108d060038801611163565b60608201526004870154608082015260ff8688015416151560a08201528152019301930192919695966107f8565b634e487b7160e01b600052604160045260246000fd5b3461016a57604036600319011261016a576024356004356000526004602052604060002090815481101561016a5761094b916110b2565b508054600182015491600281015461099961096860038401611163565b60ff60056004860154950154169260405196879687526020870152604086015260c0606086015260c0850190611208565b916080840152151560a08301520390f35b3461016a57600036600319011261016a576000546040516001600160a01b039091168152602090f35b3461016a57604036600319011261016a576109ec61106e565b6001600160a01b031660009081526003602052604090208054602435919082101561016a57602091610a1d91611084565b90549060031b1c604051908152f35b3461016a57604036600319011261016a576001600160a01b03610a4d611058565b168015610a84576040519081527f388cba3e4c08da2924bc6c09fc5a9f7aacf2b3b4633236fa9999538a4ea0fde7602060043592a2005b60405162461bcd60e51b815260206004820152600f60248201526e496e76616c6964206164647265737360881b6044820152606490fd5b3461016a57600036600319011261016a57610ad46112b7565b600080546001600160a01b0319811682556001600160a01b03167f8be0079c531659141344cd1fd0a4f28419497f9722a3daafe3b4186f6b6457e08280a3005b3461016a57602036600319011261016a5761010090600435600052600260205260406000209060018060a01b039081835416928260018201541692600282015416600382015460048301549060ff6005850154169260076006860154950154966040519889526020890152604088015260608701526080860152151560a085015260c0840152820152f35b3461016a57606036600319011261016a5760043590610bbc611058565b6044356101f48111610d92576001600160a01b03918216918215610d5957604051602081013360601b815286603483015242605483015260548252608082019482861067ffffffffffffffff8711176108fe57600794610cd692876040528451902097856005541690610c2e89611108565b33895260a0860193845260c086019182528501908a8252610100860192835261012086019360018552610160610140880197600089520197600089528b60005260026020528060406000209b5116916bffffffffffffffffffffffff60a01b92838d5416178c558160018d019151168382541617905560028b0192511690825416179055516003880155516004870155511515600586019060ff801983541691151516179055565b51600684015551910155336000526003602052604060002091825492600160401b8410156108fe5783610d10916001602096018155611084565b81549060031b9084821b91600019901b1916179055604051908152817f41a6bc2ab9256719a01088bf34e63f1d9ea5cf8c567435cf1cb5ad45ba5ac190843393a3604051908152f35b60405162461bcd60e51b8152602060048201526011602482015270125b9d985b1a59081c9958da5c1a595b9d607a1b6044820152606490fd5b60405162461bcd60e51b815260206004820152600c60248201526b08ccaca40e8dede40d0d2ced60a31b6044820152606490fd5b3461016a57602036600319011261016a5780600061010092604051610dea81611108565b8281528260208201528260408201528260608201528260808201528260a08201528260c082015201526004356000526002602052604060002090604051610e3081611108565b60018060a01b0392838154169384835280600183015416906020840191825280600284015416906040850191825260038401549060608601918252600485015492608087019384528160ff6005880154169560a08901961515875289600760068a01549960c08c019a8b52015499019889526040519a8b52511660208a01525116604088015251606087015251608086015251151560a08501525160c08401525190820152f35b3461016a57606036600319011261016a576044356001600160a01b0381169081900361016a57610f05611294565b6004356000526004602052610f2060243560406000206110b2565b509060058201805460ff8116610fef57600247940154809410610faa5760ff191660011790556000918291829182915af1610f59611264565b5015610f655760018055005b60405162461bcd60e51b815260206004820152601c60248201527f5472616e73616374696f6e20657865637574696f6e206661696c6564000000006044820152606490fd5b60405162461bcd60e51b815260206004820152601d60248201527f496e73756666696369656e7420636f6e74726163742062616c616e63650000006044820152606490fd5b60405162461bcd60e51b815260206004820152601c60248201527f5472616e73616374696f6e20616c7265616479206578656375746564000000006044820152606490fd5b3461016a57600036600319011261016a576005546001600160a01b03168152602090f35b602435906001600160a01b038216820361016a57565b600435906001600160a01b038216820361016a57565b805482101561109c5760005260206000200190600090565b634e487b7160e01b600052603260045260246000fd5b805482101561109c576000526006602060002091020190600090565b90600182811c921680156110fe575b60208310146110e857565b634e487b7160e01b600052602260045260246000fd5b91607f16916110dd565b610100810190811067ffffffffffffffff8211176108fe57604052565b60c0810190811067ffffffffffffffff8211176108fe57604052565b90601f8019910116810190811067ffffffffffffffff8211176108fe57604052565b90604051918260008254611176816110ce565b908184526020946001916001811690816000146111e657506001146111a7575b5050506111a592500383611141565b565b600090815285812095935091905b8183106111ce5750506111a59350820101388080611196565b855488840185015294850194879450918301916111b5565b925050506111a594925060ff191682840152151560051b820101388080611196565b919082519283825260005b848110611234575050826000602080949584010152601f8019910116010190565b602081830181015184830182015201611213565b67ffffffffffffffff81116108fe57601f01601f191660200190565b3d1561128f573d9061127582611248565b916112836040519384611141565b82523d6000602084013e565b606090565b6002600154146112a5576002600155565b604051633ee5aeb560e01b8152600490fd5b6000546001600160a01b031633036112cb57565b60405163118cdaa760e01b8152336004820152602490fdfea264697066735822122093c2cf2db8adb34e366262e4682811e38e34854cd32a53b1a699f1311fe7eee364736f6c63430008180033",
  "linkReferences": {},
  "deployedLinkReferences": {}
}