{
  "_format": "hh-sol-artifact-1",
  "contractName": "BaseCommunityDAOWithStaking",
  "sourceName": "contracts/BaseCommunityDAOWithStaking.sol",
  "abi": [
    {
      "inputs": [
        {
          "internalType": "address",
          "name": "_governanceToken",
          "type": "address"
        }
      ],
      "stateMutability": "nonpayable",
      "type": "constructor"
    },
    {
      "inputs": [
        {
          "internalType": "address",
          "name": "owner",
          "type": "address"
        }
      ],
      "name": "OwnableInvalidOwner",
      "type": "error"
    },
    {
      "inputs": [
        {
          "internalType": "address",
          "name": "account",
          "type": "address"
        }
      ],
      "name": "OwnableUnauthorizedAccount",
      "type": "error"
    },
    {
      "inputs": [],
      "name": "ReentrancyGuardReentrantCall",
      "type": "error"
    },
    {
      "anonymous": false,
      "inputs": [
        {
          "indexed": true,
          "internalType": "address",
          "name": "member",
          "type": "address"
        }
      ],
      "name": "CommunityMemberAdded",
      "type": "event"
    },
    {
      "anonymous": false,
      "inputs": [
        {
          "indexed": true,
          "internalType": "address",
          "name": "member",
          "type": "address"
        }
      ],
      "name": "CommunityMemberRemoved",
      "type": "event"
    },
    {
      "anonymous": false,
      "inputs": [
        {
          "indexed": true,
          "internalType": "address",
          "name": "previousOwner",
          "type": "address"
        },
        {
          "indexed": true,
          "internalType": "address",
          "name": "newOwner",
          "type": "address"
        }
      ],
      "name": "OwnershipTransferred",
      "type": "event"
    },
    {
      "anonymous": false,
      "inputs": [
        {
          "indexed": true,
          "internalType": "uint256",
          "name": "proposalId",
          "type": "uint256"
        }
      ],
      "name": "ProposalCanceled",
      "type": "event"
    },
    {
      "anonymous": false,
      "inputs": [
        {
          "indexed": true,
          "internalType": "uint256",
          "name": "proposalId",
          "type": "uint256"
        },
        {
          "indexed": true,
          "internalType": "address",
          "name": "proposer",
          "type": "address"
        },
        {
          "indexed": false,
          "internalType": "string",
          "name": "category",
          "type": "string"
        }
      ],
      "name": "ProposalCreated",
      "type": "event"
    },
    {
      "anonymous": false,
      "inputs": [
        {
          "indexed": true,
          "internalType": "uint256",
          "name": "proposalId",
          "type": "uint256"
        }
      ],
      "name": "ProposalExecuted",
      "type": "event"
    },
    {
      "anonymous": false,
      "inputs": [
        {
          "indexed": true,
          "internalType": "address",
          "name": "member",
          "type": "address"
        },
        {
          "indexed": false,
          "internalType": "uint256",
          "name": "amount",
          "type": "uint256"
        }
      ],
      "name": "StakeDeposited",
      "type": "event"
    },
    {
      "anonymous": false,
      "inputs": [
        {
          "indexed": true,
          "internalType": "address",
          "name": "member",
          "type": "address"
        },
        {
          "indexed": false,
          "internalType": "uint256",
          "name": "amount",
          "type": "uint256"
        }
      ],
      "name": "StakeWithdrawn",
      "type": "event"
    },
    {
      "anonymous": false,
      "inputs": [
        {
          "indexed": true,
          "internalType": "uint256",
          "name": "proposalId",
          "type": "uint256"
        },
        {
          "indexed": true,
          "internalType": "address",
          "name": "voter",
          "type": "address"
        },
        {
          "indexed": false,
          "internalType": "bool",
          "name": "support",
          "type": "bool"
        }
      ],
      "name": "VoteCast",
      "type": "event"
    },
    {
      "inputs": [],
      "name": "BASE_QUORUM_PERCENTAGE",
      "outputs": [
        {
          "internalType": "uint256",
          "name": "",
          "type": "uint256"
        }
      ],
      "stateMutability": "view",
      "type": "function"
    },
    {
      "inputs": [],
      "name": "BASE_VOTING_PERIOD",
      "outputs": [
        {
          "internalType": "uint256",
          "name": "",
          "type": "uint256"
        }
      ],
      "stateMutability": "view",
      "type": "function"
    },
    {
      "inputs": [],
      "name": "MINIMUM_STAKE",
      "outputs": [
        {
          "internalType": "uint256",
          "name": "",
          "type": "uint256"
        }
      ],
      "stateMutability": "view",
      "type": "function"
    },
    {
      "inputs": [
        {
          "internalType": "address",
          "name": "member",
          "type": "address"
        }
      ],
      "name": "addCommunityMember",
      "outputs": [],
      "stateMutability": "nonpayable",
      "type": "function"
    },
    {
      "inputs": [],
      "name": "addStake",
      "outputs": [],
      "stateMutability": "payable",
      "type": "function"
    },
    {
      "inputs": [
        {
          "internalType": "uint256",
          "name": "proposalId",
          "type": "uint256"
        }
      ],
      "name": "cancelProposal",
      "outputs": [],
      "stateMutability": "nonpayable",
      "type": "function"
    },
    {
      "inputs": [
        {
          "internalType": "uint256",
          "name": "proposalId",
          "type": "uint256"
        },
        {
          "internalType": "bool",
          "name": "support",
          "type": "bool"
        }
      ],
      "name": "castVote",
      "outputs": [],
      "stateMutability": "nonpayable",
      "type": "function"
    },
    {
      "inputs": [
        {
          "internalType": "uint256",
          "name": "",
          "type": "uint256"
        }
      ],
      "name": "categories",
      "outputs": [
        {
          "internalType": "string",
          "name": "",
          "type": "string"
        }
      ],
      "stateMutability": "view",
      "type": "function"
    },
    {
      "inputs": [
        {
          "internalType": "string",
          "name": "",
          "type": "string"
        },
        {
          "internalType": "uint256",
          "name": "",
          "type": "uint256"
        }
      ],
      "name": "categoryProposals",
      "outputs": [
        {
          "internalType": "uint256",
          "name": "",
          "type": "uint256"
        }
      ],
      "stateMutability": "view",
      "type": "function"
    },
    {
      "inputs": [
        {
          "internalType": "address",
          "name": "",
          "type": "address"
        }
      ],
      "name": "communityMembers",
      "outputs": [
        {
          "internalType": "bool",
          "name": "",
          "type": "bool"
        }
      ],
      "stateMutability": "view",
      "type": "function"
    },
    {
      "inputs": [
        {
          "internalType": "string",
          "name": "description",
          "type": "string"
        },
        {
          "internalType": "string",
          "name": "category",
          "type": "string"
        }
      ],
      "name": "createProposal",
      "outputs": [
        {
          "internalType": "uint256",
          "name": "",
          "type": "uint256"
        }
      ],
      "stateMutability": "nonpayable",
      "type": "function"
    },
    {
      "inputs": [],
      "name": "emergencyWithdraw",
      "outputs": [],
      "stateMutability": "nonpayable",
      "type": "function"
    },
    {
      "inputs": [
        {
          "internalType": "uint256",
          "name": "proposalId",
          "type": "uint256"
        }
      ],
      "name": "executeProposal",
      "outputs": [],
      "stateMutability": "nonpayable",
      "type": "function"
    },
    {
      "inputs": [],
      "name": "getCategories",
      "outputs": [
        {
          "internalType": "string[]",
          "name": "",
          "type": "string[]"
        }
      ],
      "stateMutability": "view",
      "type": "function"
    },
    {
      "inputs": [
        {
          "internalType": "address",
          "name": "member",
          "type": "address"
        }
      ],
      "name": "getMemberStake",
      "outputs": [
        {
          "internalType": "uint256",
          "name": "",
          "type": "uint256"
        }
      ],
      "stateMutability": "view",
      "type": "function"
    },
    {
      "inputs": [
        {
          "internalType": "uint256",
          "name": "proposalId",
          "type": "uint256"
        }
      ],
      "name": "getProposal",
      "outputs": [
        {
          "internalType": "uint256",
          "name": "id",
          "type": "uint256"
        },
        {
          "internalType": "address",
          "name": "proposer",
          "type": "address"
        },
        {
          "internalType": "string",
          "name": "description",
          "type": "string"
        },
        {
          "internalType": "string",
          "name": "category",
          "type": "string"
        },
        {
          "internalType": "uint256",
          "name": "forVotes",
          "type": "uint256"
        },
        {
          "internalType": "uint256",
          "name": "againstVotes",
          "type": "uint256"
        },
        {
          "internalType": "uint256",
          "name": "startTime",
          "type": "uint256"
        },
        {
          "internalType": "uint256",
          "name": "endTime",
          "type": "uint256"
        },
        {
          "internalType": "bool",
          "name": "executed",
          "type": "bool"
        },
        {
          "internalType": "bool",
          "name": "canceled",
          "type": "bool"
        }
      ],
      "stateMutability": "view",
      "type": "function"
    },
    {
      "inputs": [
        {
          "internalType": "string",
          "name": "category",
          "type": "string"
        }
      ],
      "name": "getProposalsByCategory",
      "outputs": [
        {
          "internalType": "uint256[]",
          "name": "",
          "type": "uint256[]"
        }
      ],
      "stateMutability": "view",
      "type": "function"
    },
    {
      "inputs": [],
      "name": "getTreasuryBalance",
      "outputs": [
        {
          "internalType": "uint256",
          "name": "",
          "type": "uint256"
        }
      ],
      "stateMutability": "view",
      "type": "function"
    },
    {
      "inputs": [
        {
          "internalType": "address",
          "name": "account",
          "type": "address"
        }
      ],
      "name": "getVotes",
      "outputs": [
        {
          "internalType": "uint256",
          "name": "",
          "type": "uint256"
        }
      ],
      "stateMutability": "view",
      "type": "function"
    },
    {
      "inputs": [],
      "name": "governanceToken",
      "outputs": [
        {
          "internalType": "contract IERC20",
          "name": "",
          "type": "address"
        }
      ],
      "stateMutability": "view",
      "type": "function"
    },
    {
      "inputs": [
        {
          "internalType": "address",
          "name": "account",
          "type": "address"
        }
      ],
      "name": "isCommunityMember",
      "outputs": [
        {
          "internalType": "bool",
          "name": "",
          "type": "bool"
        }
      ],
      "stateMutability": "view",
      "type": "function"
    },
    {
      "inputs": [],
      "name": "joinDAOWithStake",
      "outputs": [],
      "stateMutability": "payable",
      "type": "function"
    },
    {
      "inputs": [
        {
          "internalType": "address",
          "name": "",
          "type": "address"
        }
      ],
      "name": "memberStakes",
      "outputs": [
        {
          "internalType": "uint256",
          "name": "",
          "type": "uint256"
        }
      ],
      "stateMutability": "view",
      "type": "function"
    },
    {
      "inputs": [],
      "name": "owner",
      "outputs": [
        {
          "internalType": "address",
          "name": "",
          "type": "address"
        }
      ],
      "stateMutability": "view",
      "type": "function"
    },
    {
      "inputs": [],
      "name": "proposalCount",
      "outputs": [
        {
          "internalType": "uint256",
          "name": "",
          "type": "uint256"
        }
      ],
      "stateMutability": "view",
      "type": "function"
    },
    {
      "inputs": [
        {
          "internalType": "uint256",
          "name": "",
          "type": "uint256"
        }
      ],
      "name": "proposals",
      "outputs": [
        {
          "internalType": "uint256",
          "name": "id",
          "type": "uint256"
        },
        {
          "internalType": "address",
          "name": "proposer",
          "type": "address"
        },
        {
          "internalType": "string",
          "name": "description",
          "type": "string"
        },
        {
          "internalType": "string",
          "name": "category",
          "type": "string"
        },
        {
          "internalType": "uint256",
          "name": "forVotes",
          "type": "uint256"
        },
        {
          "internalType": "uint256",
          "name": "againstVotes",
          "type": "uint256"
        },
        {
          "internalType": "uint256",
          "name": "startTime",
          "type": "uint256"
        },
        {
          "internalType": "uint256",
          "name": "endTime",
          "type": "uint256"
        },
        {
          "internalType": "bool",
          "name": "executed",
          "type": "bool"
        },
        {
          "internalType": "bool",
          "name": "canceled",
          "type": "bool"
        }
      ],
      "stateMutability": "view",
      "type": "function"
    },
    {
      "inputs": [
        {
          "internalType": "address",
          "name": "member",
          "type": "address"
        }
      ],
      "name": "removeCommunityMember",
      "outputs": [],
      "stateMutability": "nonpayable",
      "type": "function"
    },
    {
      "inputs": [],
      "name": "renounceOwnership",
      "outputs": [],
      "stateMutability": "nonpayable",
      "type": "function"
    },
    {
      "inputs": [],
      "name": "totalStaked",
      "outputs": [
        {
          "internalType": "uint256",
          "name": "",
          "type": "uint256"
        }
      ],
      "stateMutability": "view",
      "type": "function"
    },
    {
      "inputs": [
        {
          "internalType": "address",
          "name": "newOwner",
          "type": "address"
        }
      ],
      "name": "transferOwnership",
      "outputs": [],
      "stateMutability": "nonpayable",
      "type": "function"
    },
    {
      "inputs": [
        {
          "internalType": "uint256",
          "name": "newMinimumStake",
          "type": "uint256"
        }
      ],
      "name": "updateMinimumStake",
      "outputs": [],
      "stateMutability": "nonpayable",
      "type": "function"
    },
    {
      "inputs": [],
      "name": "withdrawStake",
      "outputs": [],
      "stateMutability": "nonpayable",
      "type": "function"
    }
  ],
  "bytecode": "0x6080346200040757601f19620020f738819003601f81810184168501946001600160401b0394939092838710868811176200040c57808492604098895283396020938491810103126200040757516001600160a01b03808216959094909186900362000407573315620003ef57600093845460018060a01b031996338883161787553391167f8be0079c531659141344cd1fd0a4f28419497f9722a3daafe3b4186f6b6457e08780a360019384805588519360e0850185811082821117620003db578a52620000cd62000422565b601581527f43756c747572616c20507265736572766174696f6e00000000000000000000008482015285526200010262000422565b600981526822b23ab1b0ba34b7b760b91b84820152838601526200012562000422565b600a8152694865616c74686361726560b01b848201528a8601526200014962000422565b601481527f45636f6e6f6d696320446576656c6f706d656e740000000000000000000000008482015260608601526200018162000422565b600a815269546563686e6f6c6f677960b01b848201526080860152620001a662000422565b600d81526c115b9d9a5c9bdb9b595b9d185b609a1b8482015260a0860152620001ce62000422565b600e81526d536f6369616c204a75737469636560901b8482015260c08601526006549460079560076006558060071062000360575b509391600688528388209288955b87871062000232578c8c8c600954161760095551611c5e9081620004998239f35b80519081518581116200034c578a9188918d620002508a5462000442565b8489821162000311575b5050508d8390888311600114620002a2579085968362000296575b5050600019600383901b1c191690841b1788555b0195019601959362000211565b01519050388062000275565b908783168b8352858320925b818110620002ee5750908697848895949310620002d4575b505050811b01885562000289565b015160001960f88460031b161c19169055388080620002c6565b9497939686929691938786015181550195019301928b94918f96939794620002ae565b828c6200033994522060058a808601821c83019388871062000342575b01901c01906200047f565b8d38846200025a565b935082936200032e565b634e487b7160e01b8c52604160045260248cfd5b60068952876007868b2092830192015b8281106200038057505062000203565b8a6200038d825462000442565b806200039f575b505001889062000370565b878111600114620003b6575081555b8a3862000394565b828252620003d1888a8420920160051c82018583016200047f565b81835555620003ae565b634e487b7160e01b88526041600452602488fd5b8651631e4fbdf760e01b815260006004820152602490fd5b600080fd5b634e487b7160e01b600052604160045260246000fd5b60408051919082016001600160401b038111838210176200040c57604052565b90600182811c9216801562000474575b60208310146200045e57565b634e487b7160e01b600052602260045260246000fd5b91607f169162000452565b8181106200048b575050565b600081556001016200047f56fe6080604052600436101561001257600080fd5b60003560e01c8063013cf08b1461172d57806308dbbb031461170b57806309a81d4b146116095780630d61b519146113f257806315373e3d1461118757806324cdf45814610819578063286b87c0146111695780632dbf645a146110715780632f676b65146107ba57806343390e3a14610ff75780634c41e88014610fde5780634db0412c14610eeb5780635a627dbc14610e325780635c62735814610da957806365e481e2146108ce578063715018a614610875578063817b1cd21461085757806385b36d7b14610819578063873aed02146107fd5780638c95aef9146107ba5780638da5cb5b14610791578063960af7a3146106b95780639ab24eb0146106045780639b5655dc146105e8578063bed9d861146104af578063c6cdbe5e1461044e578063c7f758a8146103cb578063da35c664146103ad578063db2e21bc14610310578063e0a8f6f51461023a578063f2fde38b146101aa5763f96dae0a1461017c57600080fd5b346101a55760003660031901126101a5576009546040516001600160a01b039091168152602090f35b600080fd5b346101a55760203660031901126101a5576004356001600160a01b03818116918290036101a5576101d9611bfc565b811561022157600054826bffffffffffffffffffffffff60a01b821617600055167f8be0079c531659141344cd1fd0a4f28419497f9722a3daafe3b4186f6b6457e0600080a3005b604051631e4fbdf760e01b815260006004820152602490fd5b346101a55760203660031901126101a557600435806000526004602052604060002061026881541515611a73565b6001810154336001600160a01b0391821614908115610302575b50156102cc57600801610100815461029d60ff821615611abf565b61ff0019161790557f789cf55be980739dad1d0699b93b58e806b51c9d96619bfa8fe0a28abaa7b30c600080a2005b60405162461bcd60e51b815260206004820152600e60248201526d139bdd08185d5d1a1bdc9a5e995960921b6044820152606490fd5b600054163314905083610282565b346101a55760003660031901126101a557610329611bfc565b60085461035657610354600080808060018060a01b0381541647905af161034e611b8b565b50611bbb565b005b60405162461bcd60e51b815260206004820152602960248201527f43616e6e6f74207769746864726177207768696c65206d656d626572732068616044820152687665207374616b657360b81b6064820152608490fd5b346101a55760003660031901126101a5576020600754604051908152f35b346101a55760203660031901126101a55760043560005260046020526040600020805461044a60018060a01b036001840154169160048401549060058501546006860154600787015491600888015494610433600361042c60028c0161180a565b9a0161180a565b604051998a9960ff808a60081c169916978b6118f7565b0390f35b346101a55760203660031901126101a5576004356006548110156101a557610475906119c2565b6104995761048561044a9161180a565b6040519182916020835260208301906118d2565b634e487b7160e01b600052600060045260246000fd5b346101a55760003660031901126101a5576002600154146105d6576002600155336000526020600281526104ea60ff60406000205416611b43565b33600052600381526040600020541561059b5733600052600381527f8108595eb6bad3acefa9da467d90cc2217686d5c5ac85460f8b7849c840645fc60406000209160008354935560028152604060002060ff19815416905561054f83600854611b7e565b600855610566600080808087335af161034e611b8b565b6040519283523392a2337fa22f826cfa669b4680f0ca673f9e9021392cfe223ef797faf4005f9c8dc4d14b600080a260018055005b6064906040519062461bcd60e51b8252600482015260146024820152734e6f207374616b6520746f20776974686472617760601b6044820152fd5b604051633ee5aeb560e01b8152600490fd5b346101a55760003660031901126101a557602047604051908152f35b346101a5576020806003193601126101a5576004356001600160a01b03818116918290036101a5578160005260038352826040600020549160095416926024604051809581936370a0823160e01b835260048301525afa9081156106ad5760009161067c575b6106749250611a66565b604051908152f35b90508282813d83116106a6575b61069381836117e8565b810103126101a55761067491519061066a565b503d610689565b6040513d6000823e3d90fd5b346101a5576020806003193601126101a55760043567ffffffffffffffff81116101a557816106ef61070292369060040161197b565b81604051938285809451938492016118af565b8101600581520301902060405190818382549182815201908192600052846000209060005b8682821061077d57868661073d828803836117e8565b604051928392818401908285525180915260408401929160005b82811061076657505050500390f35b835185528695509381019392810192600101610757565b835485529093019260019283019201610727565b346101a55760003660031901126101a5576000546040516001600160a01b039091168152602090f35b346101a55760203660031901126101a5576004356001600160a01b038116908190036101a5576000526002602052602060ff604060002054166040519015158152f35b346101a55760003660031901126101a5576020604051600a8152f35b346101a55760203660031901126101a5576004356001600160a01b038116908190036101a55760005260036020526020604060002054604051908152f35b346101a55760003660031901126101a5576020600854604051908152f35b346101a55760003660031901126101a55761088e611bfc565b600080546001600160a01b0319811682556001600160a01b03167f8be0079c531659141344cd1fd0a4f28419497f9722a3daafe3b4186f6b6457e08280a3005b346101a55760403660031901126101a55760043567ffffffffffffffff81116101a5576108ff90369060040161197b565b60243567ffffffffffffffff81116101a55761091f90369060040161197b565b33600052600260205261093960ff60406000205416611afe565b600080600654905b818110610cd9575b505015610ca1576007546000198114610b15576001019081600755816000526004602052604060002091825560018201336bffffffffffffffffffffffff60a01b825416179055825167ffffffffffffffff8111610aff576109ae60028401546117ae565b601f8111610c5a575b506020601f8211600114610bee5781929394600092610be3575b50508160011b916000199060031b1c19161760028301555b8051916003810167ffffffffffffffff8411610aff57610a0981546117ae565b601f8111610b9b575b50602093601f8111600114610b36578091929394600091610b2b575b508160011b916000199060031b1c19161790555b42600682015562093a80420190814211610b1557600701556040516020818351610a6f81838588016118af565b810160058152030190209060075482549268010000000000000000841015610aff5783610aa3916001602096018155611a0f565b819291549060031b91821b91600019901b191617905560075490817f7585f467599d0f008985f231af99293be388626ac16ca59505c2f8f88969cd6360405185815280610af43395888301906118d2565b0390a3604051908152f35b634e487b7160e01b600052604160045260246000fd5b634e487b7160e01b600052601160045260246000fd5b905084015185610a2e565b601f198116948260005260206000209060005b878110610b8357508260019495969710610b6a575b5050811b019055610a42565b86015160001960f88460031b161c191690558580610b5e565b9091602060018192858a015181550193019101610b49565b816000526020600020601f860160051c81019160208710610bd9575b601f0160051c01905b818110610bcd5750610a12565b60008155600101610bc0565b9091508190610bb7565b0151905084806109d1565b601f198216906002850160005260206000209160005b818110610c4257509583600195969710610c29575b505050811b0160028301556109e9565b015160001960f88460031b161c19169055848080610c19565b9192602060018192868b015181550194019201610c04565b600284016000526020600020601f830160051c810160208410610c9a575b601f830160051c82018110610c8e5750506109b7565b60008155600101610c78565b5080610c78565b60405162461bcd60e51b815260206004820152601060248201526f496e76616c69642063617465676f727960801b6044820152606490fd5b610ce2816119c2565b5060405190816000825492610cf6846117ae565b8084529360018116908115610d875750600114610d42575b50610d1b925003826117e8565b602081519101208451602086012014610d3657600101610941565b50505060018380610949565b915050600052816020600020916000925b818410610d6b5750506020610d1b9282010189610d0e565b6020919250806001915483868801015201920191908391610d53565b905060209250610d1b94915060ff191682840152151560051b82010189610d0e565b346101a55760203660031901126101a5576004356001600160a01b038116908190036101a557610dd7611bfc565b806000526002602052610df260ff6040600020541615611a27565b8060005260026020526040600020600160ff198254161790557fa41a5ddbf02b01025c5ac32c2038f209eabe5ddb2a83444f2acbfe9f91dc8827600080a2005b60003660031901126101a557336000526002602052610e5860ff60406000205416611b43565b3415610eb6573360005260036020526040600020610e77348254611a66565b9055610e8534600854611a66565b6008556040513481527f0a7bb2e28cc4698aac06db79cf9163bfcc20719286cf59fa7d492ceda1b8edc260203392a2005b60405162461bcd60e51b815260206004820152600d60248201526c09aeae6e840e6cadcc8408aa89609b1b6044820152606490fd5b346101a55760003660031901126101a55760065467ffffffffffffffff8111610aff57602060405191610f23828260051b01846117e8565b808352818301908160066000527ff652222313e28459528d920b65115c16c04f3efc82aaedc97be59f3f377c0d3f6000915b838310610fbc5750505050604051918083019381845251809452604083019360408160051b85010192916000955b828710610f905785850386f35b909192938280610fac600193603f198a820301865288516118d2565b9601920196019592919092610f83565b6001868192610fcd859a999a61180a565b815201920192019190959495610f55565b346101a55760203660031901126101a557610354611bfc565b346101a55760403660031901126101a55760043567ffffffffffffffff81116101a55761102890369060040161197b565b61104460206024359281604051938285809451938492016118af565b8101600581520301902080548210156101a55760209161106391611a0f565b90546040519160031b1c8152f35b346101a55760203660031901126101a5576004356001600160a01b038116908190036101a55761109f611bfc565b8060005260026020526110b960ff60406000205416611b43565b8060005260036020528060406000208054908161110f575b50506000526002602052604060002060ff1981541690557fa22f826cfa669b4680f0ca673f9e9021392cfe223ef797faf4005f9c8dc4d14b600080a2005b7f8108595eb6bad3acefa9da467d90cc2217686d5c5ac85460f8b7849c840645fc9160006020925561114381600854611b7e565b60085561115a600080808085895af161034e611b8b565b604051908152a28082806110d1565b346101a55760003660031901126101a557602060405162093a808152f35b346101a55760403660031901126101a5576024803580151590600435908281036101a557816000526020906004825260406000206111c781541515611a73565b600681015442106113b9576007810154421161138657600981013360005280845260ff6040600020541661135257336000526002845261120e60ff60406000205416611afe565b336000528352604060002060ff1990600182825416179055600a8201845260406000209081541660ff871617905560038352856040600020548460018060a01b0360095416604051938480926370a0823160e01b82523360048301525afa9081156106ad57600091611321575b6112859250611a66565b9182156112eb577fe71fcdac32df1877c1700e7bda2a03157e20993363a28fc35ac495cefc76e4d4949596506000146112d55760046112c79101918254611a66565b90555b6040519384523393a3005b60056112e49101918254611a66565b90556112ca565b60405162461bcd60e51b815260048101859052600f818901526e2737903b37ba34b733903837bbb2b960891b6044820152606490fd5b90508482813d831161134b575b61133881836117e8565b810103126101a55761128591519061127b565b503d61132e565b60405162461bcd60e51b815260048101859052600d818901526c105b1c9958591e481d9bdd1959609a1b6044820152606490fd5b60405162461bcd60e51b815260048101849052600c818801526b159bdd1a5b99c8195b99195960a21b6044820152606490fd5b60405162461bcd60e51b81526004810184905260128188015271159bdd1a5b99c81b9bdd081cdd185c9d195960721b6044820152606490fd5b346101a5576020806003193601126101a557600435908160005260048152604060002061142181541515611a73565b60078101544211156115d157600881019182549161144260ff841615611abf565b60ff8360081c166115985760056004820154910154906114628282611a66565b6008546009546040516318160ddd60e01b815291908690839060049082906001600160a01b03165afa9081156106ad57600091611567575b6114a49250611a66565b600a810290808204600a1490151715610b1557606490041161152d5711156114f7575060ff191660011790557f712ae1383f79ac853f8d882153778e0260ef8f03b504e2866e0593e04d2b291f600080a2005b6064906040519062461bcd60e51b82526004820152600f60248201526e141c9bdc1bdcd85b0819985a5b1959608a1b6044820152fd5b60405162461bcd60e51b8152600481018490526012602482015271145d5bdc9d5b481b9bdd081c995858da195960721b6044820152606490fd5b90508582813d8311611591575b61157e81836117e8565b810103126101a5576114a491519061149a565b503d611574565b60405162461bcd60e51b8152600481018390526011602482015270141c9bdc1bdcd85b0818d85b98d95b1959607a1b6044820152606490fd5b60405162461bcd60e51b815260048101839052601060248201526f159bdd1a5b99c81b9bdd08195b99195960821b6044820152606490fd5b60003660031901126101a5576611c37937e0800034106116c65733600052600260205261163e60ff6040600020541615611a27565b3360005260036020523460406000205560026020526040600020600160ff1982541617905561166f34600854611a66565b6008556040513481527f0a7bb2e28cc4698aac06db79cf9163bfcc20719286cf59fa7d492ceda1b8edc260203392a2337fa41a5ddbf02b01025c5ac32c2038f209eabe5ddb2a83444f2acbfe9f91dc8827600080a2005b60405162461bcd60e51b815260206004820152601960248201527f496e73756666696369656e74207374616b6520616d6f756e74000000000000006044820152606490fd5b346101a55760003660031901126101a55760206040516611c37937e080008152f35b346101a55760203660031901126101a5576004356000526004602052604060002080549061044a60018060a01b036001830154169161176e6002820161180a565b9361177b6003830161180a565b91600481015460058201546006830154916008600785015494015495604051998a9960ff808a60081c169916978b6118f7565b90600182811c921680156117de575b60208310146117c857565b634e487b7160e01b600052602260045260246000fd5b91607f16916117bd565b90601f8019910116810190811067ffffffffffffffff821117610aff57604052565b9060405191826000825461181d816117ae565b9081845260209460019160018116908160001461188d575060011461184e575b50505061184c925003836117e8565b565b600090815285812095935091905b81831061187557505061184c935082010138808061183d565b8554888401850152948501948794509183019161185c565b9250505061184c94925060ff191682840152151560051b82010138808061183d565b60005b8381106118c25750506000910152565b81810151838201526020016118b2565b906020916118eb815180928185528580860191016118af565b601f01601f1916010190565b98959261192d9061012099969c9b98959261193b94610140918d5260018060a01b031660208d01528060408d01528b01906118d2565b9089820360608b01526118d2565b98608088015260a087015260c086015260e085015215156101008401521515910152565b67ffffffffffffffff8111610aff57601f01601f191660200190565b81601f820112156101a5578035906119928261195f565b926119a060405194856117e8565b828452602083830101116101a557816000926020809301838601378301015290565b6006548110156119f95760066000527ff652222313e28459528d920b65115c16c04f3efc82aaedc97be59f3f377c0d3f0190600090565b634e487b7160e01b600052603260045260246000fd5b80548210156119f95760005260206000200190600090565b15611a2e57565b60405162461bcd60e51b815260206004820152601060248201526f20b63932b0b23c90309036b2b6b132b960811b6044820152606490fd5b91908201809211610b1557565b15611a7a57565b60405162461bcd60e51b815260206004820152601760248201527f50726f706f73616c20646f6573206e6f742065786973740000000000000000006044820152606490fd5b15611ac657565b60405162461bcd60e51b815260206004820152601060248201526f105b1c9958591e48195e1958dd5d195960821b6044820152606490fd5b15611b0557565b60405162461bcd60e51b81526020600482015260166024820152752737ba10309031b7b6b6bab734ba3c9036b2b6b132b960511b6044820152606490fd5b15611b4a57565b60405162461bcd60e51b815260206004820152600c60248201526b2737ba10309036b2b6b132b960a11b6044820152606490fd5b91908203918211610b1557565b3d15611bb6573d90611b9c8261195f565b91611baa60405193846117e8565b82523d6000602084013e565b606090565b15611bc257565b60405162461bcd60e51b815260206004820152601260248201527108cc2d2d8cac840e8de40e6cadcc8408aa8960731b6044820152606490fd5b6000546001600160a01b03163303611c1057565b60405163118cdaa760e01b8152336004820152602490fdfea2646970667358221220173fe43dc75cda1d6c7c674ec4dbf56754cc7be5646fe276d1fd210c68cf62a164736f6c63430008180033",
  "linkReferences": {},
  "deployedLinkReferences": {}
}