{
  "_format": "hh-sol-artifact-1",
  "contractName": "TreasuryRewards",
  "sourceName": "contracts/TreasuryRewards.sol",
  "abi": [
    {
      "inputs": [],
      "stateMutability": "nonpayable",
      "type": "constructor"
    },
    {
      "inputs": [],
      "name": "owner",
      "outputs": [
        {
          "internalType": "address",
          "name": "",
          "type": "address"
        }
      ],
      "stateMutability": "view",
      "type": "function"
    }
  ],
  "bytecode": "0x60808060405234602657600080546001600160a01b031916331790556082908161002c8239f35b600080fdfe6080806040526004361015601257600080fd5b600090813560e01c638da5cb5b14602857600080fd5b346048578160031936011260485790546001600160a01b03168152602090f35b5080fdfea264697066735822122085fda1df045d9707986e9479961e593bc16346d076ef8f8962b15573301a1f7e64736f6c63430008180033",
  "linkReferences": {},
  "deployedLinkReferences": {}
}