{
  "_format": "hh-sol-artifact-1",
  "contractName": "BaseSepoliaNyigbaNames",
  "sourceName": "contracts/BaseSepoliaNyigbaNames.sol",
  "abi": [
    {
      "inputs": [],
      "stateMutability": "nonpayable",
      "type": "constructor"
    },
    {
      "inputs": [
        {
          "internalType": "address",
          "name": "owner",
          "type": "address"
        }
      ],
      "name": "OwnableInvalidOwner",
      "type": "error"
    },
    {
      "inputs": [
        {
          "internalType": "address",
          "name": "account",
          "type": "address"
        }
      ],
      "name": "OwnableUnauthorizedAccount",
      "type": "error"
    },
    {
      "inputs": [],
      "name": "ReentrancyGuardReentrantCall",
      "type": "error"
    },
    {
      "anonymous": false,
      "inputs": [
        {
          "indexed": true,
          "internalType": "bytes32",
          "name": "fromNode",
          "type": "bytes32"
        },
        {
          "indexed": true,
          "internalType": "bytes32",
          "name": "toNode",
          "type": "bytes32"
        },
        {
          "indexed": false,
          "internalType": "string",
          "name": "message",
          "type": "string"
        }
      ],
      "name": "AgentCommunication",
      "type": "event"
    },
    {
      "anonymous": false,
      "inputs": [
        {
          "indexed": true,
          "internalType": "bytes32",
          "name": "node",
          "type": "bytes32"
        },
        {
          "indexed": false,
          "internalType": "bytes32",
          "name": "agentId",
          "type": "bytes32"
        },
        {
          "indexed": false,
          "internalType": "address",
          "name": "agentAddress",
          "type": "address"
        }
      ],
      "name": "AgentRegistered",
      "type": "event"
    },
    {
      "anonymous": false,
      "inputs": [
        {
          "indexed": true,
          "internalType": "bytes32",
          "name": "node",
          "type": "bytes32"
        },
        {
          "indexed": false,
          "internalType": "address[]",
          "name": "owners",
          "type": "address[]"
        },
        {
          "indexed": false,
          "internalType": "uint256",
          "name": "required",
          "type": "uint256"
        }
      ],
      "name": "MultiSigSetup",
      "type": "event"
    },
    {
      "anonymous": false,
      "inputs": [
        {
          "indexed": true,
          "internalType": "address",
          "name": "owner",
          "type": "address"
        },
        {
          "indexed": false,
          "internalType": "string",
          "name": "label",
          "type": "string"
        },
        {
          "indexed": false,
          "internalType": "bytes32",
          "name": "node",
          "type": "bytes32"
        },
        {
          "indexed": false,
          "internalType": "uint256",
          "name": "expiryDate",
          "type": "uint256"
        }
      ],
      "name": "NameClaimed",
      "type": "event"
    },
    {
      "anonymous": false,
      "inputs": [
        {
          "indexed": true,
          "internalType": "bytes32",
          "name": "node",
          "type": "bytes32"
        },
        {
          "indexed": false,
          "internalType": "string",
          "name": "label",
          "type": "string"
        }
      ],
      "name": "NameExpired",
      "type": "event"
    },
    {
      "anonymous": false,
      "inputs": [
        {
          "indexed": true,
          "internalType": "address",
          "name": "owner",
          "type": "address"
        },
        {
          "indexed": false,
          "internalType": "string",
          "name": "label",
          "type": "string"
        },
        {
          "indexed": false,
          "internalType": "bytes32",
          "name": "node",
          "type": "bytes32"
        },
        {
          "indexed": false,
          "internalType": "uint256",
          "name": "newExpiryDate",
          "type": "uint256"
        }
      ],
      "name": "NameRenewed",
      "type": "event"
    },
    {
      "anonymous": false,
      "inputs": [
        {
          "indexed": true,
          "internalType": "address",
          "name": "from",
          "type": "address"
        },
        {
          "indexed": true,
          "internalType": "address",
          "name": "to",
          "type": "address"
        },
        {
          "indexed": false,
          "internalType": "string",
          "name": "label",
          "type": "string"
        }
      ],
      "name": "NameTransferred",
      "type": "event"
    },
    {
      "anonymous": false,
      "inputs": [
        {
          "indexed": true,
          "internalType": "address",
          "name": "previousOwner",
          "type": "address"
        },
        {
          "indexed": true,
          "internalType": "address",
          "name": "newOwner",
          "type": "address"
        }
      ],
      "name": "OwnershipTransferred",
      "type": "event"
    },
    {
      "anonymous": false,
      "inputs": [
        {
          "indexed": true,
          "internalType": "bytes32",
          "name": "node",
          "type": "bytes32"
        },
        {
          "indexed": false,
          "internalType": "string",
          "name": "routeKey",
          "type": "string"
        },
        {
          "indexed": false,
          "internalType": "address",
          "name": "recipient",
          "type": "address"
        }
      ],
      "name": "PaymentRouteSet",
      "type": "event"
    },
    {
      "anonymous": false,
      "inputs": [
        {
          "components": [
            {
              "internalType": "uint256",
              "name": "registrationFee",
              "type": "uint256"
            },
            {
              "internalType": "uint256",
              "name": "renewalFee",
              "type": "uint256"
            },
            {
              "internalType": "uint256",
              "name": "premiumMultiplier",
              "type": "uint256"
            },
            {
              "internalType": "bool",
              "name": "requiresApproval",
              "type": "bool"
            },
            {
              "internalType": "uint256",
              "name": "minLength",
              "type": "uint256"
            },
            {
              "internalType": "uint256",
              "name": "maxLength",
              "type": "uint256"
            }
          ],
          "indexed": false,
          "internalType": "struct BaseSepoliaNyigbaNames.SubdomainConfig",
          "name": "newConfig",
          "type": "tuple"
        }
      ],
      "name": "SubdomainConfigUpdated",
      "type": "event"
    },
    {
      "anonymous": false,
      "inputs": [
        {
          "indexed": true,
          "internalType": "bytes32",
          "name": "node",
          "type": "bytes32"
        },
        {
          "indexed": false,
          "internalType": "string",
          "name": "key",
          "type": "string"
        },
        {
          "indexed": false,
          "internalType": "string",
          "name": "value",
          "type": "string"
        }
      ],
      "name": "TextRecordSet",
      "type": "event"
    },
    {
      "inputs": [],
      "name": "BASE_BLOCK_TIME",
      "outputs": [
        {
          "internalType": "uint256",
          "name": "",
          "type": "uint256"
        }
      ],
      "stateMutability": "view",
      "type": "function"
    },
    {
      "inputs": [],
      "name": "BASE_DOMAIN",
      "outputs": [
        {
          "internalType": "string",
          "name": "",
          "type": "string"
        }
      ],
      "stateMutability": "view",
      "type": "function"
    },
    {
      "inputs": [],
      "name": "GRACE_PERIOD",
      "outputs": [
        {
          "internalType": "uint256",
          "name": "",
          "type": "uint256"
        }
      ],
      "stateMutability": "view",
      "type": "function"
    },
    {
      "inputs": [],
      "name": "LOW_GAS_OPTIMIZATION",
      "outputs": [
        {
          "internalType": "uint256",
          "name": "",
          "type": "uint256"
        }
      ],
      "stateMutability": "view",
      "type": "function"
    },
    {
      "inputs": [],
      "name": "MAX_AGENTS_PER_NAME",
      "outputs": [
        {
          "internalType": "uint256",
          "name": "",
          "type": "uint256"
        }
      ],
      "stateMutability": "view",
      "type": "function"
    },
    {
      "inputs": [],
      "name": "MAX_MULTISIG_OWNERS",
      "outputs": [
        {
          "internalType": "uint256",
          "name": "",
          "type": "uint256"
        }
      ],
      "stateMutability": "view",
      "type": "function"
    },
    {
      "inputs": [],
      "name": "REGISTRATION_PERIOD",
      "outputs": [
        {
          "internalType": "uint256",
          "name": "",
          "type": "uint256"
        }
      ],
      "stateMutability": "view",
      "type": "function"
    },
    {
      "inputs": [
        {
          "internalType": "string",
          "name": "label",
          "type": "string"
        }
      ],
      "name": "checkAvailability",
      "outputs": [
        {
          "internalType": "bool",
          "name": "available",
          "type": "bool"
        },
        {
          "internalType": "uint256",
          "name": "fee",
          "type": "uint256"
        },
        {
          "internalType": "string",
          "name": "reason",
          "type": "string"
        }
      ],
      "stateMutability": "view",
      "type": "function"
    },
    {
      "inputs": [
        {
          "internalType": "string",
          "name": "label",
          "type": "string"
        }
      ],
      "name": "claimSubdomain",
      "outputs": [],
      "stateMutability": "payable",
      "type": "function"
    },
    {
      "inputs": [
        {
          "internalType": "string[]",
          "name": "labels",
          "type": "string[]"
        }
      ],
      "name": "cleanupExpiredNames",
      "outputs": [],
      "stateMutability": "nonpayable",
      "type": "function"
    },
    {
      "inputs": [],
      "name": "config",
      "outputs": [
        {
          "internalType": "uint256",
          "name": "registrationFee",
          "type": "uint256"
        },
        {
          "internalType": "uint256",
          "name": "renewalFee",
          "type": "uint256"
        },
        {
          "internalType": "uint256",
          "name": "premiumMultiplier",
          "type": "uint256"
        },
        {
          "internalType": "bool",
          "name": "requiresApproval",
          "type": "bool"
        },
        {
          "internalType": "uint256",
          "name": "minLength",
          "type": "uint256"
        },
        {
          "internalType": "uint256",
          "name": "maxLength",
          "type": "uint256"
        }
      ],
      "stateMutability": "view",
      "type": "function"
    },
    {
      "inputs": [
        {
          "internalType": "string",
          "name": "_label",
          "type": "string"
        }
      ],
      "name": "fullDomain",
      "outputs": [
        {
          "internalType": "string",
          "name": "",
          "type": "string"
        }
      ],
      "stateMutability": "pure",
      "type": "function"
    },
    {
      "inputs": [
        {
          "internalType": "address",
          "name": "_owner",
          "type": "address"
        }
      ],
      "name": "getOwnedSubdomains",
      "outputs": [
        {
          "internalType": "string[]",
          "name": "labels",
          "type": "string[]"
        },
        {
          "internalType": "uint256[]",
          "name": "expiryDates",
          "type": "uint256[]"
        }
      ],
      "stateMutability": "view",
      "type": "function"
    },
    {
      "inputs": [
        {
          "internalType": "string",
          "name": "label",
          "type": "string"
        }
      ],
      "name": "getSubdomainInfo",
      "outputs": [
        {
          "internalType": "address",
          "name": "ownerAddress",
          "type": "address"
        },
        {
          "internalType": "uint256",
          "name": "expiryDate",
          "type": "uint256"
        },
        {
          "internalType": "bool",
          "name": "isPremium",
          "type": "bool"
        },
        {
          "internalType": "bool",
          "name": "isExpired",
          "type": "bool"
        }
      ],
      "stateMutability": "view",
      "type": "function"
    },
    {
      "inputs": [
        {
          "internalType": "bytes32",
          "name": "",
          "type": "bytes32"
        },
        {
          "internalType": "bytes",
          "name": "",
          "type": "bytes"
        }
      ],
      "name": "isValidSignature",
      "outputs": [
        {
          "internalType": "bytes4",
          "name": "magicValue",
          "type": "bytes4"
        }
      ],
      "stateMutability": "pure",
      "type": "function"
    },
    {
      "inputs": [
        {
          "internalType": "bytes32",
          "name": "node",
          "type": "bytes32"
        }
      ],
      "name": "owner",
      "outputs": [
        {
          "internalType": "address",
          "name": "",
          "type": "address"
        }
      ],
      "stateMutability": "view",
      "type": "function"
    },
    {
      "inputs": [],
      "name": "owner",
      "outputs": [
        {
          "internalType": "address",
          "name": "",
          "type": "address"
        }
      ],
      "stateMutability": "view",
      "type": "function"
    },
    {
      "inputs": [
        {
          "internalType": "string",
          "name": "label",
          "type": "string"
        }
      ],
      "name": "renewSubdomain",
      "outputs": [],
      "stateMutability": "payable",
      "type": "function"
    },
    {
      "inputs": [],
      "name": "renounceOwnership",
      "outputs": [],
      "stateMutability": "nonpayable",
      "type": "function"
    },
    {
      "inputs": [
        {
          "internalType": "string",
          "name": "name",
          "type": "string"
        },
        {
          "internalType": "bool",
          "name": "reserved",
          "type": "bool"
        }
      ],
      "name": "setReservedName",
      "outputs": [],
      "stateMutability": "nonpayable",
      "type": "function"
    },
    {
      "inputs": [
        {
          "internalType": "bytes32",
          "name": "node",
          "type": "bytes32"
        },
        {
          "internalType": "string",
          "name": "key",
          "type": "string"
        },
        {
          "internalType": "string",
          "name": "value",
          "type": "string"
        }
      ],
      "name": "setText",
      "outputs": [],
      "stateMutability": "nonpayable",
      "type": "function"
    },
    {
      "inputs": [
        {
          "internalType": "bytes32",
          "name": "node",
          "type": "bytes32"
        },
        {
          "internalType": "string",
          "name": "key",
          "type": "string"
        }
      ],
      "name": "text",
      "outputs": [
        {
          "internalType": "string",
          "name": "",
          "type": "string"
        }
      ],
      "stateMutability": "view",
      "type": "function"
    },
    {
      "inputs": [
        {
          "internalType": "address",
          "name": "newOwner",
          "type": "address"
        }
      ],
      "name": "transferOwnership",
      "outputs": [],
      "stateMutability": "nonpayable",
      "type": "function"
    },
    {
      "inputs": [
        {
          "components": [
            {
              "internalType": "uint256",
              "name": "registrationFee",
              "type": "uint256"
            },
            {
              "internalType": "uint256",
              "name": "renewalFee",
              "type": "uint256"
            },
            {
              "internalType": "uint256",
              "name": "premiumMultiplier",
              "type": "uint256"
            },
            {
              "internalType": "bool",
              "name": "requiresApproval",
              "type": "bool"
            },
            {
              "internalType": "uint256",
              "name": "minLength",
              "type": "uint256"
            },
            {
              "internalType": "uint256",
              "name": "maxLength",
              "type": "uint256"
            }
          ],
          "internalType": "struct BaseSepoliaNyigbaNames.SubdomainConfig",
          "name": "newConfig",
          "type": "tuple"
        }
      ],
      "name": "updateConfig",
      "outputs": [],
      "stateMutability": "nonpayable",
      "type": "function"
    },
    {
      "inputs": [],
      "name": "withdrawFees",
      "outputs": [],
      "stateMutability": "nonpayable",
      "type": "function"
    }
  ],
  "bytecode": "0x60806040908082523461019457331561017e575060008054336001600160a01b0319821681178355835192916001600160a01b03167f8be0079c531659141344cd1fd0a4f28419497f9722a3daafe3b4186f6b6457e08380a360018080559160c081016001600160401b0381118282101761016a578452602060a066038d7ea4c68000928381526601c6bf5263400094858483015260058883015260608201526003608082015201526008556009556005600a5560ff199081600b5416600b556003600c556020600d55602783516430b236b4b760d91b81526025600791826005820152208385825416179055602385516261706960e81b8152826003820152208385825416179055602385516277777760e81b815282600382015220838582541617905560248551631b585a5b60e21b8152826004820152208385825416179055845190661cdd5c1c1bdc9d60ca1b825280820152209182541617905551611b36908161019a8239f35b634e487b7160e01b83526041600452602483fd5b631e4fbdf760e01b815260006004820152602490fd5b600080fdfe60406080815260048036101561001457600080fd5b600091823560e01c8062d4c5af146111ec57806302571be3146111bb5780630e360cdb14610dd757806310f13a8c14610c7c5780631626ba7e14610c295780631c31304314610b9c578063476343ee14610b1857806359d1d43c14610ac35780636043aa1a14610a155780636fbdca25146109e4578063715018a61461098a57806379502c551461093b5780638343965e1461091e57806384d2c0af146107ab5780638da5cb5b146107835780639009234d1461050b5780639248cd43146104a0578063b4270a5d14610484578063c00e2962146102a1578063c1a287e214610283578063d72784fe14610267578063e0f5409714610248578063e1409a40146101e2578063e3590111146101c25763f2fde38b1461013257600080fd5b346101be5760203660031901126101be576001600160a01b038235818116939192908490036101ba57610163611ad4565b83156101a457505082546001600160a01b0319811683178455167f8be0079c531659141344cd1fd0a4f28419497f9722a3daafe3b4186f6b6457e08380a380f35b51631e4fbdf760e01b8152908101849052602490fd5b8480fd5b8280fd5b8382346101de57816003193601126101de576020905160028152f35b5080fd5b509134610245576020366003190112610245578135906001600160401b038211610245575061022261021c60609361024193369101611346565b9061181f565b9193909480519586951515865260208601528401526060830190611433565b0390f35b80fd5b8382346101de57816003193601126101de57602090516301e133808152f35b8382346101de57816003193601126101de576020905160058152f35b8382346101de57816003193601126101de576020905162278d008152f35b5090346101be57602090816003193601126104805780356001600160a01b038116908190036101ba5784528152818320918254936102de856117f4565b946102eb835196876113a9565b808652838601809583528483208584925b84841061046257505050505084519261032c610317856117f4565b94610324855196876113a9565b8086526117f4565b84820190601f1901368237825b87518110156103c3578061034f6001928a61180b565b51610358611458565b6103a288519182886103738183019687815193849201611410565b810191601760f91b8a840152602192610394825180938d8785019101611410565b0103868101845201826113a9565b519020855260028452600986862001546103bc828961180b565b5201610339565b50939594919295865196879681880191885251809152606087019060608160051b890101949186905b82821061042e5750505050858303868301525180835291810193925b82811061041757505050500390f35b835185528695509381019392810192600101610408565b9193948061044e819998600194969b9c605f199082030186528b51611433565b9901920192018998979596949391926103ec565b60019182916104708561174f565b81520192019201919086906102fc565b8380fd5b8382346101de57816003193601126101de5760209051600a8152f35b5090346101be57816003193601126101be578035906001600160401b038211610480576104cf91369101611346565b9091602435928315158094036101ba57826020926104eb611ad4565b519384928337810160078152030190209060ff8019835416911617905580f35b5090602090816003193601126104805780356001600160401b0381116101ba576105389036908301611346565b90926105426119c3565b61054a611458565b855161058760218285810194878a8737878201601760f91b88820152610578825180938a8785019101611410565b010360018101845201826113a9565b5190208087526002808352868820549194916001600160a01b03161561074b5784885280835260ff6008888a20015460081c16600014610742576105d0600954600a549061156a565b915b6105de83341015611593565b8589528184526009888a20015462278d00810180911161072f5742116106ee57858952818452426009898b200154116000146106d4578589528184526009888a200154906301e1338082018092116106c1575090889291935b86845252826009888420015580341161068a575b5050610680907fa8fe6599bdef336aa5814438f54b77f88c5674f2123cdfaa004a452c00d3a47094955193849333978561172b565b0390a26001805580f35b818061069781933461171e565b8181156106b8575b3390f1156106ae57853861064b565b84513d87823e3d90fd5b506108fc61069f565b634e487b7160e01b8a5260119052602489fd5b6301e133804201908142116106c157509088929193610637565b60649084808a519262461bcd60e51b845283015260248201527f4e616d652065787069726564206265796f6e6420677261636520706572696f646044820152fd5b634e487b7160e01b8a526011825260248afd5b600954916105d2565b5060649186519162461bcd60e51b8352820152601360248201527213985b59481b9bdd081c9959da5cdd195c9959606a1b6044820152fd5b8382346101de57816003193601126101de57905490516001600160a01b039091168152602090f35b5090346101be5760c03660031901126101be576107c6611ad4565b608435600181106108e45760a4358381116108aa57604435926001841061086757359182600855602435938460095580600a5560643590811515809203610863577fbcb3cdfb760f36aa865f538f99f2091625e99824a3afe06d2d93e3e35111f5e59660c09660ff19600b541660ff851617600b5584600c5585600d55815196875260208701528501526060840152608083015260a0820152a180f35b8780fd5b606490602086519162461bcd60e51b8352820152601a60248201527f496e76616c6964207072656d69756d206d756c7469706c6965720000000000006044820152fd5b835162461bcd60e51b815260208185015260146024820152734d6178206c656e67746820746f6f206c6172676560601b6044820152606490fd5b506020606492519162461bcd60e51b83528201526014602482015273135a5b881b195b99dd1a081d1bdbc81cdb585b1b60621b6044820152fd5b8382346101de57816003193601126101de57602090516152088152f35b8382346101de57816003193601126101de5760c0906008549060095490600a5460ff600b541690600c5492600d54948151968752602087015285015215156060840152608083015260a0820152f35b83346102455780600319360112610245576109a3611ad4565b80546001600160a01b03198116825581906001600160a01b03167f8be0079c531659141344cd1fd0a4f28419497f9722a3daafe3b4186f6b6457e08280a380f35b8382346101de57816003193601126101de5761024190610a02611458565b9051918291602083526020830190611433565b50346101be57602091826003193601126104805780356001600160401b0381116101ba5791608094610a4d8293600895369101611346565b610a856021610a5a611458565b928651938185928c84019788378201601760f91b8c8201526105788c83519384918785019101611410565b519020815260028552209260018060a01b038454169360ff6009820154948592015460081c1691835195865285015215159083015242116060820152f35b5090346101be57816003193601126101be576024356001600160401b038111610480576102419383610a0293610aff610b139436908301611346565b9290938235815260026020522001916114da565b61174f565b5090346101be57826003193601126101be57610b32611ad4565b47908115610b635750825483918291829182916001600160a01b031682f115610b59575080f35b51903d90823e3d90fd5b606490602084519162461bcd60e51b835282015260136024820152724e6f206665657320746f20776974686472617760681b6044820152fd5b509190346101de5760209182600319360112610245578135906001600160401b038211610245575092610c1a610bda61024193602196369101611346565b9590610be4611458565b878551988993898501378201601760f91b88820152610c0b825180938a8785019101611410565b010360018101875201856113a9565b51928284938452830190611433565b508234610245578160031936011261024557602435906001600160401b03821161024557366023830112156102455750602092816024610c6e933693013591016113ca565b5051630b135d3f60e11b8152f35b509190346101de5760603660031901126101de578035906001600160401b03906024358281116101ba57610cb39036908301611346565b92604435908111610dd357610ccb9036908401611346565b918587526020936002855260018060a01b0389892054163303610d9f5786885260028552600989892001544211610d6d5791610d5a8492610d4a610d679684610d458e9a988e9f8e9f7f22f978b5290fd40ca92adcebde5af87ff35101272b68bf171682c1519b75ea279f815260028c5220018c866114da565b611610565b86519787899889528801916114f3565b92858403908601526114f3565b0390a280f35b885162461bcd60e51b8152908101859052600c60248201526b13985b5948195e1c1a5c995960a21b6044820152606490fd5b885162461bcd60e51b8152908101859052600e60248201526d2737ba103730b6b29037bbb732b960911b6044820152606490fd5b8580fd5b5090602090816003193601126104805780356001600160401b0381116101ba57610e049036908301611346565b9092610e0e6119c3565b600c54821061118757600d5482116111545760ff85518386823782818581016003815203019020541661111b5760ff8551838682378281858101600781520301902054166110e557610e6082856119e6565b156110ac57610e6f8285611ab5565b156110a457610e83600854600a549061156a565b610e8f81341015611593565b610e97611458565b8651610ec560218286810194888b8737888201601760f91b89820152610578825180938b8785019101611410565b51902080885260028352868820549094906001600160a01b031661106a576301e133804201928342116110575788610f3b868960038c80518484823784810183815281900388019020805460ff199081166001179091558c875260028852952080546001600160a01b0319163317815501611610565b868a52600282526008898b2042600782015586600982015501908154169055610f648588611ab5565b868a52600282526008898b20019061ff00825491151560081b169061ff0019161790553389528181528789208054926801000000000000000084101561104457600184018083558410156110315750878a9493610fc79388938752862001611610565b803411611004575b5050610680907fd25e9cdb8a19765d0090fd0e5290363645dc11ae4a854d3bfbf6189b3b3bdbdd94955193849333978561172b565b818061101181933461171e565b818115611028575b3390f1156106ae578538610fcf565b506108fc611019565b634e487b7160e01b8b526032905260248afd5b634e487b7160e01b8b526041905260248afd5b634e487b7160e01b895260118252602489fd5b865162461bcd60e51b8152908101839052601460248201527313985b5948185b1c9958591e4818db185a5b595960621b6044820152606490fd5b600854610e83565b8260649186519162461bcd60e51b83528201526014602482015273125b9d985b1a59081b1858995b08199bdc9b585d60621b6044820152fd5b8260649186519162461bcd60e51b83528201526011602482015270131858995b081a5cc81c995cd95c9d9959607a1b6044820152fd5b8260649186519162461bcd60e51b835282015260146024820152734c6162656c20616c72656164792065786973747360601b6044820152fd5b8260649186519162461bcd60e51b8352820152600e60248201526d4c6162656c20746f6f206c6f6e6760901b6044820152fd5b8260649186519162461bcd60e51b8352820152600f60248201526e131858995b081d1bdbc81cda1bdc9d608a1b6044820152fd5b50823461024557602036600319011261024557506111db60209235611514565b90516001600160a01b039091168152f35b5090346101be57602080600319360112610480576001600160401b038235818111610dd35736602382011215610dd35780840135918211610dd3576024936024820191602436918560051b01011161134257865b83811061124b578780f35b611256818585611483565b61128e611261611458565b8a518381948b8301968737810191601760f91b8b8401526021926105788c83519384918785019101611410565b519020808952600286526009888a20015462278d00810180911161133057906001929142116112bf575b5001611240565b866112cb838888611483565b9190828c5193849283378101600381520301902060ff1981541690557ff30ec8dc9cdb13e1cab9516f7564b701889dbab43388c8fee0792c57f36434c6611313838888611483565b6113278c519283928c84528c8401916114f3565b0390a2386112b8565b634e487b7160e01b8a5260118452878afd5b8680fd5b9181601f84011215611373578235916001600160401b038311611373576020838186019501011161137357565b600080fd5b604081019081106001600160401b0382111761139357604052565b634e487b7160e01b600052604160045260246000fd5b90601f801991011681019081106001600160401b0382111761139357604052565b9291926001600160401b03821161139357604051916113f3601f8201601f1916602001846113a9565b829481845281830111611373578281602093846000960137010152565b60005b8381106114235750506000910152565b8181015183820152602001611413565b9060209161144c81518092818552858086019101611410565b601f01601f1916010190565b6040519061146582611378565b600f82526e0dcf2d2cec4c25ac4c2e6ca5ccae8d608b1b6020830152565b91908110156114c45760051b81013590601e19813603018212156113735701908135916001600160401b038311611373576020018236038113611373579190565b634e487b7160e01b600052603260045260246000fd5b6020919283604051948593843782019081520301902090565b908060209392818452848401376000828201840152601f01601f1916010190565b6000908082526002602052600960408320015462278d008101809111611556574211611552578152600260205260409020546001600160a01b031690565b5090565b634e487b7160e01b83526011600452602483fd5b8181029291811591840414171561157d57565b634e487b7160e01b600052601160045260246000fd5b1561159a57565b60405162461bcd60e51b8152602060048201526014602482015273125b9cdd59999a58da595b9d081c185e5b595b9d60621b6044820152606490fd5b90600182811c92168015611606575b60208310146115f057565b634e487b7160e01b600052602260045260246000fd5b91607f16916115e5565b9092916001600160401b0381116113935761162b82546115d6565b601f81116116d4575b506000601f821160011461166f5781929394600092611664575b50508160011b916000199060031b1c1916179055565b01359050388061164e565b601f19821694838252602091602081209281905b8882106116bc575050836001959697106116a2575b505050811b019055565b0135600019600384901b60f8161c19169055388080611698565b80600184968294958701358155019501920190611683565b6000836000526020600020601f840160051c81019260208510611714575b601f0160051c01915b828110611709575050611634565b8181556001016116fb565b90925082906116f2565b9190820391821161157d57565b9061174590604093969594966060845260608401916114f3565b9460208201520152565b90604051918260008254611762816115d6565b908184526020946001916001811690816000146117d25750600114611793575b505050611791925003836113a9565b565b600090815285812095935091905b8183106117ba5750506117919350820101388080611782565b855488840185015294850194879450918301916117a1565b9250505061179194925060ff191682840152151560051b820101388080611782565b6001600160401b0381116113935760051b60200190565b80518210156114c45760209160051b010190565b9091600c54831061199157600d548311611960576040918251938082863760ff8582810160078152602097889103019020541661192e5760ff8451828482378681848101600381520301902054166119035761187b81836119e6565b156118ce5761188991611ab5565b156118c55761189d600854600a549061156a565b925b68417661696c61626c6560b81b6001949351916118bb83611378565b6009835282015290565b6008549261189f565b505060009273125b9d985b1a59081b1858995b08199bdc9b585d60621b60009351916118f983611378565b6014835282015290565b5050600092734c6162656c20616c72656164792065786973747360601b60009351916118f983611378565b505060009270131858995b081a5cc81c995cd95c9d9959607a1b600093519161195683611378565b6011835282015290565b6040516000935083925061197381611378565b600e81526d4c6162656c20746f6f206c6f6e6760901b602082015290565b604051600093508392506119a481611378565b600f81526e131858995b081d1bdbc81cda1bdc9d608a1b602082015290565b6002600154146119d4576002600155565b604051633ee5aeb560e01b8152600490fd5b6119f19136916113ca565b60005b815180821015611aad5760ff60f81b602083850101511690600360fc1b8210159182611a9e575b8215611a7a575b8215611a3f575b505015611a38576001016119f4565b5050600090565b602d60f81b14915081611a70575b81611a5b575b503880611a29565b60001981019150811161157d57811038611a53565b8215159150611a4d565b9150606160f81b82101580611a90575b91611a22565b50603d60f91b821115611a8a565b603960f81b8111159250611a1b565b505050600190565b611ac39060049236916113ca565b511115611acf57600090565b600190565b6000546001600160a01b03163303611ae857565b60405163118cdaa760e01b8152336004820152602490fdfea2646970667358221220e53997d1e685621c0e8e2311f0fc5f5d3919ebcb472c2b915d24b28ecc24cc2864736f6c63430008180033",
  "linkReferences": {},
  "deployedLinkReferences": {}
}