{
  "_format": "hh-sol-artifact-1",
  "contractName": "BaseCulturalMarketplace",
  "sourceName": "contracts/BaseCulturalMarketplace.sol",
  "abi": [
    {
      "inputs": [
        {
          "internalType": "address",
          "name": "_feeRecipient",
          "type": "address"
        }
      ],
      "stateMutability": "nonpayable",
      "type": "constructor"
    },
    {
      "inputs": [
        {
          "internalType": "address",
          "name": "owner",
          "type": "address"
        }
      ],
      "name": "OwnableInvalidOwner",
      "type": "error"
    },
    {
      "inputs": [
        {
          "internalType": "address",
          "name": "account",
          "type": "address"
        }
      ],
      "name": "OwnableUnauthorizedAccount",
      "type": "error"
    },
    {
      "inputs": [],
      "name": "ReentrancyGuardReentrantCall",
      "type": "error"
    },
    {
      "anonymous": false,
      "inputs": [
        {
          "indexed": true,
          "internalType": "address",
          "name": "nftContract",
          "type": "address"
        },
        {
          "indexed": true,
          "internalType": "uint256",
          "name": "tokenId",
          "type": "uint256"
        },
        {
          "indexed": true,
          "internalType": "address",
          "name": "seller",
          "type": "address"
        }
      ],
      "name": "ListingCancelled",
      "type": "event"
    },
    {
      "anonymous": false,
      "inputs": [
        {
          "indexed": true,
          "internalType": "address",
          "name": "nftContract",
          "type": "address"
        },
        {
          "indexed": true,
          "internalType": "uint256",
          "name": "tokenId",
          "type": "uint256"
        },
        {
          "indexed": true,
          "internalType": "address",
          "name": "seller",
          "type": "address"
        },
        {
          "indexed": false,
          "internalType": "uint256",
          "name": "price",
          "type": "uint256"
        }
      ],
      "name": "NFTListed",
      "type": "event"
    },
    {
      "anonymous": false,
      "inputs": [
        {
          "indexed": true,
          "internalType": "address",
          "name": "nftContract",
          "type": "address"
        },
        {
          "indexed": true,
          "internalType": "uint256",
          "name": "tokenId",
          "type": "uint256"
        },
        {
          "indexed": true,
          "internalType": "address",
          "name": "buyer",
          "type": "address"
        },
        {
          "indexed": false,
          "internalType": "uint256",
          "name": "price",
          "type": "uint256"
        }
      ],
      "name": "NFTPurchased",
      "type": "event"
    },
    {
      "anonymous": false,
      "inputs": [
        {
          "indexed": true,
          "internalType": "address",
          "name": "nftContract",
          "type": "address"
        },
        {
          "indexed": true,
          "internalType": "uint256",
          "name": "tokenId",
          "type": "uint256"
        },
        {
          "indexed": true,
          "internalType": "address",
          "name": "buyer",
          "type": "address"
        },
        {
          "indexed": false,
          "internalType": "uint256",
          "name": "price",
          "type": "uint256"
        }
      ],
      "name": "NFTSold",
      "type": "event"
    },
    {
      "anonymous": false,
      "inputs": [
        {
          "indexed": true,
          "internalType": "address",
          "name": "nftContract",
          "type": "address"
        },
        {
          "indexed": true,
          "internalType": "uint256",
          "name": "tokenId",
          "type": "uint256"
        },
        {
          "indexed": true,
          "internalType": "address",
          "name": "seller",
          "type": "address"
        },
        {
          "indexed": false,
          "internalType": "uint256",
          "name": "price",
          "type": "uint256"
        }
      ],
      "name": "OfferAccepted",
      "type": "event"
    },
    {
      "anonymous": false,
      "inputs": [
        {
          "indexed": true,
          "internalType": "address",
          "name": "nftContract",
          "type": "address"
        },
        {
          "indexed": true,
          "internalType": "uint256",
          "name": "tokenId",
          "type": "uint256"
        },
        {
          "indexed": true,
          "internalType": "address",
          "name": "buyer",
          "type": "address"
        },
        {
          "indexed": false,
          "internalType": "uint256",
          "name": "price",
          "type": "uint256"
        }
      ],
      "name": "OfferMade",
      "type": "event"
    },
    {
      "anonymous": false,
      "inputs": [
        {
          "indexed": true,
          "internalType": "address",
          "name": "previousOwner",
          "type": "address"
        },
        {
          "indexed": true,
          "internalType": "address",
          "name": "newOwner",
          "type": "address"
        }
      ],
      "name": "OwnershipTransferred",
      "type": "event"
    },
    {
      "inputs": [],
      "name": "BASE_FEE_PERCENTAGE",
      "outputs": [
        {
          "internalType": "uint256",
          "name": "",
          "type": "uint256"
        }
      ],
      "stateMutability": "view",
      "type": "function"
    },
    {
      "inputs": [],
      "name": "BASE_OFFER_DURATION",
      "outputs": [
        {
          "internalType": "uint256",
          "name": "",
          "type": "uint256"
        }
      ],
      "stateMutability": "view",
      "type": "function"
    },
    {
      "inputs": [],
      "name": "MAX_ACTIVE_LISTINGS",
      "outputs": [
        {
          "internalType": "uint256",
          "name": "",
          "type": "uint256"
        }
      ],
      "stateMutability": "view",
      "type": "function"
    },
    {
      "inputs": [
        {
          "internalType": "address",
          "name": "nftContract",
          "type": "address"
        },
        {
          "internalType": "uint256",
          "name": "tokenId",
          "type": "uint256"
        },
        {
          "internalType": "uint256",
          "name": "offerIndex",
          "type": "uint256"
        }
      ],
      "name": "acceptOffer",
      "outputs": [],
      "stateMutability": "nonpayable",
      "type": "function"
    },
    {
      "inputs": [
        {
          "internalType": "address",
          "name": "nftContract",
          "type": "address"
        },
        {
          "internalType": "uint256",
          "name": "tokenId",
          "type": "uint256"
        }
      ],
      "name": "buyNFT",
      "outputs": [],
      "stateMutability": "payable",
      "type": "function"
    },
    {
      "inputs": [
        {
          "internalType": "address",
          "name": "nftContract",
          "type": "address"
        },
        {
          "internalType": "uint256",
          "name": "tokenId",
          "type": "uint256"
        }
      ],
      "name": "cancelListing",
      "outputs": [],
      "stateMutability": "nonpayable",
      "type": "function"
    },
    {
      "inputs": [],
      "name": "emergencyWithdraw",
      "outputs": [],
      "stateMutability": "nonpayable",
      "type": "function"
    },
    {
      "inputs": [],
      "name": "feeRecipient",
      "outputs": [
        {
          "internalType": "address",
          "name": "",
          "type": "address"
        }
      ],
      "stateMutability": "view",
      "type": "function"
    },
    {
      "inputs": [
        {
          "internalType": "address",
          "name": "nftContract",
          "type": "address"
        },
        {
          "internalType": "uint256",
          "name": "tokenId",
          "type": "uint256"
        }
      ],
      "name": "getListing",
      "outputs": [
        {
          "components": [
            {
              "internalType": "uint256",
              "name": "tokenId",
              "type": "uint256"
            },
            {
              "internalType": "address",
              "name": "seller",
              "type": "address"
            },
            {
              "internalType": "address",
              "name": "nftContract",
              "type": "address"
            },
            {
              "internalType": "uint256",
              "name": "price",
              "type": "uint256"
            },
            {
              "internalType": "bool",
              "name": "active",
              "type": "bool"
            },
            {
              "internalType": "uint256",
              "name": "listedAt",
              "type": "uint256"
            }
          ],
          "internalType": "struct BaseCulturalMarketplace.Listing",
          "name": "",
          "type": "tuple"
        }
      ],
      "stateMutability": "view",
      "type": "function"
    },
    {
      "inputs": [
        {
          "internalType": "address",
          "name": "nftContract",
          "type": "address"
        },
        {
          "internalType": "uint256",
          "name": "tokenId",
          "type": "uint256"
        }
      ],
      "name": "getOffers",
      "outputs": [
        {
          "components": [
            {
              "internalType": "address",
              "name": "buyer",
              "type": "address"
            },
            {
              "internalType": "uint256",
              "name": "price",
              "type": "uint256"
            },
            {
              "internalType": "uint256",
              "name": "deadline",
              "type": "uint256"
            },
            {
              "internalType": "bool",
              "name": "active",
              "type": "bool"
            }
          ],
          "internalType": "struct BaseCulturalMarketplace.Offer[]",
          "name": "",
          "type": "tuple[]"
        }
      ],
      "stateMutability": "view",
      "type": "function"
    },
    {
      "inputs": [
        {
          "internalType": "address",
          "name": "user",
          "type": "address"
        }
      ],
      "name": "getUserListings",
      "outputs": [
        {
          "internalType": "uint256[]",
          "name": "",
          "type": "uint256[]"
        }
      ],
      "stateMutability": "view",
      "type": "function"
    },
    {
      "inputs": [
        {
          "internalType": "address",
          "name": "nftContract",
          "type": "address"
        },
        {
          "internalType": "uint256",
          "name": "tokenId",
          "type": "uint256"
        },
        {
          "internalType": "uint256",
          "name": "price",
          "type": "uint256"
        }
      ],
      "name": "listNFT",
      "outputs": [],
      "stateMutability": "nonpayable",
      "type": "function"
    },
    {
      "inputs": [
        {
          "internalType": "address",
          "name": "",
          "type": "address"
        },
        {
          "internalType": "uint256",
          "name": "",
          "type": "uint256"
        }
      ],
      "name": "listings",
      "outputs": [
        {
          "internalType": "uint256",
          "name": "tokenId",
          "type": "uint256"
        },
        {
          "internalType": "address",
          "name": "seller",
          "type": "address"
        },
        {
          "internalType": "address",
          "name": "nftContract",
          "type": "address"
        },
        {
          "internalType": "uint256",
          "name": "price",
          "type": "uint256"
        },
        {
          "internalType": "bool",
          "name": "active",
          "type": "bool"
        },
        {
          "internalType": "uint256",
          "name": "listedAt",
          "type": "uint256"
        }
      ],
      "stateMutability": "view",
      "type": "function"
    },
    {
      "inputs": [
        {
          "internalType": "address",
          "name": "nftContract",
          "type": "address"
        },
        {
          "internalType": "uint256",
          "name": "tokenId",
          "type": "uint256"
        },
        {
          "internalType": "uint256",
          "name": "price",
          "type": "uint256"
        }
      ],
      "name": "makeOffer",
      "outputs": [],
      "stateMutability": "payable",
      "type": "function"
    },
    {
      "inputs": [
        {
          "internalType": "address",
          "name": "",
          "type": "address"
        },
        {
          "internalType": "uint256",
          "name": "",
          "type": "uint256"
        },
        {
          "internalType": "uint256",
          "name": "",
          "type": "uint256"
        }
      ],
      "name": "offers",
      "outputs": [
        {
          "internalType": "address",
          "name": "buyer",
          "type": "address"
        },
        {
          "internalType": "uint256",
          "name": "price",
          "type": "uint256"
        },
        {
          "internalType": "uint256",
          "name": "deadline",
          "type": "uint256"
        },
        {
          "internalType": "bool",
          "name": "active",
          "type": "bool"
        }
      ],
      "stateMutability": "view",
      "type": "function"
    },
    {
      "inputs": [],
      "name": "owner",
      "outputs": [
        {
          "internalType": "address",
          "name": "",
          "type": "address"
        }
      ],
      "stateMutability": "view",
      "type": "function"
    },
    {
      "inputs": [],
      "name": "renounceOwnership",
      "outputs": [],
      "stateMutability": "nonpayable",
      "type": "function"
    },
    {
      "inputs": [],
      "name": "totalListings",
      "outputs": [
        {
          "internalType": "uint256",
          "name": "",
          "type": "uint256"
        }
      ],
      "stateMutability": "view",
      "type": "function"
    },
    {
      "inputs": [],
      "name": "totalVolume",
      "outputs": [
        {
          "internalType": "uint256",
          "name": "",
          "type": "uint256"
        }
      ],
      "stateMutability": "view",
      "type": "function"
    },
    {
      "inputs": [
        {
          "internalType": "address",
          "name": "newOwner",
          "type": "address"
        }
      ],
      "name": "transferOwnership",
      "outputs": [],
      "stateMutability": "nonpayable",
      "type": "function"
    },
    {
      "inputs": [
        {
          "internalType": "address",
          "name": "newRecipient",
          "type": "address"
        }
      ],
      "name": "updateFeeRecipient",
      "outputs": [],
      "stateMutability": "nonpayable",
      "type": "function"
    },
    {
      "inputs": [
        {
          "internalType": "address",
          "name": "",
          "type": "address"
        }
      ],
      "name": "userListingCount",
      "outputs": [
        {
          "internalType": "uint256",
          "name": "",
          "type": "uint256"
        }
      ],
      "stateMutability": "view",
      "type": "function"
    },
    {
      "inputs": [
        {
          "internalType": "address",
          "name": "",
          "type": "address"
        },
        {
          "internalType": "uint256",
          "name": "",
          "type": "uint256"
        }
      ],
      "name": "userListings",
      "outputs": [
        {
          "internalType": "uint256",
          "name": "",
          "type": "uint256"
        }
      ],
      "stateMutability": "view",
      "type": "function"
    }
  ],
  "bytecode": "0x6080346100cd57601f61174038819003918201601f19168301916001600160401b038311848410176100d2578084926020946040528339810103126100cd57516001600160a01b0390818116908190036100cd57600160005533156100b45760018054336001600160a01b03198083168217909355604051949091167f8be0079c531659141344cd1fd0a4f28419497f9722a3daafe3b4186f6b6457e0600080a3600654161760065561165790816100e98239f35b604051631e4fbdf760e01b815260006004820152602490fd5b600080fd5b634e487b7160e01b600052604160045260246000fdfe6080604081815260048036101561001557600080fd5b600092833560e01c90816207df301461127f575080630c67cd6c14611262578063320e32e71461124657806339b1ea381461120e5780633c6fc81714610f905780634690484014610f675780635f81a57c14610f48578063715018a614610eea5780637de3bd0714610d1757806386cfa7d314610cc057806388700d1c14610bd95780638da5cb5b14610bb0578063a82ba76f14610966578063ad05f1b4146105c3578063b2ddee0614610514578063c78b616c146104f5578063d234a930146104d7578063db2e21bc1461045c578063e3b43677146103e4578063ea98a950146102a0578063eb18a9d8146101f0578063f160d369146101ad5763f2fde38b1461011f57600080fd5b346101a95760203660031901126101a957610138611304565b906101416115f5565b6001600160a01b03918216928315610193575050600154826001600160601b0360a01b821617600155167f8be0079c531659141344cd1fd0a4f28419497f9722a3daafe3b4186f6b6457e0600080a380f35b51631e4fbdf760e01b8152908101849052602490fd5b8280fd5b83346101ed5760203660031901126101ed576101c7611304565b6101cf6115f5565b60018060a01b03166001600160601b0360a01b600654161760065580f35b80fd5b5082346101ed576020918260031936011261029c579192916001600160a01b03610218611304565b1682528352818120908251808584549182815201908194845286842090845b818110610288575050508161024d910382611496565b83519485948186019282875251809352850193925b82811061027157505050500390f35b835185528695509381019392810192600101610262565b825484529288019260019283019201610237565b5080fd5b5082903461029c578260031936011261029c576102bb611304565b9160018060a01b03809316815260039060209060038252858120602435825282528581209384549067ffffffffffffffff82116103d15787949392945193610308848460051b0186611496565b82855283850190819787528487209087925b8a8c878610610385579650505050505050519481860192828752518093528686019493905b83821061034c5786860387f35b8451805182168752808401518785015288810151898801526060908101511515908701526080909501949382019360019091019061033f565b9760019287928a839c9d9b519161039b8361145e565b8854168252858801548483015260028801549082015260ff8688015416151560608201528152019301930192919796959761031a565b634e487b7160e01b835260419052602482fd5b8284346101ed576103f43661131f565b9391929060018060a01b03809416825260036020528282209082526020528181209081548510156101ed575060809361042c91611377565b50918254169160018101549160ff6003600284015493015416928151948552602085015283015215156060820152f35b50346101a957826003193601126101a9576104756115f5565b479081156104a7575060015483918291829182916001600160a01b031682f11561049d575080f35b51903d90823e3d90fd5b606490602084519162461bcd60e51b8352820152600a6024820152694e6f2062616c616e636560b01b6044820152fd5b50503461029c578160031936011261029c576020905162093a808152f35b50503461029c578160031936011261029c576020906008549051908152f35b5090346101a957806003193601126101a95761052e611304565b906024359160018060a01b0380911693848652600260205282862084875260205261057483872091820192600184549361056a60ff8616611393565b01541633146113d4565b60ff191690556105848233611523565b3384526005602052832061059881546114c5565b905533917f8526cb6d400b8a551983c99e6d6fb1775b7a0deeb5d1e39d3ee65bc59e5eac278480a480f35b5090346101a9576105d33661131f565b9390926105de611500565b841561092357338652602091600583526103e88288205410156108e25781516331a9108f60e11b81528181018690526001600160a01b0394851694602491858184818a5afa90811561084e578a916108c5575b50813391160361089257835163e985e9c560e01b81523384820152308382015285816044818a5afa90811561084e578a91610858575b5080156107ef575b156107bf5760058661070d878b8b8e8a519761068a8961147a565b8289528b858a0192338452818b019489865260608c0196875260808c01976001895260a08d019a428c528352600281528383209183525220985189558060018a01925116916001600160601b0360a01b928382541617905560028901925116908254161790555160038601555115158685019060ff801983541691151516179055565b5191015533885281845282882090815492600160401b8410156107ae575050856107638361077c9360017f392a0f172cb29479635d0b2219b2f96ef24f74dfdf328cb09f1496efe6cfddbe989796018155611349565b90919082549060031b91821b91600019901b1916179055565b3387526005825280872061079081546114f1565b905561079d6008546114f1565b600855519485523394a46001815580f35b634e487b7160e01b8a526041905288fd5b50606493600c9293519362461bcd60e51b85528401528201526b139bdd08185c1c1c9bdd995960a21b6044820152fd5b50835163020604bf60e21b8152838101889052858184818a5afa90811561084e578a91610821575b508116301461066f565b6108419150863d8811610847575b6108398183611496565b8101906114d2565b38610817565b503d61082f565b85513d8c823e3d90fd5b90508581813d831161088b575b61086f8183611496565b81010312610887575180151581036108875738610667565b8980fd5b503d610865565b50606493600f9293519362461bcd60e51b85528401528201526e2737ba103a37b5b2b71037bbb732b960891b6044820152fd5b6108dc9150863d8811610847576108398183611496565b38610631565b82606492519162461bcd60e51b8352820152601860248201527f546f6f206d616e7920616374697665206c697374696e677300000000000000006044820152fd5b906020606492519162461bcd60e51b8352820152601c60248201527f5072696365206d7573742062652067726561746572207468616e2030000000006044820152fd5b50816003193601126101a95761097a611304565b60243591610986611500565b60018060a01b03809216918286526002602052848620848752602052848620918083016109b660ff825416611393565b6003840193845490813410610b76576019820282810460191483151715610b63579060016109eb6127108d9594048094611411565b91019486865416893b15610b5f578b51632142170760e11b81526001600160a01b03909116918101918252336020830152604082018b9052908490829081906060010381838d5af1908115610b55578491610b41575b508080809389895416828215610b38575bf115610b2c57818080928760065416828215610b23575bf115610b1057878454803411610aec575b505060ff198154169055610a9183546007546114b8565b600755610aa18583835416611523565b541685526005602052838520610ab781546114c5565b90555492519283527fd0de3e759b6d8ae4ab8dfd56f0869b691034bf2f14b896155287e5cd61d66a7060203394a46001815580f35b8180610af9819334611411565b818115610b1a575b3390f115610b10578738610a7a565b86513d89823e3d90fd5b506108fc610b01565b506108fc610a69565b508751903d90823e3d90fd5b506108fc610a52565b610b4a90611434565b6101a9578238610a41565b8b513d86823e3d90fd5b8480fd5b634e487b7160e01b8b526011855260248bfd5b885162461bcd60e51b81526020818601526014602482015273125b9cdd59999a58da595b9d081c185e5b595b9d60621b6044820152606490fd5b50503461029c578160031936011261029c5760015490516001600160a01b039091168152602090f35b5091903461029c578060031936011261029c5760c09281610bf8611304565b938060a08351610c078161147a565b8281528260208201528285820152826060820152826080820152015260018060a01b038095168152600260205281812060243582526020522090825192610c4d8461147a565b825494858552806001850154166020860190815281806002870154169184880192835260a0600560ff60038a01549860608c01998a528a0154169860808b019915158a520154980197885284519889525116602088015251169085015251606084015251151560808301525160a0820152f35b5091346101ed57816003193601126101ed57610cda611304565b6001600160a01b03168152602092909252808220805460243593908410156101ed5750602092610d0991611349565b91905490519160031b1c8152f35b50610d213661131f565b939092610d2c611500565b843410610ea8578415610e5b5762093a80420192834211610e4857825193610d538561145e565b3385526020850187815284860191825260608601926001845260018060a01b0380911696878b526003602052868b20898c52602052868b20805490600160401b821015610e355790610daa91600182018155611377565b969096610e2357509160039391610df296959351166001600160601b0360a01b86541617855551600185015551600284015551151591019060ff801983541691151516179055565b519283527f7ab51a03638d3bfd74576317d23a61865ab7ee43ce9ee3a44044594da5c6d65560203394a46001815580f35b634e487b7160e01b8c528b905260248bfd5b634e487b7160e01b8d526041885260248dfd5b634e487b7160e01b875260118252602487fd5b6020608492519162461bcd60e51b8352820152602260248201527f4f66666572207072696365206d7573742062652067726561746572207468616e604482015261020360f41b6064820152fd5b6020606492519162461bcd60e51b8352820152601960248201527f496e73756666696369656e74206f6666657220616d6f756e74000000000000006044820152fd5b83346101ed57806003193601126101ed57610f036115f5565b600180546001600160a01b031981169091556000906001600160a01b03167f8be0079c531659141344cd1fd0a4f28419497f9722a3daafe3b4186f6b6457e08280a380f35b50503461029c578160031936011261029c576020906007549051908152f35b50503461029c578160031936011261029c5760065490516001600160a01b039091168152602090f35b50346101a957610f9f3661131f565b91610fab939193611500565b60018060a01b038091169283875260209160028352868820868952835286882093600181860195610fdf60ff885416611393565b019061100b8383541694610ff43387146113d4565b888c52600387528a8c208a8d5287528a8c20611377565b5090600382019160ff835416156111d857600281015442116111a557600181019586549260198402848104601914851517156111925790878f9261271061105491048097611411565b945416908c3b156101a9578e51632142170760e11b81526001600160a01b03948516918101918252919093166020840152604083018d905291829081900360600181838e5af1801561118857611173575b50908b80808080958989541682821561116a575bf11561115e57818080928760065416828215611155575bf11561114b577fa994d1bf7c4f40ea558b18bf79efbc7bc38b5d5f72aa2fec5a69cdb31be161329560ff1990818154169055815416905561111483546007546114b8565b6007556111248783835416611523565b541687526005825285872061113981546114c5565b90555494519485523394a46001815580f35b88513d8b823e3d90fd5b506108fc6110d0565b508951903d90823e3d90fd5b506108fc6110b9565b611180909c91929c611434565b9a90386110a5565b8c513d8f823e3d90fd5b634e487b7160e01b8f526011825260248ffd5b8a5162461bcd60e51b8152808301889052600d60248201526c13d999995c88195e1c1a5c9959609a1b6044820152606490fd5b8a5162461bcd60e51b8152808301889052601060248201526f4f66666572206e6f742061637469766560801b6044820152606490fd5b50503461029c57602036600319011261029c5760209181906001600160a01b03611236611304565b1681526005845220549051908152f35b50503461029c578160031936011261029c576020905160198152f35b50503461029c578160031936011261029c57602090516103e88152f35b92919050346113005781600319360112611300579260c093826112a0611304565b9260018060a01b038094168152600260205281812060243582526020522091825493816001850154169160028501541691600560ff60038701549587015416950154958752602087015285015260608401521515608083015260a0820152f35b8380fd5b600435906001600160a01b038216820361131a57565b600080fd5b606090600319011261131a576004356001600160a01b038116810361131a57906024359060443590565b80548210156113615760005260206000200190600090565b634e487b7160e01b600052603260045260246000fd5b80548210156113615760005260206000209060021b0190600090565b1561139a57565b60405162461bcd60e51b81526020600482015260126024820152714c697374696e67206e6f742061637469766560701b6044820152606490fd5b156113db57565b60405162461bcd60e51b815260206004820152600e60248201526d2737ba103a34329039b2b63632b960911b6044820152606490fd5b9190820391821161141e57565b634e487b7160e01b600052601160045260246000fd5b67ffffffffffffffff811161144857604052565b634e487b7160e01b600052604160045260246000fd5b6080810190811067ffffffffffffffff82111761144857604052565b60c0810190811067ffffffffffffffff82111761144857604052565b90601f8019910116810190811067ffffffffffffffff82111761144857604052565b9190820180921161141e57565b801561141e576000190190565b9081602091031261131a57516001600160a01b038116810361131a5790565b600019811461141e5760010190565b600260005414611511576002600055565b604051633ee5aeb560e01b8152600490fd5b6001600160a01b031660009081526004602081905260408220909291805b8254808210156115ed5784906115578386611349565b929054600393841b1c1461156f575050600101611541565b939450949190600019938481019081116115da57906107636115946115a19388611349565b905490891b1c9187611349565b83549182156115c75750508101926115b98484611349565b81939154921b1b1916905555565b634e487b7160e01b825260319052602490fd5b634e487b7160e01b835260118452602483fd5b505050505050565b6001546001600160a01b0316330361160957565b60405163118cdaa760e01b8152336004820152602490fdfea26469706673582212200e2935aed174d7527965baee11e9156ad78f45a24d6786abcdc60e79c7569a9d64736f6c63430008180033",
  "linkReferences": {},
  "deployedLinkReferences": {}
}