{
  "_format": "hh-sol-artifact-1",
  "contractName": "BaseCulturalNFT",
  "sourceName": "contracts/BaseCulturalNFT.sol",
  "abi": [
    {
      "inputs": [],
      "stateMutability": "nonpayable",
      "type": "constructor"
    },
    {
      "inputs": [
        {
          "internalType": "address",
          "name": "sender",
          "type": "address"
        },
        {
          "internalType": "uint256",
          "name": "tokenId",
          "type": "uint256"
        },
        {
          "internalType": "address",
          "name": "owner",
          "type": "address"
        }
      ],
      "name": "ERC721IncorrectOwner",
      "type": "error"
    },
    {
      "inputs": [
        {
          "internalType": "address",
          "name": "operator",
          "type": "address"
        },
        {
          "internalType": "uint256",
          "name": "tokenId",
          "type": "uint256"
        }
      ],
      "name": "ERC721InsufficientApproval",
      "type": "error"
    },
    {
      "inputs": [
        {
          "internalType": "address",
          "name": "approver",
          "type": "address"
        }
      ],
      "name": "ERC721InvalidApprover",
      "type": "error"
    },
    {
      "inputs": [
        {
          "internalType": "address",
          "name": "operator",
          "type": "address"
        }
      ],
      "name": "ERC721InvalidOperator",
      "type": "error"
    },
    {
      "inputs": [
        {
          "internalType": "address",
          "name": "owner",
          "type": "address"
        }
      ],
      "name": "ERC721InvalidOwner",
      "type": "error"
    },
    {
      "inputs": [
        {
          "internalType": "address",
          "name": "receiver",
          "type": "address"
        }
      ],
      "name": "ERC721InvalidReceiver",
      "type": "error"
    },
    {
      "inputs": [
        {
          "internalType": "address",
          "name": "sender",
          "type": "address"
        }
      ],
      "name": "ERC721InvalidSender",
      "type": "error"
    },
    {
      "inputs": [
        {
          "internalType": "uint256",
          "name": "tokenId",
          "type": "uint256"
        }
      ],
      "name": "ERC721NonexistentToken",
      "type": "error"
    },
    {
      "inputs": [
        {
          "internalType": "address",
          "name": "owner",
          "type": "address"
        }
      ],
      "name": "OwnableInvalidOwner",
      "type": "error"
    },
    {
      "inputs": [
        {
          "internalType": "address",
          "name": "account",
          "type": "address"
        }
      ],
      "name": "OwnableUnauthorizedAccount",
      "type": "error"
    },
    {
      "inputs": [],
      "name": "ReentrancyGuardReentrantCall",
      "type": "error"
    },
    {
      "anonymous": false,
      "inputs": [
        {
          "indexed": true,
          "internalType": "address",
          "name": "owner",
          "type": "address"
        },
        {
          "indexed": true,
          "internalType": "address",
          "name": "approved",
          "type": "address"
        },
        {
          "indexed": true,
          "internalType": "uint256",
          "name": "tokenId",
          "type": "uint256"
        }
      ],
      "name": "Approval",
      "type": "event"
    },
    {
      "anonymous": false,
      "inputs": [
        {
          "indexed": true,
          "internalType": "address",
          "name": "owner",
          "type": "address"
        },
        {
          "indexed": true,
          "internalType": "address",
          "name": "operator",
          "type": "address"
        },
        {
          "indexed": false,
          "internalType": "bool",
          "name": "approved",
          "type": "bool"
        }
      ],
      "name": "ApprovalForAll",
      "type": "event"
    },
    {
      "anonymous": false,
      "inputs": [
        {
          "indexed": false,
          "internalType": "uint256",
          "name": "_fromTokenId",
          "type": "uint256"
        },
        {
          "indexed": false,
          "internalType": "uint256",
          "name": "_toTokenId",
          "type": "uint256"
        }
      ],
      "name": "BatchMetadataUpdate",
      "type": "event"
    },
    {
      "anonymous": false,
      "inputs": [
        {
          "indexed": true,
          "internalType": "address",
          "name": "artist",
          "type": "address"
        },
        {
          "indexed": false,
          "internalType": "uint256[]",
          "name": "tokenIds",
          "type": "uint256[]"
        }
      ],
      "name": "BatchMintExecuted",
      "type": "event"
    },
    {
      "anonymous": false,
      "inputs": [
        {
          "indexed": true,
          "internalType": "uint256",
          "name": "tokenId",
          "type": "uint256"
        },
        {
          "indexed": true,
          "internalType": "address",
          "name": "artist",
          "type": "address"
        },
        {
          "indexed": false,
          "internalType": "string",
          "name": "culturalOrigin",
          "type": "string"
        }
      ],
      "name": "CulturalAssetMinted",
      "type": "event"
    },
    {
      "anonymous": false,
      "inputs": [
        {
          "indexed": false,
          "internalType": "uint256",
          "name": "_tokenId",
          "type": "uint256"
        }
      ],
      "name": "MetadataUpdate",
      "type": "event"
    },
    {
      "anonymous": false,
      "inputs": [
        {
          "indexed": false,
          "internalType": "string",
          "name": "origin",
          "type": "string"
        },
        {
          "indexed": true,
          "internalType": "address",
          "name": "verifier",
          "type": "address"
        }
      ],
      "name": "OriginVerified",
      "type": "event"
    },
    {
      "anonymous": false,
      "inputs": [
        {
          "indexed": true,
          "internalType": "address",
          "name": "previousOwner",
          "type": "address"
        },
        {
          "indexed": true,
          "internalType": "address",
          "name": "newOwner",
          "type": "address"
        }
      ],
      "name": "OwnershipTransferred",
      "type": "event"
    },
    {
      "anonymous": false,
      "inputs": [
        {
          "indexed": true,
          "internalType": "address",
          "name": "from",
          "type": "address"
        },
        {
          "indexed": true,
          "internalType": "address",
          "name": "to",
          "type": "address"
        },
        {
          "indexed": true,
          "internalType": "uint256",
          "name": "tokenId",
          "type": "uint256"
        }
      ],
      "name": "Transfer",
      "type": "event"
    },
    {
      "inputs": [],
      "name": "BASE_BLOCK_TIME",
      "outputs": [
        {
          "internalType": "uint256",
          "name": "",
          "type": "uint256"
        }
      ],
      "stateMutability": "view",
      "type": "function"
    },
    {
      "inputs": [],
      "name": "LOW_GAS_PRICE",
      "outputs": [
        {
          "internalType": "uint256",
          "name": "",
          "type": "uint256"
        }
      ],
      "stateMutability": "view",
      "type": "function"
    },
    {
      "inputs": [],
      "name": "MAX_BATCH_MINT",
      "outputs": [
        {
          "internalType": "uint256",
          "name": "",
          "type": "uint256"
        }
      ],
      "stateMutability": "view",
      "type": "function"
    },
    {
      "inputs": [
        {
          "internalType": "address",
          "name": "to",
          "type": "address"
        },
        {
          "internalType": "uint256",
          "name": "tokenId",
          "type": "uint256"
        }
      ],
      "name": "approve",
      "outputs": [],
      "stateMutability": "nonpayable",
      "type": "function"
    },
    {
      "inputs": [
        {
          "internalType": "address",
          "name": "",
          "type": "address"
        },
        {
          "internalType": "uint256",
          "name": "",
          "type": "uint256"
        }
      ],
      "name": "artistTokens",
      "outputs": [
        {
          "internalType": "uint256",
          "name": "",
          "type": "uint256"
        }
      ],
      "stateMutability": "view",
      "type": "function"
    },
    {
      "inputs": [
        {
          "internalType": "address",
          "name": "owner",
          "type": "address"
        }
      ],
      "name": "balanceOf",
      "outputs": [
        {
          "internalType": "uint256",
          "name": "",
          "type": "uint256"
        }
      ],
      "stateMutability": "view",
      "type": "function"
    },
    {
      "inputs": [
        {
          "internalType": "address",
          "name": "to",
          "type": "address"
        },
        {
          "internalType": "string[]",
          "name": "uris",
          "type": "string[]"
        },
        {
          "components": [
            {
              "internalType": "string",
              "name": "name",
              "type": "string"
            },
            {
              "internalType": "string",
              "name": "description",
              "type": "string"
            },
            {
              "internalType": "string",
              "name": "culturalOrigin",
              "type": "string"
            },
            {
              "internalType": "string",
              "name": "language",
              "type": "string"
            },
            {
              "internalType": "string",
              "name": "category",
              "type": "string"
            },
            {
              "internalType": "string",
              "name": "artistName",
              "type": "string"
            },
            {
              "internalType": "uint256",
              "name": "creationDate",
              "type": "uint256"
            },
            {
              "internalType": "string",
              "name": "ipfsHash",
              "type": "string"
            },
            {
              "internalType": "bool",
              "name": "verified",
              "type": "bool"
            }
          ],
          "internalType": "struct BaseCulturalNFT.CulturalAsset[]",
          "name": "assets",
          "type": "tuple[]"
        }
      ],
      "name": "batchMintCulturalAssets",
      "outputs": [
        {
          "internalType": "uint256[]",
          "name": "",
          "type": "uint256[]"
        }
      ],
      "stateMutability": "nonpayable",
      "type": "function"
    },
    {
      "inputs": [
        {
          "internalType": "uint256",
          "name": "",
          "type": "uint256"
        }
      ],
      "name": "culturalAssets",
      "outputs": [
        {
          "internalType": "string",
          "name": "name",
          "type": "string"
        },
        {
          "internalType": "string",
          "name": "description",
          "type": "string"
        },
        {
          "internalType": "string",
          "name": "culturalOrigin",
          "type": "string"
        },
        {
          "internalType": "string",
          "name": "language",
          "type": "string"
        },
        {
          "internalType": "string",
          "name": "category",
          "type": "string"
        },
        {
          "internalType": "string",
          "name": "artistName",
          "type": "string"
        },
        {
          "internalType": "uint256",
          "name": "creationDate",
          "type": "uint256"
        },
        {
          "internalType": "string",
          "name": "ipfsHash",
          "type": "string"
        },
        {
          "internalType": "bool",
          "name": "verified",
          "type": "bool"
        }
      ],
      "stateMutability": "view",
      "type": "function"
    },
    {
      "inputs": [],
      "name": "emergencyWithdraw",
      "outputs": [],
      "stateMutability": "nonpayable",
      "type": "function"
    },
    {
      "inputs": [
        {
          "internalType": "uint256",
          "name": "tokenId",
          "type": "uint256"
        }
      ],
      "name": "getApproved",
      "outputs": [
        {
          "internalType": "address",
          "name": "",
          "type": "address"
        }
      ],
      "stateMutability": "view",
      "type": "function"
    },
    {
      "inputs": [
        {
          "internalType": "address",
          "name": "artist",
          "type": "address"
        }
      ],
      "name": "getArtistTokens",
      "outputs": [
        {
          "internalType": "uint256[]",
          "name": "",
          "type": "uint256[]"
        }
      ],
      "stateMutability": "view",
      "type": "function"
    },
    {
      "inputs": [
        {
          "internalType": "uint256",
          "name": "tokenId",
          "type": "uint256"
        }
      ],
      "name": "getCulturalAsset",
      "outputs": [
        {
          "components": [
            {
              "internalType": "string",
              "name": "name",
              "type": "string"
            },
            {
              "internalType": "string",
              "name": "description",
              "type": "string"
            },
            {
              "internalType": "string",
              "name": "culturalOrigin",
              "type": "string"
            },
            {
              "internalType": "string",
              "name": "language",
              "type": "string"
            },
            {
              "internalType": "string",
              "name": "category",
              "type": "string"
            },
            {
              "internalType": "string",
              "name": "artistName",
              "type": "string"
            },
            {
              "internalType": "uint256",
              "name": "creationDate",
              "type": "uint256"
            },
            {
              "internalType": "string",
              "name": "ipfsHash",
              "type": "string"
            },
            {
              "internalType": "bool",
              "name": "verified",
              "type": "bool"
            }
          ],
          "internalType": "struct BaseCulturalNFT.CulturalAsset",
          "name": "",
          "type": "tuple"
        }
      ],
      "stateMutability": "view",
      "type": "function"
    },
    {
      "inputs": [
        {
          "internalType": "string",
          "name": "origin",
          "type": "string"
        },
        {
          "internalType": "uint256",
          "name": "startIndex",
          "type": "uint256"
        },
        {
          "internalType": "uint256",
          "name": "limit",
          "type": "uint256"
        }
      ],
      "name": "getTokensByOrigin",
      "outputs": [
        {
          "internalType": "uint256[]",
          "name": "",
          "type": "uint256[]"
        }
      ],
      "stateMutability": "view",
      "type": "function"
    },
    {
      "inputs": [],
      "name": "getVerifiedOrigins",
      "outputs": [
        {
          "internalType": "string[]",
          "name": "",
          "type": "string[]"
        }
      ],
      "stateMutability": "pure",
      "type": "function"
    },
    {
      "inputs": [
        {
          "internalType": "address",
          "name": "owner",
          "type": "address"
        },
        {
          "internalType": "address",
          "name": "operator",
          "type": "address"
        }
      ],
      "name": "isApprovedForAll",
      "outputs": [
        {
          "internalType": "bool",
          "name": "",
          "type": "bool"
        }
      ],
      "stateMutability": "view",
      "type": "function"
    },
    {
      "inputs": [
        {
          "internalType": "address",
          "name": "to",
          "type": "address"
        },
        {
          "internalType": "string",
          "name": "uri",
          "type": "string"
        },
        {
          "components": [
            {
              "internalType": "string",
              "name": "name",
              "type": "string"
            },
            {
              "internalType": "string",
              "name": "description",
              "type": "string"
            },
            {
              "internalType": "string",
              "name": "culturalOrigin",
              "type": "string"
            },
            {
              "internalType": "string",
              "name": "language",
              "type": "string"
            },
            {
              "internalType": "string",
              "name": "category",
              "type": "string"
            },
            {
              "internalType": "string",
              "name": "artistName",
              "type": "string"
            },
            {
              "internalType": "uint256",
              "name": "creationDate",
              "type": "uint256"
            },
            {
              "internalType": "string",
              "name": "ipfsHash",
              "type": "string"
            },
            {
              "internalType": "bool",
              "name": "verified",
              "type": "bool"
            }
          ],
          "internalType": "struct BaseCulturalNFT.CulturalAsset",
          "name": "asset",
          "type": "tuple"
        }
      ],
      "name": "mintCulturalAsset",
      "outputs": [
        {
          "internalType": "uint256",
          "name": "",
          "type": "uint256"
        }
      ],
      "stateMutability": "nonpayable",
      "type": "function"
    },
    {
      "inputs": [],
      "name": "name",
      "outputs": [
        {
          "internalType": "string",
          "name": "",
          "type": "string"
        }
      ],
      "stateMutability": "view",
      "type": "function"
    },
    {
      "inputs": [],
      "name": "nextTokenId",
      "outputs": [
        {
          "internalType": "uint256",
          "name": "",
          "type": "uint256"
        }
      ],
      "stateMutability": "view",
      "type": "function"
    },
    {
      "inputs": [],
      "name": "owner",
      "outputs": [
        {
          "internalType": "address",
          "name": "",
          "type": "address"
        }
      ],
      "stateMutability": "view",
      "type": "function"
    },
    {
      "inputs": [
        {
          "internalType": "uint256",
          "name": "tokenId",
          "type": "uint256"
        }
      ],
      "name": "ownerOf",
      "outputs": [
        {
          "internalType": "address",
          "name": "",
          "type": "address"
        }
      ],
      "stateMutability": "view",
      "type": "function"
    },
    {
      "inputs": [],
      "name": "renounceOwnership",
      "outputs": [],
      "stateMutability": "nonpayable",
      "type": "function"
    },
    {
      "inputs": [
        {
          "internalType": "address",
          "name": "from",
          "type": "address"
        },
        {
          "internalType": "address",
          "name": "to",
          "type": "address"
        },
        {
          "internalType": "uint256",
          "name": "tokenId",
          "type": "uint256"
        }
      ],
      "name": "safeTransferFrom",
      "outputs": [],
      "stateMutability": "nonpayable",
      "type": "function"
    },
    {
      "inputs": [
        {
          "internalType": "address",
          "name": "from",
          "type": "address"
        },
        {
          "internalType": "address",
          "name": "to",
          "type": "address"
        },
        {
          "internalType": "uint256",
          "name": "tokenId",
          "type": "uint256"
        },
        {
          "internalType": "bytes",
          "name": "data",
          "type": "bytes"
        }
      ],
      "name": "safeTransferFrom",
      "outputs": [],
      "stateMutability": "nonpayable",
      "type": "function"
    },
    {
      "inputs": [
        {
          "internalType": "address",
          "name": "operator",
          "type": "address"
        },
        {
          "internalType": "bool",
          "name": "approved",
          "type": "bool"
        }
      ],
      "name": "setApprovalForAll",
      "outputs": [],
      "stateMutability": "nonpayable",
      "type": "function"
    },
    {
      "inputs": [
        {
          "internalType": "bytes4",
          "name": "interfaceId",
          "type": "bytes4"
        }
      ],
      "name": "supportsInterface",
      "outputs": [
        {
          "internalType": "bool",
          "name": "",
          "type": "bool"
        }
      ],
      "stateMutability": "view",
      "type": "function"
    },
    {
      "inputs": [],
      "name": "symbol",
      "outputs": [
        {
          "internalType": "string",
          "name": "",
          "type": "string"
        }
      ],
      "stateMutability": "view",
      "type": "function"
    },
    {
      "inputs": [
        {
          "internalType": "uint256",
          "name": "tokenId",
          "type": "uint256"
        }
      ],
      "name": "tokenURI",
      "outputs": [
        {
          "internalType": "string",
          "name": "",
          "type": "string"
        }
      ],
      "stateMutability": "view",
      "type": "function"
    },
    {
      "inputs": [
        {
          "internalType": "address",
          "name": "from",
          "type": "address"
        },
        {
          "internalType": "address",
          "name": "to",
          "type": "address"
        },
        {
          "internalType": "uint256",
          "name": "tokenId",
          "type": "uint256"
        }
      ],
      "name": "transferFrom",
      "outputs": [],
      "stateMutability": "nonpayable",
      "type": "function"
    },
    {
      "inputs": [
        {
          "internalType": "address",
          "name": "newOwner",
          "type": "address"
        }
      ],
      "name": "transferOwnership",
      "outputs": [],
      "stateMutability": "nonpayable",
      "type": "function"
    },
    {
      "inputs": [
        {
          "internalType": "string",
          "name": "",
          "type": "string"
        }
      ],
      "name": "verifiedOrigins",
      "outputs": [
        {
          "internalType": "bool",
          "name": "",
          "type": "bool"
        }
      ],
      "stateMutability": "view",
      "type": "function"
    },
    {
      "inputs": [
        {
          "internalType": "string",
          "name": "origin",
          "type": "string"
        }
      ],
      "name": "verifyOrigin",
      "outputs": [],
      "stateMutability": "nonpayable",
      "type": "function"
    }
  ],
  "bytecode": "0x60803462000392576001600160401b0390604090808201838111828210176200037c578252601681526020917f426173652043756c747572616c2048657269746167650000000000000000000083830152805193818501858110828211176200037c578252600385526208486960eb1b8486015282518181116200037c576000948554916001958684811c9416801562000371575b838510146200035d578190601f948581116200030a575b508390858311600114620002a65789926200029a575b5050600019600383901b1c191690861b1786555b8651928311620002865784548581811c911680156200027b575b8282101462000267578281116200021f575b5080918311600114620001b6575084958293949592620001aa575b5050600019600383901b1c191690831b1782555b3315620001935760078054336001600160a01b03198216811790925591519390916001600160a01b0316907f8be0079c531659141344cd1fd0a4f28419497f9722a3daafe3b4186f6b6457e09080a380600855600c55612bd49081620003988239f35b51631e4fbdf760e01b815260048101839052602490fd5b0151905038806200011c565b90601f198316968587528287209287905b898210620002075750508386979896959610620001ed575b505050811b01825562000130565b015160001960f88460031b161c19169055388080620001df565b808885968294968601518155019501930190620001c7565b8587528187208380860160051c8201928487106200025d575b0160051c019086905b8281106200025157505062000101565b88815501869062000241565b9250819262000238565b634e487b7160e01b87526022600452602487fd5b90607f1690620000ef565b634e487b7160e01b86526041600452602486fd5b015190503880620000c1565b898052848a208994509190601f1984168b5b87828210620002f35750508411620002d9575b505050811b018655620000d5565b015160001960f88460031b161c19169055388080620002cb565b8385015186558c97909501949384019301620002b8565b9091508880528389208580850160051c82019286861062000353575b918a91869594930160051c01915b82811062000344575050620000ab565b8b81558594508a910162000334565b9250819262000326565b634e487b7160e01b88526022600452602488fd5b93607f169362000094565b634e487b7160e01b600052604160045260246000fd5b600080fdfe608080604052600436101561001357600080fd5b60003560e01c90816301ffc9a7146120e35750806306fdde0314612038578063081812fc14611ffa578063095ea7b314611f1357806323a3652014611ef457806323b872dd14611edd57806329bfebee14611c5257806342842e0e14611c2a57806355ae23c314611b145780635780a6fe14611a825780636352211e14611a5257806370a08231146119f9578063715018a61461199c57806375794a3c1461197e57806389f8df3b146118ae5780638da5cb5b1461188557806392a05fe71461182d57806395d89b411461174a578063a22cb4651461169c578063a33a32e114610f40578063a81152f714610f24578063b2c03a8814610d9e578063b88d4fde14610d3d578063c87b56dd14610cd3578063cc0ad6e714610c4c578063ce0a03d91461039b578063db2e21bc146102eb578063e3590111146102cf578063e985e9c514610279578063f2fde38b146101eb5763f7626f8c1461017457600080fd5b346101e65760203660031901126101e6576004356001600160401b0381116101e657366023820112156101e65760ff6101d060206101bd81943690602481600401359101612406565b8160405193828580945193849201612168565b8101600b81520301902054166040519015158152f35b600080fd5b346101e65760203660031901126101e6576102046121b0565b61020c61293e565b6001600160a01b0390811690811561026057600754826bffffffffffffffffffffffff60a01b821617600755167f8be0079c531659141344cd1fd0a4f28419497f9722a3daafe3b4186f6b6457e0600080a3005b604051631e4fbdf760e01b815260006004820152602490fd5b346101e65760403660031901126101e6576102926121b0565b61029a6121c6565b9060018060a01b03809116600052600560205260406000209116600052602052602060ff604060002054166040519015158152f35b346101e65760003660031901126101e657602060405160028152f35b346101e65760003660031901126101e65761030461293e565b478015610369576007546000918291829182916001600160a01b03165af161032a6128d3565b501561033257005b60405162461bcd60e51b815260206004820152600f60248201526e15da5d1a191c985dc819985a5b1959608a1b6044820152606490fd5b60405162461bcd60e51b815260206004820152600a6024820152694e6f2062616c616e636560b01b6044820152606490fd5b346101e65760603660031901126101e6576103b46121b0565b6024356001600160401b0381116101e6576103d390369060040161243d565b916044356001600160401b0381116101e6576103f390369060040161243d565b9390926103fe61296a565b848203610c0e57600a8211610bd7578115610ba45761041c82612623565b9360005b8381106104805760405161047c9087906001600160a01b038816907fab4110ed53e0450ea143419c3dbe294de03bc6ece86958957833037a272a52bd9080610468858261223e565b0390a260016008556040519182918261223e565b0390f35b600c9081549161048f83612655565b905561049b828761298d565b6104bd6104b76104b08360051b8701876126c3565b3691612406565b83612a6a565b6104c88189856128b0565b918060005260096020526040600020906104e284806126c3565b906001600160401b0382116108fb57610505826104ff86546122a8565b866126f5565b600090601f8311600114610b3d57610536929160009183610882575b50508160011b916000199060031b1c19161790565b82555b61054660208501856126c3565b906001600160401b0382116108fb5761056f8261056660018701546122a8565b600187016126f5565b600090601f8311600114610acc5761059f9291600091836108825750508160011b916000199060031b1c19161790565b60018301555b6105b260408501856126c3565b906001600160401b0382116108fb576105db826105d260028701546122a8565b600287016126f5565b600090601f8311600114610a5b5761060b9291600091836108825750508160011b916000199060031b1c19161790565b60028301555b61061e60608501856126c3565b906001600160401b0382116108fb576106478261063e60038701546122a8565b600387016126f5565b600090601f83116001146109ed576106779291600091836108825750508160011b916000199060031b1c19161790565b60038301555b61068a60808501856126c3565b906001600160401b0382116108fb576106b3826106aa60048701546122a8565b600487016126f5565b600090601f831160011461097f576106e39291600091836108825750508160011b916000199060031b1c19161790565b60048301555b6106f660a08501856126c3565b906001600160401b0382116108fb5761071f8261071660058701546122a8565b600587016126f5565b600090601f83116001146109115761074f9291600091836108825750508160011b916000199060031b1c19161790565b60058301555b60c0840135600683015561076c60e08501856126c3565b906001600160401b0382116108fb576107958261078c60078701546122a8565b600787016126f5565b600090601f831160011461088d576107c59291600091836108825750508160011b916000199060031b1c19161790565b60078301555b61010084013580151590036101e6576107fe610879926008610100600197013591019060ff801983541691151516179055565b838060a01b038816600052600a60205261081c81604060002061274b565b80610827848b612687565b527f0a8e46386fb4d39ccebf9337c7cc481d20af6f12695336a22e03ea81247d1bc9610861610857858d896128b0565b60408101906126c3565b604094919451918291888060a01b038d16968361269b565b0390a301610420565b013590508d80610521565b601f198316916007860160005260206000209260005b8181106108e357509084600195949392106108c9575b505050811b0160078301556107cb565b0135600019600384901b60f8161c191690558c80806108b9565b919360206001819287870135815501950192016108a3565b634e487b7160e01b600052604160045260246000fd5b601f198316916005860160005260206000209260005b818110610967575090846001959493921061094d575b505050811b016005830155610755565b0135600019600384901b60f8161c191690558c808061093d565b91936020600181928787013581550195019201610927565b601f198316916004860160005260206000209260005b8181106109d557509084600195949392106109bb575b505050811b0160048301556106e9565b0135600019600384901b60f8161c191690558c80806109ab565b91936020600181928787013581550195019201610995565b601f198316916003860160005260206000209260005b818110610a435750908460019594939210610a29575b505050811b01600383015561067d565b0135600019600384901b60f8161c191690558c8080610a19565b91936020600181928787013581550195019201610a03565b600285939293016000526020600020906000935b601f1984168510610ab4576001945083601f19811610610a9a575b505050811b016002830155610611565b0135600019600384901b60f8161c191690558c8080610a8a565b81810135835560209485019460019093019201610a6f565b600185939293016000526020600020906000935b601f1984168510610b25576001945083601f19811610610b0b575b505050811b0160018301556105a5565b0135600019600384901b60f8161c191690558c8080610afb565b81810135835560209485019460019093019201610ae0565b601f19831691856000528360206000209360005b818110610b89575010610b6f575b505050600190811b018255610539565b0135600019600384901b60f8161c191690558b8080610b5f565b84840135865560019095019460209384019387935001610b51565b60405162461bcd60e51b815260206004820152600b60248201526a08adae0e8f240c4c2e8c6d60ab1b6044820152606490fd5b60405162461bcd60e51b815260206004820152600f60248201526e426174636820746f6f206c6172676560881b6044820152606490fd5b60405162461bcd60e51b8152602060048201526016602482015275082e4e4c2f2e640d8cadccee8d040dad2e6dac2e8c6d60531b6044820152606490fd5b346101e6576020806003193601126101e6576001600160a01b03610c6e6121b0565b16600052600a6020526040600020906040519081602084549182815201936000526020600020916000905b828210610cbc5761047c85610cb0818903826123ca565b6040519182918261223e565b835486529485019460019384019390910190610c99565b346101e65760203660031901126101e657600435610cf081612903565b50600052600660205261047c610d13610d1a6040600020604051928380926122e2565b03826123ca565b6000604051610d2881612394565b5260405191829160208352602083019061218b565b346101e65760803660031901126101e657610d566121b0565b610d5e6121c6565b606435916001600160401b0383116101e657366023840112156101e657610d92610d9c933690602481600401359101612406565b9160443591612785565b005b346101e65760203660031901126101e6576004356000526009602052604060002060405180610dcd81846122e2565b03610dd890826123ca565b6040519182610dea81600184016122e2565b03610df590846123ca565b6040519081610e0781600284016122e2565b03610e1290836123ca565b60405180610e2381600385016122e2565b03610e2e90826123ca565b60405180610e3f81600486016122e2565b03610e4a90826123ca565b6040519081610e5c81600587016122e2565b03610e6790836123ca565b6006840154926040519485806007830190610e81916122e2565b03610e8c90876123ca565b6008015460ff1695604051988998610120808b528a01610eab9161218b565b89810360208b0152610ebc9161218b565b88810360408a0152610ecd9161218b565b8781036060890152610ede9161218b565b8681036080880152610eef9161218b565b85810360a0870152610f009161218b565b9060c085015283810360e0850152610f179161218b565b9015156101008301520390f35b346101e65760003660031901126101e6576020604051600a8152f35b346101e6576003196060368201126101e657610f5a6121b0565b906024356001600160401b0381116101e657610f7a903690600401612211565b916001600160401b03604435116101e65761012090604435360301126101e657610fc3610fc991610fa961296a565b600c5493610fb685612655565b600c556104b0858761298d565b82612a6a565b600081815260096020526040902090610fe7600460443501806126c3565b6001600160401b0381959295116108fb57611006816104ff86546122a8565b6000601f8211600114611635578190611038939495966000926113fe5750508160011b916000199060031b1c19161790565b83555b600183016110536024604435016044356004016126c3565b906001600160401b0382116108fb576110768261107085546122a8565b856126f5565b600090601f83116001146115cd576110a692916000918361138b5750508160011b916000199060031b1c19161790565b90555b6110bc60448035016044356004016126c3565b906001600160401b0382116108fb576110e5826110dc60028801546122a8565b600288016126f5565b600090601f831160011461155c576111159291600091836113fe5750508160011b916000199060031b1c19161790565b60028401555b61112f6064604435016044356004016126c3565b906001600160401b0382116108fb576111588261114f60038801546122a8565b600388016126f5565b600090601f83116001146114eb576111889291600091836113fe5750508160011b916000199060031b1c19161790565b60038401555b6111a26084604435016044356004016126c3565b906001600160401b0382116108fb576111cb826111c260048801546122a8565b600488016126f5565b600090601f831160011461147a576111fb9291600091836113fe5750508160011b916000199060031b1c19161790565b60048401555b61121560a4604435016044356004016126c3565b906001600160401b0382116108fb5761123e8261123560058801546122a8565b600588016126f5565b600090601f83116001146114095761126e9291600091836113fe5750508160011b916000199060031b1c19161790565b60058401555b60c4604435013560068401556007830161129860e4604435016044356004016126c3565b906001600160401b0382116108fb576112b58261107085546122a8565b600090601f8311600114611396576112e592916000918361138b5750508160011b916000199060031b1c19161790565b90555b61010460443501359283151584036101e657602093600861131592019060ff801983541691151516179055565b6001600160a01b03166000818152600a84526040902061133690839061274b565b817f0a8e46386fb4d39ccebf9337c7cc481d20af6f12695336a22e03ea81247d1bc961136b60448035016044356004016126c3565b9061137b6040519283928361269b565b0390a36001600855604051908152f35b013590508780610521565b601f198316918460005260206000209260005b8181106113e657509084600195949392106113cc575b505050811b0190556112e8565b0135600019600384901b60f8161c191690558680806113bf565b919360206001819287870135815501950192016113a9565b013590508680610521565b600586939293016000526020600020906000935b601f1984168510611462576001945083601f19811610611448575b505050811b016005840155611274565b0135600019600384901b60f8161c19169055858080611438565b8181013583556020948501946001909301920161141d565b600486939293016000526020600020906000935b601f19841685106114d3576001945083601f198116106114b9575b505050811b016004840155611201565b0135600019600384901b60f8161c191690558580806114a9565b8181013583556020948501946001909301920161148e565b600386939293016000526020600020906000935b601f1984168510611544576001945083601f1981161061152a575b505050811b01600384015561118e565b0135600019600384901b60f8161c1916905585808061151a565b818101358355602094850194600190930192016114ff565b600286939293016000526020600020906000935b601f19841685106115b5576001945083601f1981161061159b575b505050811b01600284015561111b565b0135600019600384901b60f8161c1916905585808061158b565b81810135835560209485019460019093019201611570565b601f198316918460005260206000209260005b81811061161d5750908460019594939210611603575b505050811b0190556110a9565b0135600019600384901b60f8161c191690558680806115f6565b919360206001819287870135815501950192016115e0565b601f198216958560005260206000209160005b8881106116845750836001959697981061166a575b505050811b01835561103b565b0135600019600384901b60f8161c1916905585808061165d565b90926020600181928686013581550194019101611648565b346101e65760403660031901126101e6576116b56121b0565b60243590811515908183036101e6576001600160a01b0316918215611731576117039033600052600560205260406000208460005260205260406000209060ff801983541691151516179055565b6040519081527f17307eab39ab6107e8899845ad3d59bd9653f200f220920489ca2b5937696c3160203392a3005b604051630b61174360e31b815260048101849052602490fd5b346101e65760003660031901126101e657604051600060018260015492611770846122a8565b928383526020948560018216918260001461180d5750506001146117b0575b5061179c925003836123ca565b61047c60405192828493845283019061218b565b84915060016000527fb10e2d527612073b26eecdfd717e6a320cf44b4afac2b0732d9fcbe2b7fa0cf6906000915b8583106117f557505061179c93508201018561178f565b805483890185015287945086939092019181016117de565b60ff19168582015261179c95151560051b850101925087915061178f9050565b346101e65760403660031901126101e6576118466121b0565b6001600160a01b03166000908152600a60205260409020805460243591908210156101e6576020916118779161227a565b90546040519160031b1c8152f35b346101e65760003660031901126101e6576007546040516001600160a01b039091168152602090f35b346101e65760003660031901126101e6576040516118cb816123af565b600180825260209060005b82811061196f57506040516118ea816123af565b6006815265596f7275626160d01b838201526119058461267a565b5261190f8361267a565b5060405191808301818452845180915260408401918060408360051b8701019601926000905b8382106119425786880387f35b9091929394838061195e839a603f198b8203018652895161218b565b999701959493919091019101611935565b606084820184015282016118d6565b346101e65760003660031901126101e6576020600c54604051908152f35b346101e65760003660031901126101e6576119b561293e565b600780546001600160a01b031981169091556000906001600160a01b03167f8be0079c531659141344cd1fd0a4f28419497f9722a3daafe3b4186f6b6457e08280a3005b346101e65760203660031901126101e6576001600160a01b03611a1a6121b0565b168015611a395760005260036020526020604060002054604051908152f35b6040516322718ad960e21b815260006004820152602490fd5b346101e65760203660031901126101e6576020611a70600435612903565b6040516001600160a01b039091168152f35b346101e65760203660031901126101e6576004356001600160401b0381116101e6577fae1459e792d1b0fefb7436f165bee9c8e3c162933836b5f09e86c0f0a7f6ab49611ad6611b0f923690600401612211565b611ae193919361293e565b60405181858237602081838101600b815203019020600160ff1982541617905560405191829133958361269b565b0390a2005b346101e65760603660031901126101e6576004356001600160401b0381116101e657611b44903690600401612211565b9060443590611b5282612623565b9060009060243593600c54945b85811080611c21575b15611bdd5780600052602060098152610d13611b916002604060002001604051928380926122e2565b81815191012090611ba3368a87612406565b805191012014611bbc575b611bb790612655565b611b5f565b92611bd58185611bcf611bb79489612687565b52612655565b939050611bae565b505050611be981612623565b9160005b828110611c02576040518061047c868261223e565b80611c0f60019284612687565b51611c1a8287612687565b5201611bed565b50818410611b68565b346101e657610d9c611c3b366121dc565b9060405192611c4984612394565b60008452612785565b346101e6576020806003193601126101e65760405190600435611c7483612378565b606090818452818385015281604085015281808501528160808501528160a0850152600060c08501528160e085015260006101008095015260018060a01b03611cbc82612903565b1615611ea1576000526009825260406000209160405192611cdc84612378565b60405180611cea81846122e2565b03611cf590826123ca565b84526040519081611d0981600184016122e2565b03611d1490836123ca565b8483019182526040519586611d2c81600285016122e2565b03611d3790886123ca565b6040868101978852519182611d4f81600384016122e2565b03611d5a90846123ca565b86860192835260405180611d7181600485016122e2565b03611d7c90826123ca565b608088019081526040519081611d9581600586016122e2565b03611da090836123ca565b60a0890191825260068301549460c08a019586526040519384806007830190611dc8916122e2565b03611dd390866123ca565b60e08b019485526008015460ff1698858b019915158a526040519b8c9b8a8d52518c6101209b8c9101526101408d01611e0b9161218b565b9851601f198d8b03810160408f015299611e249161218b565b905191898d830301908d0152611e399161218b565b905190878b82030160808c0152611e4f9161218b565b905190868a82030160a08b0152611e659161218b565b905190858982030160c08a0152611e7b9161218b565b925160e088015251928683030190860152611e959161218b565b91511515908301520390f35b60405162461bcd60e51b8152600481018490526014602482015273151bdad95b88191bd95cc81b9bdd08195e1a5cdd60621b6044820152606490fd5b346101e657610d9c611eee366121dc565b9161246d565b346101e65760003660031901126101e6576020604051633b9aca008152f35b346101e65760403660031901126101e657611f2c6121b0565b602435611f3881612903565b33151580611fe7575b80611fba575b611fa2576001600160a01b039283169282918491167f8c5be1e5ebec7d5bd14f71427d1e84f3dd0314c0f7b2291e5b200ac8c7c3b925600080a4600090815260046020526040902080546001600160a01b0319169091179055005b60405163a9fbf51f60e01b8152336004820152602490fd5b5060018060a01b038116600052600560205260406000203360005260205260ff6040600020541615611f47565b506001600160a01b038116331415611f41565b346101e65760203660031901126101e65760043561201781612903565b506000526004602052602060018060a01b0360406000205416604051908152f35b346101e65760003660031901126101e65760405160008054908261205b836122a8565b918282526020936001908560018216918260001461180d575050600114612089575061179c925003836123ca565b6000808052859250907f290decd9548b62a8d60345a988386fc84ba6bc95484008f6362f93160ef3e5635b8583106120cb57505061179c93508201018561178f565b805483890185015287945086939092019181016120b4565b346101e65760203660031901126101e6576004359063ffffffff60e01b82168092036101e657602091632483248360e11b8114908115612125575b5015158152f35b6380ac58cd60e01b811491508115612157575b8115612146575b508361211e565b6301ffc9a760e01b1490508361213f565b635b5e139f60e01b81149150612138565b60005b83811061217b5750506000910152565b818101518382015260200161216b565b906020916121a481518092818552858086019101612168565b601f01601f1916010190565b600435906001600160a01b03821682036101e657565b602435906001600160a01b03821682036101e657565b60609060031901126101e6576001600160a01b039060043582811681036101e6579160243590811681036101e6579060443590565b9181601f840112156101e6578235916001600160401b0383116101e657602083818601950101116101e657565b602090602060408183019282815285518094520193019160005b828110612266575050505090565b835185529381019392810192600101612258565b80548210156122925760005260206000200190600090565b634e487b7160e01b600052603260045260246000fd5b90600182811c921680156122d8575b60208310146122c257565b634e487b7160e01b600052602260045260246000fd5b91607f16916122b7565b8054600093926122f1826122a8565b918282526020936001916001811690816000146123595750600114612318575b5050505050565b90939495506000929192528360002092846000945b83861061234557505050500101903880808080612311565b80548587018301529401938590820161232d565b60ff19168685015250505090151560051b010191503880808080612311565b61012081019081106001600160401b038211176108fb57604052565b602081019081106001600160401b038211176108fb57604052565b604081019081106001600160401b038211176108fb57604052565b90601f801991011681019081106001600160401b038211176108fb57604052565b6001600160401b0381116108fb57601f01601f191660200190565b929192612412826123eb565b9161242060405193846123ca565b8294818452818301116101e6578281602093846000960137010152565b9181601f840112156101e6578235916001600160401b0383116101e6576020808501948460051b0101116101e657565b6001600160a01b0391821692909183156125f35760009282845282602095600287526040968488882054169687913315158061255d575b509060027fddf252ad1be2c89b69c2b068fc378daa952ba7f163c4a11628f55a4df523b3ef928461252a575b858352600381528b8320805460010190558683525289812080546001600160a01b0319168517905580a416928383036125095750505050565b6064945051926364283d7b60e01b8452600484015260248301526044820152fd5b600087815260046020526040902080546001600160a01b0319169055848352600381528b832080546000190190556124d0565b919394509150806125b2575b15612579578592918791386124a4565b878688612596576024915190637e27328960e01b82526004820152fd5b604491519063177e802f60e01b82523360048301526024820152fd5b5033871480156125d7575b806125695750858252600481523385898420541614612569565b5086825260058152878220338352815260ff88832054166125bd565b604051633250574960e11b815260006004820152602490fd5b6001600160401b0381116108fb5760051b60200190565b9061262d8261260c565b61263a60405191826123ca565b828152809261264b601f199161260c565b0190602036910137565b60001981146126645760010190565b634e487b7160e01b600052601160045260246000fd5b8051156122925760200190565b80518210156122925760209160051b010190565b90918060409360208452816020850152848401376000828201840152601f01601f1916010190565b903590601e19813603018212156101e657018035906001600160401b0382116101e6576020019181360383136101e657565b90601f811161270357505050565b6000916000526020600020906020601f850160051c83019410612741575b601f0160051c01915b82811061273657505050565b81815560010161272a565b9092508290612721565b8054680100000000000000008110156108fb5761276d9160018201815561227a565b819291549060031b91821b91600019901b1916179055565b919061279282828561246d565b803b61279f575b50505050565b6127e160018060a01b0380921694604051938493630a85bd0160e11b96878652336004870152166024850152604484015260806064840152608483019061218b565b03906020816000938185885af190829082612860575b505061282f57826128066128d3565b805191908261282857604051633250574960e11b815260048101839052602490fd5b6020915001fd5b6001600160e01b03191603612848575038808080612799565b60249060405190633250574960e11b82526004820152fd5b909192506020813d6020116128a8575b8161287d602093836123ca565b810103126128a45751906001600160e01b0319821682036128a157509038806127f7565b80fd5b5080fd5b3d9150612870565b91908110156122925760051b8101359061011e19813603018212156101e6570190565b3d156128fe573d906128e4826123eb565b916128f260405193846123ca565b82523d6000602084013e565b606090565b6000818152600260205260409020546001600160a01b0316908115612926575090565b60249060405190637e27328960e01b82526004820152fd5b6007546001600160a01b0316330361295257565b60405163118cdaa760e01b8152336004820152602490fd5b60026008541461297b576002600855565b604051633ee5aeb560e01b8152600490fd5b6001600160a01b03919082169081156125f3576000928184526002602052604084205416918215159283612a35575b81855260036020526040852060018154019055828552600260205260408520826bffffffffffffffffffffffff60a01b8254161790557fddf252ad1be2c89b69c2b068fc378daa952ba7f163c4a11628f55a4df523b3ef8580a4612a1d5750565b602490604051906339e3563760e11b82526004820152fd5b600083815260046020526040902080546001600160a01b031916905580855260036020526040852080546000190190556129bc565b9190916000908082526020916006835260408120908551956001600160401b038711612b8a57612a9e8761107085546122a8565b8491601f8811600114612b065796612aef9281927ff8e1a15aba9398e019f0b49df1a4fde98ee17ae345cb5f6b5e2c27f5033e8ce7989992612afb5750508160011b916000199060031b1c19161790565b90555b604051908152a1565b015190503880610521565b9190601f198816848452868420935b818110612b7357509160019391897ff8e1a15aba9398e019f0b49df1a4fde98ee17ae345cb5f6b5e2c27f5033e8ce7999a9410612b5a575b505050811b019055612af2565b015160001960f88460031b161c19169055388080612b4d565b929387600181928786015181550195019301612b15565b634e487b7160e01b82526041600452602482fdfea264697066735822122049b17964aaf375c96e5fc4f0f0c7eb7f3117bf17418a139d6e97c5e97660098d64736f6c63430008180033",
  "linkReferences": {},
  "deployedLinkReferences": {}
}