{
  "_format": "hh-sol-artifact-1",
  "contractName": "RoyaltySplitter",
  "sourceName": "contracts/RoyaltySplitter.sol",
  "abi": [
    {
      "inputs": [
        {
          "internalType": "address",
          "name": "_artist",
          "type": "address"
        },
        {
          "internalType": "address",
          "name": "_treasury",
          "type": "address"
        },
        {
          "internalType": "uint256",
          "name": "_artistShare",
          "type": "uint256"
        },
        {
          "internalType": "uint256",
          "name": "_treasuryShare",
          "type": "uint256"
        }
      ],
      "stateMutability": "nonpayable",
      "type": "constructor"
    },
    {
      "inputs": [
        {
          "internalType": "address",
          "name": "owner",
          "type": "address"
        }
      ],
      "name": "OwnableInvalidOwner",
      "type": "error"
    },
    {
      "inputs": [
        {
          "internalType": "address",
          "name": "account",
          "type": "address"
        }
      ],
      "name": "OwnableUnauthorizedAccount",
      "type": "error"
    },
    {
      "inputs": [],
      "name": "ReentrancyGuardReentrantCall",
      "type": "error"
    },
    {
      "anonymous": false,
      "inputs": [
        {
          "indexed": true,
          "internalType": "address",
          "name": "previousOwner",
          "type": "address"
        },
        {
          "indexed": true,
          "internalType": "address",
          "name": "newOwner",
          "type": "address"
        }
      ],
      "name": "OwnershipTransferred",
      "type": "event"
    },
    {
      "anonymous": false,
      "inputs": [
        {
          "indexed": true,
          "internalType": "address",
          "name": "token",
          "type": "address"
        },
        {
          "indexed": false,
          "internalType": "uint256",
          "name": "artistAmount",
          "type": "uint256"
        },
        {
          "indexed": false,
          "internalType": "uint256",
          "name": "treasuryAmount",
          "type": "uint256"
        }
      ],
      "name": "RoyaltyDistributed",
      "type": "event"
    },
    {
      "anonymous": false,
      "inputs": [
        {
          "indexed": true,
          "internalType": "address",
          "name": "token",
          "type": "address"
        },
        {
          "indexed": false,
          "internalType": "uint256",
          "name": "amount",
          "type": "uint256"
        }
      ],
      "name": "RoyaltyReceived",
      "type": "event"
    },
    {
      "inputs": [],
      "name": "artist",
      "outputs": [
        {
          "internalType": "address",
          "name": "",
          "type": "address"
        }
      ],
      "stateMutability": "view",
      "type": "function"
    },
    {
      "inputs": [],
      "name": "artistShare",
      "outputs": [
        {
          "internalType": "uint256",
          "name": "",
          "type": "uint256"
        }
      ],
      "stateMutability": "view",
      "type": "function"
    },
    {
      "inputs": [
        {
          "internalType": "address",
          "name": "token",
          "type": "address"
        },
        {
          "internalType": "uint256",
          "name": "amount",
          "type": "uint256"
        }
      ],
      "name": "distributeRoyalty",
      "outputs": [],
      "stateMutability": "nonpayable",
      "type": "function"
    },
    {
      "inputs": [
        {
          "internalType": "address",
          "name": "token",
          "type": "address"
        },
        {
          "internalType": "uint256",
          "name": "amount",
          "type": "uint256"
        }
      ],
      "name": "emergencyWithdraw",
      "outputs": [],
      "stateMutability": "nonpayable",
      "type": "function"
    },
    {
      "inputs": [
        {
          "internalType": "address",
          "name": "token",
          "type": "address"
        }
      ],
      "name": "getBalance",
      "outputs": [
        {
          "internalType": "uint256",
          "name": "",
          "type": "uint256"
        }
      ],
      "stateMutability": "view",
      "type": "function"
    },
    {
      "inputs": [],
      "name": "owner",
      "outputs": [
        {
          "internalType": "address",
          "name": "",
          "type": "address"
        }
      ],
      "stateMutability": "view",
      "type": "function"
    },
    {
      "inputs": [],
      "name": "renounceOwnership",
      "outputs": [],
      "stateMutability": "nonpayable",
      "type": "function"
    },
    {
      "inputs": [
        {
          "internalType": "address",
          "name": "newOwner",
          "type": "address"
        }
      ],
      "name": "transferOwnership",
      "outputs": [],
      "stateMutability": "nonpayable",
      "type": "function"
    },
    {
      "inputs": [],
      "name": "treasury",
      "outputs": [
        {
          "internalType": "address",
          "name": "",
          "type": "address"
        }
      ],
      "stateMutability": "view",
      "type": "function"
    },
    {
      "inputs": [],
      "name": "treasuryShare",
      "outputs": [
        {
          "internalType": "uint256",
          "name": "",
          "type": "uint256"
        }
      ],
      "stateMutability": "view",
      "type": "function"
    },
    {
      "stateMutability": "payable",
      "type": "receive"
    }
  ],
  "bytecode": "0x6101003461024e57601f610fd038819003918201601f191683019291906001600160401b0384118385101761025357816080928492604096875283398101031261024e5761004c81610269565b9061005960208201610269565b6060848301519201519233156102365760008054336001600160a01b031982168117835587516001600160a01b039290919083167f8be0079c531659141344cd1fd0a4f28419497f9722a3daafe3b4186f6b6457e08580a360018055818416156101f457508316156101b0578484019081851161019c5750612710036101585760805260a05260c05260e05251610d52908161027e823960805181818160bf01528181610373015281816104ab0152610ad7015260a05181818160f8015281816103ab0152818161050d0152610a94015260c0518181816031015281816102e701526107cd015260e051818181605d0152818161031301526109ff0152f35b845162461bcd60e51b815260206004820152601660248201527f536861726573206d75737420746f74616c2031303025000000000000000000006044820152606490fd5b634e487b7160e01b81526011600452602490fd5b855162461bcd60e51b815260206004820152601860248201527f496e76616c6964207472656173757279206164647265737300000000000000006044820152606490fd5b62461bcd60e51b815260206004820152601660248201527f496e76616c6964206172746973742061646472657373000000000000000000006044820152606490fd5b8451631e4fbdf760e01b815260006004820152602490fd5b600080fd5b634e487b7160e01b600052604160045260246000fd5b51906001600160a01b038216820361024e5756fe60806040818152600491823610156101df575b50361561001e57600080fd5b3461002557005b602090612710806100567f000000000000000000000000000000000000000000000000000000000000000034610cf3565b04906100827f000000000000000000000000000000000000000000000000000000000000000034610cf3565b049382513481527f4ff46f6561222e338e3436a4733409edf93a9684e598325b6caa7316b100254d6000958692a26001600160a01b0384808080867f000000000000000000000000000000000000000000000000000000000000000086165af16100ea610c09565b501561019c578480808881947f0000000000000000000000000000000000000000000000000000000000000000165af1610122610c09565b501561015957507f0192fdbca2917dcdd44e35057aba6bf692a2c11f972d992b0d85f9c5a584b41f929382519182526020820152a2005b606490602084519162461bcd60e51b8352820152601c60248201527f547265617375727920455448207472616e73666572206661696c6564000000006044820152fd5b835162461bcd60e51b8152602081840152601a60248201527f41727469737420455448207472616e73666572206661696c65640000000000006044820152606490fd5b600090813560e01c90816343bc161214610ac35750806361d027b314610a7f578063715018a614610a225780637796ff37146109e75780638da5cb5b146109bf57806395ccea67146107f0578063cf933f86146107b5578063f2fde38b1461072a578063f485f79b146102865763f8b2cb4f036100125790346102825760203660031901126102825760209061027b610276610b06565b610c49565b9051908152f35b5080fd5b5082346102825782600319360112610282576102a0610b06565b9260249384359260026001541461071c57600260015583156106da576001600160a01b03918216938415918215610667576102dd82471015610bbd565b612710938461030c7f000000000000000000000000000000000000000000000000000000000000000085610cf3565b04946103387f000000000000000000000000000000000000000000000000000000000000000085610cf3565b04938651938452877f4ff46f6561222e338e3436a4733409edf93a9684e598325b6caa7316b100254d60208096a215610493578780808088857f0000000000000000000000000000000000000000000000000000000000000000165af161039d610c09565b5015610452578780808681947f0000000000000000000000000000000000000000000000000000000000000000165af16103d5610c09565b501561041257507f0192fdbca2917dcdd44e35057aba6bf692a2c11f972d992b0d85f9c5a584b41f949596505b8351928352820152a26001805580f35b601c8860649387519362461bcd60e51b85528401528201527f547265617375727920455448207472616e73666572206661696c6564000000006044820152fd5b50601a8860649387519362461bcd60e51b85528401528201527f41727469737420455448207472616e73666572206661696c65640000000000006044820152fd5b50845163a9059cbb60e01b8082526001600160a01b037f0000000000000000000000000000000000000000000000000000000000000000168383019081526020810187905290919084908290819060400103818c8c5af190811561065d578991610640575b50156105ff5785519081526001600160a01b037f0000000000000000000000000000000000000000000000000000000000000000168282019081526020810185905283908290819060400103818b8b5af19081156105f55788916105c8575b501561058857507f0192fdbca2917dcdd44e35057aba6bf692a2c11f972d992b0d85f9c5a584b41f94959650610402565b601e8860649387519362461bcd60e51b85528401528201527f547265617375727920746f6b656e207472616e73666572206661696c656400006044820152fd5b6105e89150833d85116105ee575b6105e08183610b21565b810190610ba5565b89610557565b503d6105d6565b86513d8a823e3d90fd5b50601c8860649387519362461bcd60e51b85528401528201527f41727469737420746f6b656e207472616e73666572206661696c6564000000006044820152fd5b6106579150843d86116105ee576105e08183610b21565b8a6104f8565b87513d8b823e3d90fd5b84516370a0823160e01b815230828201526020818a818a5afa80156105f557839089906106a0575b61069b92501015610b59565b6102dd565b50506020813d6020116106d2575b816106bb60209383610b21565b810103126106ce578261069b915161068f565b8780fd5b3d91506106ae565b606490601d87602086519362461bcd60e51b85528401528201527f416d6f756e74206d7573742062652067726561746572207468616e20300000006044820152fd5b8251633ee5aeb560e01b8152fd5b5091346107b15760203660031901126107b157610745610b06565b9061074e610cc7565b6001600160a01b0391821692831561079b57505082546001600160a01b0319811683178455167f8be0079c531659141344cd1fd0a4f28419497f9722a3daafe3b4186f6b6457e08380a380f35b51631e4fbdf760e01b8152908101849052602490fd5b8280fd5b509034610282578160031936011261028257602090517f00000000000000000000000000000000000000000000000000000000000000008152f35b509190346107b157806003193601126107b1578261080c610b06565b60243590610818610cc7565b6001600160a01b039081168061088c5750828281939261083b8394471015610bbd565b8254165af1610848610c09565b501561085357505080f35b906020606492519162461bcd60e51b83528201526013602482015272115512081d1c985b9cd9995c8819985a5b1959606a1b6044820152fd5b84516370a0823160e01b8152308782015260209594509192918581602481855afa9081156109b55790869392918991610982575b50936108d183610904961015610b59565b88541688865180968195829463a9059cbb60e01b84528c840160209093929193604081019460018060a01b031681520152565b03925af190811561097857859161095b575b50156109225750505080f35b5162461bcd60e51b8152918201526015602482015274151bdad95b881d1c985b9cd9995c8819985a5b1959605a1b604482015260649150fd5b6109729150833d85116105ee576105e08183610b21565b38610916565b82513d87823e3d90fd5b84819592503d83116109ae575b6109998183610b21565b810103126106ce5791518592906108d16108c0565b503d61098f565b85513d8a823e3d90fd5b509034610282578160031936011261028257905490516001600160a01b039091168152602090f35b509034610282578160031936011261028257602090517f00000000000000000000000000000000000000000000000000000000000000008152f35b5034610a7c5780600319360112610a7c57610a3b610cc7565b80546001600160a01b03198116825581906001600160a01b03167f8be0079c531659141344cd1fd0a4f28419497f9722a3daafe3b4186f6b6457e08280a380f35b80fd5b509034610282578160031936011261028257517f00000000000000000000000000000000000000000000000000000000000000006001600160a01b03168152602090f35b9050346102825781600319360112610282577f00000000000000000000000000000000000000000000000000000000000000006001600160a01b03168152602090f35b600435906001600160a01b0382168203610b1c57565b600080fd5b90601f8019910116810190811067ffffffffffffffff821117610b4357604052565b634e487b7160e01b600052604160045260246000fd5b15610b6057565b60405162461bcd60e51b815260206004820152601a60248201527f496e73756666696369656e7420746f6b656e2062616c616e63650000000000006044820152606490fd5b90816020910312610b1c57518015158103610b1c5790565b15610bc457565b60405162461bcd60e51b815260206004820152601860248201527f496e73756666696369656e74204554482062616c616e636500000000000000006044820152606490fd5b3d15610c44573d9067ffffffffffffffff8211610b435760405191610c38601f8201601f191660200184610b21565b82523d6000602084013e565b606090565b6001600160a01b031680610c5c57504790565b6020602491604051928380926370a0823160e01b82523060048301525afa908115610cbb57600091610c8c575090565b90506020813d602011610cb3575b81610ca760209383610b21565b81010312610b1c575190565b3d9150610c9a565b6040513d6000823e3d90fd5b6000546001600160a01b03163303610cdb57565b60405163118cdaa760e01b8152336004820152602490fd5b81810292918115918404141715610d0657565b634e487b7160e01b600052601160045260246000fdfea2646970667358221220e4d9576310dd43eec9c5b9dd5993ba6dea42bd147d962676fed0906d3719ed9764736f6c63430008180033",
  "linkReferences": {},
  "deployedLinkReferences": {}
}