{"contracts/BaseCommunityDAOWithStaking.sol":{"BaseCommunityDAOWithStaking":{"abi":[{"inputs":[{"internalType":"address","name":"_governanceToken","type":"address"}],"stateMutability":"nonpayable","type":"constructor"},{"inputs":[{"internalType":"address","name":"owner","type":"address"}],"name":"OwnableInvalidOwner","type":"error"},{"inputs":[{"internalType":"address","name":"account","type":"address"}],"name":"OwnableUnauthorizedAccount","type":"error"},{"inputs":[],"name":"ReentrancyGuardReentrantCall","type":"error"},{"anonymous":false,"inputs":[{"indexed":true,"internalType":"address","name":"member","type":"address"}],"name":"CommunityMemberAdded","type":"event"},{"anonymous":false,"inputs":[{"indexed":true,"internalType":"address","name":"member","type":"address"}],"name":"CommunityMemberRemoved","type":"event"},{"anonymous":false,"inputs":[{"indexed":true,"internalType":"address","name":"previousOwner","type":"address"},{"indexed":true,"internalType":"address","name":"newOwner","type":"address"}],"name":"OwnershipTransferred","type":"event"},{"anonymous":false,"inputs":[{"indexed":true,"internalType":"uint256","name":"proposalId","type":"uint256"}],"name":"ProposalCanceled","type":"event"},{"anonymous":false,"inputs":[{"indexed":true,"internalType":"uint256","name":"proposalId","type":"uint256"},{"indexed":true,"internalType":"address","name":"proposer","type":"address"},{"indexed":false,"internalType":"string","name":"category","type":"string"}],"name":"ProposalCreated","type":"event"},{"anonymous":false,"inputs":[{"indexed":true,"internalType":"uint256","name":"proposalId","type":"uint256"}],"name":"ProposalExecuted","type":"event"},{"anonymous":false,"inputs":[{"indexed":true,"internalType":"address","name":"member","type":"address"},{"indexed":false,"internalType":"uint256","name":"amount","type":"uint256"}],"name":"StakeDeposited","type":"event"},{"anonymous":false,"inputs":[{"indexed":true,"internalType":"address","name":"member","type":"address"},{"indexed":false,"internalType":"uint256","name":"amount","type":"uint256"}],"name":"StakeWithdrawn","type":"event"},{"anonymous":false,"inputs":[{"indexed":true,"internalType":"uint256","name":"proposalId","type":"uint256"},{"indexed":true,"internalType":"address","name":"voter","type":"address"},{"indexed":false,"internalType":"bool","name":"support","type":"bool"}],"name":"VoteCast","type":"event"},{"inputs":[],"name":"BASE_QUORUM_PERCENTAGE","outputs":[{"internalType":"uint256","name":"","type":"uint256"}],"stateMutability":"view","type":"function"},{"inputs":[],"name":"BASE_VOTING_PERIOD","outputs":[{"internalType":"uint256","name":"","type":"uint256"}],"stateMutability":"view","type":"function"},{"inputs":[],"name":"MINIMUM_STAKE","outputs":[{"internalType":"uint256","name":"","type":"uint256"}],"stateMutability":"view","type":"function"},{"inputs":[{"internalType":"address","name":"member","type":"address"}],"name":"addCommunityMember","outputs":[],"stateMutability":"nonpayable","type":"function"},{"inputs":[],"name":"addStake","outputs":[],"stateMutability":"payable","type":"function"},{"inputs":[{"internalType":"uint256","name":"proposalId","type":"uint256"}],"name":"cancelProposal","outputs":[],"stateMutability":"nonpayable","type":"function"},{"inputs":[{"internalType":"uint256","name":"proposalId","type":"uint256"},{"internalType":"bool","name":"support","type":"bool"}],"name":"castVote","outputs":[],"stateMutability":"nonpayable","type":"function"},{"inputs":[{"internalType":"uint256","name":"","type":"uint256"}],"name":"categories","outputs":[{"internalType":"string","name":"","type":"string"}],"stateMutability":"view","type":"function"},{"inputs":[{"internalType":"string","name":"","type":"string"},{"internalType":"uint256","name":"","type":"uint256"}],"name":"categoryProposals","outputs":[{"internalType":"uint256","name":"","type":"uint256"}],"stateMutability":"view","type":"function"},{"inputs":[{"internalType":"address","name":"","type":"address"}],"name":"communityMembers","outputs":[{"internalType":"bool","name":"","type":"bool"}],"stateMutability":"view","type":"function"},{"inputs":[{"internalType":"string","name":"description","type":"string"},{"internalType":"string","name":"category","type":"string"}],"name":"createProposal","outputs":[{"internalType":"uint256","name":"","type":"uint256"}],"stateMutability":"nonpayable","type":"function"},{"inputs":[],"name":"emergencyWithdraw","outputs":[],"stateMutability":"nonpayable","type":"function"},{"inputs":[{"internalType":"uint256","name":"proposalId","type":"uint256"}],"name":"executeProposal","outputs":[],"stateMutability":"nonpayable","type":"function"},{"inputs":[],"name":"getCategories","outputs":[{"internalType":"string[]","name":"","type":"string[]"}],"stateMutability":"view","type":"function"},{"inputs":[{"internalType":"address","name":"member","type":"address"}],"name":"getMemberStake","outputs":[{"internalType":"uint256","name":"","type":"uint256"}],"stateMutability":"view","type":"function"},{"inputs":[{"internalType":"uint256","name":"proposalId","type":"uint256"}],"name":"getProposal","outputs":[{"internalType":"uint256","name":"id","type":"uint256"},{"internalType":"address","name":"proposer","type":"address"},{"internalType":"string","name":"description","type":"string"},{"internalType":"string","name":"category","type":"string"},{"internalType":"uint256","name":"forVotes","type":"uint256"},{"internalType":"uint256","name":"againstVotes","type":"uint256"},{"internalType":"uint256","name":"startTime","type":"uint256"},{"internalType":"uint256","name":"endTime","type":"uint256"},{"internalType":"bool","name":"executed","type":"bool"},{"internalType":"bool","name":"canceled","type":"bool"}],"stateMutability":"view","type":"function"},{"inputs":[{"internalType":"string","name":"category","type":"string"}],"name":"getProposalsByCategory","outputs":[{"internalType":"uint256[]","name":"","type":"uint256[]"}],"stateMutability":"view","type":"function"},{"inputs":[],"name":"getTreasuryBalance","outputs":[{"internalType":"uint256","name":"","type":"uint256"}],"stateMutability":"view","type":"function"},{"inputs":[{"internalType":"address","name":"account","type":"address"}],"name":"getVotes","outputs":[{"internalType":"uint256","name":"","type":"uint256"}],"stateMutability":"view","type":"function"},{"inputs":[],"name":"governanceToken","outputs":[{"internalType":"contract IERC20","name":"","type":"address"}],"stateMutability":"view","type":"function"},{"inputs":[{"internalType":"address","name":"account","type":"address"}],"name":"isCommunityMember","outputs":[{"internalType":"bool","name":"","type":"bool"}],"stateMutability":"view","type":"function"},{"inputs":[],"name":"joinDAOWithStake","outputs":[],"stateMutability":"payable","type":"function"},{"inputs":[{"internalType":"address","name":"","type":"address"}],"name":"memberStakes","outputs":[{"internalType":"uint256","name":"","type":"uint256"}],"stateMutability":"view","type":"function"},{"inputs":[],"name":"owner","outputs":[{"internalType":"address","name":"","type":"address"}],"stateMutability":"view","type":"function"},{"inputs":[],"name":"proposalCount","outputs":[{"internalType":"uint256","name":"","type":"uint256"}],"stateMutability":"view","type":"function"},{"inputs":[{"internalType":"uint256","name":"","type":"uint256"}],"name":"proposals","outputs":[{"internalType":"uint256","name":"id","type":"uint256"},{"internalType":"address","name":"proposer","type":"address"},{"internalType":"string","name":"description","type":"string"},{"internalType":"string","name":"category","type":"string"},{"internalType":"uint256","name":"forVotes","type":"uint256"},{"internalType":"uint256","name":"againstVotes","type":"uint256"},{"internalType":"uint256","name":"startTime","type":"uint256"},{"internalType":"uint256","name":"endTime","type":"uint256"},{"internalType":"bool","name":"executed","type":"bool"},{"internalType":"bool","name":"canceled","type":"bool"}],"stateMutability":"view","type":"function"},{"inputs":[{"internalType":"address","name":"member","type":"address"}],"name":"removeCommunityMember","outputs":[],"stateMutability":"nonpayable","type":"function"},{"inputs":[],"name":"renounceOwnership","outputs":[],"stateMutability":"nonpayable","type":"function"},{"inputs":[],"name":"totalStaked","outputs":[{"internalType":"uint256","name":"","type":"uint256"}],"stateMutability":"view","type":"function"},{"inputs":[{"internalType":"address","name":"newOwner","type":"address"}],"name":"transferOwnership","outputs":[],"stateMutability":"nonpayable","type":"function"},{"inputs":[{"internalType":"uint256","name":"newMinimumStake","type":"uint256"}],"name":"updateMinimumStake","outputs":[],"stateMutability":"nonpayable","type":"function"},{"inputs":[],"name":"withdrawStake","outputs":[],"stateMutability":"nonpayable","type":"function"}],"evm":{"bytecode":{"linkReferences":{},"object":"6080346200040757601f19620020f738819003601f81810184168501946001600160401b0394939092838710868811176200040c57808492604098895283396020938491810103126200040757516001600160a01b03808216959094909186900362000407573315620003ef57600093845460018060a01b031996338883161787553391167f8be0079c531659141344cd1fd0a4f28419497f9722a3daafe3b4186f6b6457e08780a360019384805588519360e0850185811082821117620003db578a52620000cd62000422565b601581527f43756c747572616c20507265736572766174696f6e00000000000000000000008482015285526200010262000422565b600981526822b23ab1b0ba34b7b760b91b84820152838601526200012562000422565b600a8152694865616c74686361726560b01b848201528a8601526200014962000422565b601481527f45636f6e6f6d696320446576656c6f706d656e740000000000000000000000008482015260608601526200018162000422565b600a815269546563686e6f6c6f677960b01b848201526080860152620001a662000422565b600d81526c115b9d9a5c9bdb9b595b9d185b609a1b8482015260a0860152620001ce62000422565b600e81526d536f6369616c204a75737469636560901b8482015260c08601526006549460079560076006558060071062000360575b509391600688528388209288955b87871062000232578c8c8c600954161760095551611c5e9081620004998239f35b80519081518581116200034c578a9188918d620002508a5462000442565b8489821162000311575b5050508d8390888311600114620002a2579085968362000296575b5050600019600383901b1c191690841b1788555b0195019601959362000211565b01519050388062000275565b908783168b8352858320925b818110620002ee5750908697848895949310620002d4575b505050811b01885562000289565b015160001960f88460031b161c19169055388080620002c6565b9497939686929691938786015181550195019301928b94918f96939794620002ae565b828c6200033994522060058a808601821c83019388871062000342575b01901c01906200047f565b8d38846200025a565b935082936200032e565b634e487b7160e01b8c52604160045260248cfd5b60068952876007868b2092830192015b8281106200038057505062000203565b8a6200038d825462000442565b806200039f575b505001889062000370565b878111600114620003b6575081555b8a3862000394565b828252620003d1888a8420920160051c82018583016200047f565b81835555620003ae565b634e487b7160e01b88526041600452602488fd5b8651631e4fbdf760e01b815260006004820152602490fd5b600080fd5b634e487b7160e01b600052604160045260246000fd5b60408051919082016001600160401b038111838210176200040c57604052565b90600182811c9216801562000474575b60208310146200045e57565b634e487b7160e01b600052602260045260246000fd5b91607f169162000452565b8181106200048b575050565b600081556001016200047f56fe6080604052600436101561001257600080fd5b60003560e01c8063013cf08b1461172d57806308dbbb031461170b57806309a81d4b146116095780630d61b519146113f257806315373e3d1461118757806324cdf45814610819578063286b87c0146111695780632dbf645a146110715780632f676b65146107ba57806343390e3a14610ff75780634c41e88014610fde5780634db0412c14610eeb5780635a627dbc14610e325780635c62735814610da957806365e481e2146108ce578063715018a614610875578063817b1cd21461085757806385b36d7b14610819578063873aed02146107fd5780638c95aef9146107ba5780638da5cb5b14610791578063960af7a3146106b95780639ab24eb0146106045780639b5655dc146105e8578063bed9d861146104af578063c6cdbe5e1461044e578063c7f758a8146103cb578063da35c664146103ad578063db2e21bc14610310578063e0a8f6f51461023a578063f2fde38b146101aa5763f96dae0a1461017c57600080fd5b346101a55760003660031901126101a5576009546040516001600160a01b039091168152602090f35b600080fd5b346101a55760203660031901126101a5576004356001600160a01b03818116918290036101a5576101d9611bfc565b811561022157600054826bffffffffffffffffffffffff60a01b821617600055167f8be0079c531659141344cd1fd0a4f28419497f9722a3daafe3b4186f6b6457e0600080a3005b604051631e4fbdf760e01b815260006004820152602490fd5b346101a55760203660031901126101a557600435806000526004602052604060002061026881541515611a73565b6001810154336001600160a01b0391821614908115610302575b50156102cc57600801610100815461029d60ff821615611abf565b61ff0019161790557f789cf55be980739dad1d0699b93b58e806b51c9d96619bfa8fe0a28abaa7b30c600080a2005b60405162461bcd60e51b815260206004820152600e60248201526d139bdd08185d5d1a1bdc9a5e995960921b6044820152606490fd5b600054163314905083610282565b346101a55760003660031901126101a557610329611bfc565b60085461035657610354600080808060018060a01b0381541647905af161034e611b8b565b50611bbb565b005b60405162461bcd60e51b815260206004820152602960248201527f43616e6e6f74207769746864726177207768696c65206d656d626572732068616044820152687665207374616b657360b81b6064820152608490fd5b346101a55760003660031901126101a5576020600754604051908152f35b346101a55760203660031901126101a55760043560005260046020526040600020805461044a60018060a01b036001840154169160048401549060058501546006860154600787015491600888015494610433600361042c60028c0161180a565b9a0161180a565b604051998a9960ff808a60081c169916978b6118f7565b0390f35b346101a55760203660031901126101a5576004356006548110156101a557610475906119c2565b6104995761048561044a9161180a565b6040519182916020835260208301906118d2565b634e487b7160e01b600052600060045260246000fd5b346101a55760003660031901126101a5576002600154146105d6576002600155336000526020600281526104ea60ff60406000205416611b43565b33600052600381526040600020541561059b5733600052600381527f8108595eb6bad3acefa9da467d90cc2217686d5c5ac85460f8b7849c840645fc60406000209160008354935560028152604060002060ff19815416905561054f83600854611b7e565b600855610566600080808087335af161034e611b8b565b6040519283523392a2337fa22f826cfa669b4680f0ca673f9e9021392cfe223ef797faf4005f9c8dc4d14b600080a260018055005b6064906040519062461bcd60e51b8252600482015260146024820152734e6f207374616b6520746f20776974686472617760601b6044820152fd5b604051633ee5aeb560e01b8152600490fd5b346101a55760003660031901126101a557602047604051908152f35b346101a5576020806003193601126101a5576004356001600160a01b03818116918290036101a5578160005260038352826040600020549160095416926024604051809581936370a0823160e01b835260048301525afa9081156106ad5760009161067c575b6106749250611a66565b604051908152f35b90508282813d83116106a6575b61069381836117e8565b810103126101a55761067491519061066a565b503d610689565b6040513d6000823e3d90fd5b346101a5576020806003193601126101a55760043567ffffffffffffffff81116101a557816106ef61070292369060040161197b565b81604051938285809451938492016118af565b8101600581520301902060405190818382549182815201908192600052846000209060005b8682821061077d57868661073d828803836117e8565b604051928392818401908285525180915260408401929160005b82811061076657505050500390f35b835185528695509381019392810192600101610757565b835485529093019260019283019201610727565b346101a55760003660031901126101a5576000546040516001600160a01b039091168152602090f35b346101a55760203660031901126101a5576004356001600160a01b038116908190036101a5576000526002602052602060ff604060002054166040519015158152f35b346101a55760003660031901126101a5576020604051600a8152f35b346101a55760203660031901126101a5576004356001600160a01b038116908190036101a55760005260036020526020604060002054604051908152f35b346101a55760003660031901126101a5576020600854604051908152f35b346101a55760003660031901126101a55761088e611bfc565b600080546001600160a01b0319811682556001600160a01b03167f8be0079c531659141344cd1fd0a4f28419497f9722a3daafe3b4186f6b6457e08280a3005b346101a55760403660031901126101a55760043567ffffffffffffffff81116101a5576108ff90369060040161197b565b60243567ffffffffffffffff81116101a55761091f90369060040161197b565b33600052600260205261093960ff60406000205416611afe565b600080600654905b818110610cd9575b505015610ca1576007546000198114610b15576001019081600755816000526004602052604060002091825560018201336bffffffffffffffffffffffff60a01b825416179055825167ffffffffffffffff8111610aff576109ae60028401546117ae565b601f8111610c5a575b506020601f8211600114610bee5781929394600092610be3575b50508160011b916000199060031b1c19161760028301555b8051916003810167ffffffffffffffff8411610aff57610a0981546117ae565b601f8111610b9b575b50602093601f8111600114610b36578091929394600091610b2b575b508160011b916000199060031b1c19161790555b42600682015562093a80420190814211610b1557600701556040516020818351610a6f81838588016118af565b810160058152030190209060075482549268010000000000000000841015610aff5783610aa3916001602096018155611a0f565b819291549060031b91821b91600019901b191617905560075490817f7585f467599d0f008985f231af99293be388626ac16ca59505c2f8f88969cd6360405185815280610af43395888301906118d2565b0390a3604051908152f35b634e487b7160e01b600052604160045260246000fd5b634e487b7160e01b600052601160045260246000fd5b905084015185610a2e565b601f198116948260005260206000209060005b878110610b8357508260019495969710610b6a575b5050811b019055610a42565b86015160001960f88460031b161c191690558580610b5e565b9091602060018192858a015181550193019101610b49565b816000526020600020601f860160051c81019160208710610bd9575b601f0160051c01905b818110610bcd5750610a12565b60008155600101610bc0565b9091508190610bb7565b0151905084806109d1565b601f198216906002850160005260206000209160005b818110610c4257509583600195969710610c29575b505050811b0160028301556109e9565b015160001960f88460031b161c19169055848080610c19565b9192602060018192868b015181550194019201610c04565b600284016000526020600020601f830160051c810160208410610c9a575b601f830160051c82018110610c8e5750506109b7565b60008155600101610c78565b5080610c78565b60405162461bcd60e51b815260206004820152601060248201526f496e76616c69642063617465676f727960801b6044820152606490fd5b610ce2816119c2565b5060405190816000825492610cf6846117ae565b8084529360018116908115610d875750600114610d42575b50610d1b925003826117e8565b602081519101208451602086012014610d3657600101610941565b50505060018380610949565b915050600052816020600020916000925b818410610d6b5750506020610d1b9282010189610d0e565b6020919250806001915483868801015201920191908391610d53565b905060209250610d1b94915060ff191682840152151560051b82010189610d0e565b346101a55760203660031901126101a5576004356001600160a01b038116908190036101a557610dd7611bfc565b806000526002602052610df260ff6040600020541615611a27565b8060005260026020526040600020600160ff198254161790557fa41a5ddbf02b01025c5ac32c2038f209eabe5ddb2a83444f2acbfe9f91dc8827600080a2005b60003660031901126101a557336000526002602052610e5860ff60406000205416611b43565b3415610eb6573360005260036020526040600020610e77348254611a66565b9055610e8534600854611a66565b6008556040513481527f0a7bb2e28cc4698aac06db79cf9163bfcc20719286cf59fa7d492ceda1b8edc260203392a2005b60405162461bcd60e51b815260206004820152600d60248201526c09aeae6e840e6cadcc8408aa89609b1b6044820152606490fd5b346101a55760003660031901126101a55760065467ffffffffffffffff8111610aff57602060405191610f23828260051b01846117e8565b808352818301908160066000527ff652222313e28459528d920b65115c16c04f3efc82aaedc97be59f3f377c0d3f6000915b838310610fbc5750505050604051918083019381845251809452604083019360408160051b85010192916000955b828710610f905785850386f35b909192938280610fac600193603f198a820301865288516118d2565b9601920196019592919092610f83565b6001868192610fcd859a999a61180a565b815201920192019190959495610f55565b346101a55760203660031901126101a557610354611bfc565b346101a55760403660031901126101a55760043567ffffffffffffffff81116101a55761102890369060040161197b565b61104460206024359281604051938285809451938492016118af565b8101600581520301902080548210156101a55760209161106391611a0f565b90546040519160031b1c8152f35b346101a55760203660031901126101a5576004356001600160a01b038116908190036101a55761109f611bfc565b8060005260026020526110b960ff60406000205416611b43565b8060005260036020528060406000208054908161110f575b50506000526002602052604060002060ff1981541690557fa22f826cfa669b4680f0ca673f9e9021392cfe223ef797faf4005f9c8dc4d14b600080a2005b7f8108595eb6bad3acefa9da467d90cc2217686d5c5ac85460f8b7849c840645fc9160006020925561114381600854611b7e565b60085561115a600080808085895af161034e611b8b565b604051908152a28082806110d1565b346101a55760003660031901126101a557602060405162093a808152f35b346101a55760403660031901126101a5576024803580151590600435908281036101a557816000526020906004825260406000206111c781541515611a73565b600681015442106113b9576007810154421161138657600981013360005280845260ff6040600020541661135257336000526002845261120e60ff60406000205416611afe565b336000528352604060002060ff1990600182825416179055600a8201845260406000209081541660ff871617905560038352856040600020548460018060a01b0360095416604051938480926370a0823160e01b82523360048301525afa9081156106ad57600091611321575b6112859250611a66565b9182156112eb577fe71fcdac32df1877c1700e7bda2a03157e20993363a28fc35ac495cefc76e4d4949596506000146112d55760046112c79101918254611a66565b90555b6040519384523393a3005b60056112e49101918254611a66565b90556112ca565b60405162461bcd60e51b815260048101859052600f818901526e2737903b37ba34b733903837bbb2b960891b6044820152606490fd5b90508482813d831161134b575b61133881836117e8565b810103126101a55761128591519061127b565b503d61132e565b60405162461bcd60e51b815260048101859052600d818901526c105b1c9958591e481d9bdd1959609a1b6044820152606490fd5b60405162461bcd60e51b815260048101849052600c818801526b159bdd1a5b99c8195b99195960a21b6044820152606490fd5b60405162461bcd60e51b81526004810184905260128188015271159bdd1a5b99c81b9bdd081cdd185c9d195960721b6044820152606490fd5b346101a5576020806003193601126101a557600435908160005260048152604060002061142181541515611a73565b60078101544211156115d157600881019182549161144260ff841615611abf565b60ff8360081c166115985760056004820154910154906114628282611a66565b6008546009546040516318160ddd60e01b815291908690839060049082906001600160a01b03165afa9081156106ad57600091611567575b6114a49250611a66565b600a810290808204600a1490151715610b1557606490041161152d5711156114f7575060ff191660011790557f712ae1383f79ac853f8d882153778e0260ef8f03b504e2866e0593e04d2b291f600080a2005b6064906040519062461bcd60e51b82526004820152600f60248201526e141c9bdc1bdcd85b0819985a5b1959608a1b6044820152fd5b60405162461bcd60e51b8152600481018490526012602482015271145d5bdc9d5b481b9bdd081c995858da195960721b6044820152606490fd5b90508582813d8311611591575b61157e81836117e8565b810103126101a5576114a491519061149a565b503d611574565b60405162461bcd60e51b8152600481018390526011602482015270141c9bdc1bdcd85b0818d85b98d95b1959607a1b6044820152606490fd5b60405162461bcd60e51b815260048101839052601060248201526f159bdd1a5b99c81b9bdd08195b99195960821b6044820152606490fd5b60003660031901126101a5576611c37937e0800034106116c65733600052600260205261163e60ff6040600020541615611a27565b3360005260036020523460406000205560026020526040600020600160ff1982541617905561166f34600854611a66565b6008556040513481527f0a7bb2e28cc4698aac06db79cf9163bfcc20719286cf59fa7d492ceda1b8edc260203392a2337fa41a5ddbf02b01025c5ac32c2038f209eabe5ddb2a83444f2acbfe9f91dc8827600080a2005b60405162461bcd60e51b815260206004820152601960248201527f496e73756666696369656e74207374616b6520616d6f756e74000000000000006044820152606490fd5b346101a55760003660031901126101a55760206040516611c37937e080008152f35b346101a55760203660031901126101a5576004356000526004602052604060002080549061044a60018060a01b036001830154169161176e6002820161180a565b9361177b6003830161180a565b91600481015460058201546006830154916008600785015494015495604051998a9960ff808a60081c169916978b6118f7565b90600182811c921680156117de575b60208310146117c857565b634e487b7160e01b600052602260045260246000fd5b91607f16916117bd565b90601f8019910116810190811067ffffffffffffffff821117610aff57604052565b9060405191826000825461181d816117ae565b9081845260209460019160018116908160001461188d575060011461184e575b50505061184c925003836117e8565b565b600090815285812095935091905b81831061187557505061184c935082010138808061183d565b8554888401850152948501948794509183019161185c565b9250505061184c94925060ff191682840152151560051b82010138808061183d565b60005b8381106118c25750506000910152565b81810151838201526020016118b2565b906020916118eb815180928185528580860191016118af565b601f01601f1916010190565b98959261192d9061012099969c9b98959261193b94610140918d5260018060a01b031660208d01528060408d01528b01906118d2565b9089820360608b01526118d2565b98608088015260a087015260c086015260e085015215156101008401521515910152565b67ffffffffffffffff8111610aff57601f01601f191660200190565b81601f820112156101a5578035906119928261195f565b926119a060405194856117e8565b828452602083830101116101a557816000926020809301838601378301015290565b6006548110156119f95760066000527ff652222313e28459528d920b65115c16c04f3efc82aaedc97be59f3f377c0d3f0190600090565b634e487b7160e01b600052603260045260246000fd5b80548210156119f95760005260206000200190600090565b15611a2e57565b60405162461bcd60e51b815260206004820152601060248201526f20b63932b0b23c90309036b2b6b132b960811b6044820152606490fd5b91908201809211610b1557565b15611a7a57565b60405162461bcd60e51b815260206004820152601760248201527f50726f706f73616c20646f6573206e6f742065786973740000000000000000006044820152606490fd5b15611ac657565b60405162461bcd60e51b815260206004820152601060248201526f105b1c9958591e48195e1958dd5d195960821b6044820152606490fd5b15611b0557565b60405162461bcd60e51b81526020600482015260166024820152752737ba10309031b7b6b6bab734ba3c9036b2b6b132b960511b6044820152606490fd5b15611b4a57565b60405162461bcd60e51b815260206004820152600c60248201526b2737ba10309036b2b6b132b960a11b6044820152606490fd5b91908203918211610b1557565b3d15611bb6573d90611b9c8261195f565b91611baa60405193846117e8565b82523d6000602084013e565b606090565b15611bc257565b60405162461bcd60e51b815260206004820152601260248201527108cc2d2d8cac840e8de40e6cadcc8408aa8960731b6044820152606490fd5b6000546001600160a01b03163303611c1057565b60405163118cdaa760e01b8152336004820152602490fdfea2646970667358221220173fe43dc75cda1d6c7c674ec4dbf56754cc7be5646fe276d1fd210c68cf62a164736f6c63430008180033","opcodes":"PUSH1 0x80 CALLVALUE PUSH3 0x407 JUMPI PUSH1 0x1F NOT PUSH3 0x20F7 CODESIZE DUP2 SWAP1 SUB PUSH1 0x1F DUP2 DUP2 ADD DUP5 AND DUP6 ADD SWAP5 PUSH1 0x1 PUSH1 0x1 PUSH1 0x40 SHL SUB SWAP5 SWAP4 SWAP1 SWAP3 DUP4 DUP8 LT DUP7 DUP9 GT OR PUSH3 0x40C JUMPI DUP1 DUP5 SWAP3 PUSH1 0x40 SWAP9 DUP10 MSTORE DUP4 CODECOPY PUSH1 0x20 SWAP4 DUP5 SWAP2 DUP2 ADD SUB SLT PUSH3 0x407 JUMPI MLOAD PUSH1 0x1 PUSH1 0x1 PUSH1 0xA0 SHL SUB DUP1 DUP3 AND SWAP6 SWAP1 SWAP5 SWAP1 SWAP2 DUP7 SWAP1 SUB PUSH3 0x407 JUMPI CALLER ISZERO PUSH3 0x3EF JUMPI PUSH1 0x0 SWAP4 DUP5 SLOAD PUSH1 0x1 DUP1 PUSH1 0xA0 SHL SUB NOT SWAP7 CALLER DUP9 DUP4 AND OR DUP8 SSTORE CALLER SWAP2 AND PUSH32 0x8BE0079C531659141344CD1FD0A4F28419497F9722A3DAAFE3B4186F6B6457E0 DUP8 DUP1 LOG3 PUSH1 0x1 SWAP4 DUP5 DUP1 SSTORE DUP9 MLOAD SWAP4 PUSH1 0xE0 DUP6 ADD DUP6 DUP2 LT DUP3 DUP3 GT OR PUSH3 0x3DB JUMPI DUP11 MSTORE PUSH3 0xCD PUSH3 0x422 JUMP JUMPDEST PUSH1 0x15 DUP2 MSTORE PUSH32 0x43756C747572616C20507265736572766174696F6E0000000000000000000000 DUP5 DUP3 ADD MSTORE DUP6 MSTORE PUSH3 0x102 PUSH3 0x422 JUMP JUMPDEST PUSH1 0x9 DUP2 MSTORE PUSH9 0x22B23AB1B0BA34B7B7 PUSH1 0xB9 SHL DUP5 DUP3 ADD MSTORE DUP4 DUP7 ADD MSTORE PUSH3 0x125 PUSH3 0x422 JUMP JUMPDEST PUSH1 0xA DUP2 MSTORE PUSH10 0x4865616C746863617265 PUSH1 0xB0 SHL DUP5 DUP3 ADD MSTORE DUP11 DUP7 ADD MSTORE PUSH3 0x149 PUSH3 0x422 JUMP JUMPDEST PUSH1 0x14 DUP2 MSTORE PUSH32 0x45636F6E6F6D696320446576656C6F706D656E74000000000000000000000000 DUP5 DUP3 ADD MSTORE PUSH1 0x60 DUP7 ADD MSTORE PUSH3 0x181 PUSH3 0x422 JUMP JUMPDEST PUSH1 0xA DUP2 MSTORE PUSH10 0x546563686E6F6C6F6779 PUSH1 0xB0 SHL DUP5 DUP3 ADD MSTORE PUSH1 0x80 DUP7 ADD MSTORE PUSH3 0x1A6 PUSH3 0x422 JUMP JUMPDEST PUSH1 0xD DUP2 MSTORE PUSH13 0x115B9D9A5C9BDB9B595B9D185B PUSH1 0x9A SHL DUP5 DUP3 ADD MSTORE PUSH1 0xA0 DUP7 ADD MSTORE PUSH3 0x1CE PUSH3 0x422 JUMP JUMPDEST PUSH1 0xE DUP2 MSTORE PUSH14 0x536F6369616C204A757374696365 PUSH1 0x90 SHL DUP5 DUP3 ADD MSTORE PUSH1 0xC0 DUP7 ADD MSTORE PUSH1 0x6 SLOAD SWAP5 PUSH1 0x7 SWAP6 PUSH1 0x7 PUSH1 0x6 SSTORE DUP1 PUSH1 0x7 LT PUSH3 0x360 JUMPI JUMPDEST POP SWAP4 SWAP2 PUSH1 0x6 DUP9 MSTORE DUP4 DUP9 KECCAK256 SWAP3 DUP9 SWAP6 JUMPDEST DUP8 DUP8 LT PUSH3 0x232 JUMPI DUP13 DUP13 DUP13 PUSH1 0x9 SLOAD AND OR PUSH1 0x9 SSTORE MLOAD PUSH2 0x1C5E SWAP1 DUP2 PUSH3 0x499 DUP3 CODECOPY RETURN JUMPDEST DUP1 MLOAD SWAP1 DUP2 MLOAD DUP6 DUP2 GT PUSH3 0x34C JUMPI DUP11 SWAP2 DUP9 SWAP2 DUP14 PUSH3 0x250 DUP11 SLOAD PUSH3 0x442 JUMP JUMPDEST DUP5 DUP10 DUP3 GT PUSH3 0x311 JUMPI JUMPDEST POP POP POP DUP14 DUP4 SWAP1 DUP9 DUP4 GT PUSH1 0x1 EQ PUSH3 0x2A2 JUMPI SWAP1 DUP6 SWAP7 DUP4 PUSH3 0x296 JUMPI JUMPDEST POP POP PUSH1 0x0 NOT PUSH1 0x3 DUP4 SWAP1 SHL SHR NOT AND SWAP1 DUP5 SHL OR DUP9 SSTORE JUMPDEST ADD SWAP6 ADD SWAP7 ADD SWAP6 SWAP4 PUSH3 0x211 JUMP JUMPDEST ADD MLOAD SWAP1 POP CODESIZE DUP1 PUSH3 0x275 JUMP JUMPDEST SWAP1 DUP8 DUP4 AND DUP12 DUP4 MSTORE DUP6 DUP4 KECCAK256 SWAP3 JUMPDEST DUP2 DUP2 LT PUSH3 0x2EE JUMPI POP SWAP1 DUP7 SWAP8 DUP5 DUP9 SWAP6 SWAP5 SWAP4 LT PUSH3 0x2D4 JUMPI JUMPDEST POP POP POP DUP2 SHL ADD DUP9 SSTORE PUSH3 0x289 JUMP JUMPDEST ADD MLOAD PUSH1 0x0 NOT PUSH1 0xF8 DUP5 PUSH1 0x3 SHL AND SHR NOT AND SWAP1 SSTORE CODESIZE DUP1 DUP1 PUSH3 0x2C6 JUMP JUMPDEST SWAP5 SWAP8 SWAP4 SWAP7 DUP7 SWAP3 SWAP7 SWAP2 SWAP4 DUP8 DUP7 ADD MLOAD DUP2 SSTORE ADD SWAP6 ADD SWAP4 ADD SWAP3 DUP12 SWAP5 SWAP2 DUP16 SWAP7 SWAP4 SWAP8 SWAP5 PUSH3 0x2AE JUMP JUMPDEST DUP3 DUP13 PUSH3 0x339 SWAP5 MSTORE KECCAK256 PUSH1 0x5 DUP11 DUP1 DUP7 ADD DUP3 SHR DUP4 ADD SWAP4 DUP9 DUP8 LT PUSH3 0x342 JUMPI JUMPDEST ADD SWAP1 SHR ADD SWAP1 PUSH3 0x47F JUMP JUMPDEST DUP14 CODESIZE DUP5 PUSH3 0x25A JUMP JUMPDEST SWAP4 POP DUP3 SWAP4 PUSH3 0x32E JUMP JUMPDEST PUSH4 0x4E487B71 PUSH1 0xE0 SHL DUP13 MSTORE PUSH1 0x41 PUSH1 0x4 MSTORE PUSH1 0x24 DUP13 REVERT JUMPDEST PUSH1 0x6 DUP10 MSTORE DUP8 PUSH1 0x7 DUP7 DUP12 KECCAK256 SWAP3 DUP4 ADD SWAP3 ADD JUMPDEST DUP3 DUP2 LT PUSH3 0x380 JUMPI POP POP PUSH3 0x203 JUMP JUMPDEST DUP11 PUSH3 0x38D DUP3 SLOAD PUSH3 0x442 JUMP JUMPDEST DUP1 PUSH3 0x39F JUMPI JUMPDEST POP POP ADD DUP9 SWAP1 PUSH3 0x370 JUMP JUMPDEST DUP8 DUP2 GT PUSH1 0x1 EQ PUSH3 0x3B6 JUMPI POP DUP2 SSTORE JUMPDEST DUP11 CODESIZE PUSH3 0x394 JUMP JUMPDEST DUP3 DUP3 MSTORE PUSH3 0x3D1 DUP9 DUP11 DUP5 KECCAK256 SWAP3 ADD PUSH1 0x5 SHR DUP3 ADD DUP6 DUP4 ADD PUSH3 0x47F JUMP JUMPDEST DUP2 DUP4 SSTORE SSTORE PUSH3 0x3AE JUMP JUMPDEST PUSH4 0x4E487B71 PUSH1 0xE0 SHL DUP9 MSTORE PUSH1 0x41 PUSH1 0x4 MSTORE PUSH1 0x24 DUP9 REVERT JUMPDEST DUP7 MLOAD PUSH4 0x1E4FBDF7 PUSH1 0xE0 SHL DUP2 MSTORE PUSH1 0x0 PUSH1 0x4 DUP3 ADD MSTORE PUSH1 0x24 SWAP1 REVERT JUMPDEST PUSH1 0x0 DUP1 REVERT JUMPDEST PUSH4 0x4E487B71 PUSH1 0xE0 SHL PUSH1 0x0 MSTORE PUSH1 0x41 PUSH1 0x4 MSTORE PUSH1 0x24 PUSH1 0x0 REVERT JUMPDEST PUSH1 0x40 DUP1 MLOAD SWAP2 SWAP1 DUP3 ADD PUSH1 0x1 PUSH1 0x1 PUSH1 0x40 SHL SUB DUP2 GT DUP4 DUP3 LT OR PUSH3 0x40C JUMPI PUSH1 0x40 MSTORE JUMP JUMPDEST SWAP1 PUSH1 0x1 DUP3 DUP2 SHR SWAP3 AND DUP1 ISZERO PUSH3 0x474 JUMPI JUMPDEST PUSH1 0x20 DUP4 LT EQ PUSH3 0x45E JUMPI JUMP JUMPDEST PUSH4 0x4E487B71 PUSH1 0xE0 SHL PUSH1 0x0 MSTORE PUSH1 0x22 PUSH1 0x4 MSTORE PUSH1 0x24 PUSH1 0x0 REVERT JUMPDEST SWAP2 PUSH1 0x7F AND SWAP2 PUSH3 0x452 JUMP JUMPDEST DUP2 DUP2 LT PUSH3 0x48B JUMPI POP POP JUMP JUMPDEST PUSH1 0x0 DUP2 SSTORE PUSH1 0x1 ADD PUSH3 0x47F JUMP INVALID PUSH1 0x80 PUSH1 0x40 MSTORE PUSH1 0x4 CALLDATASIZE LT ISZERO PUSH2 0x12 JUMPI PUSH1 0x0 DUP1 REVERT JUMPDEST PUSH1 0x0 CALLDATALOAD PUSH1 0xE0 SHR DUP1 PUSH4 0x13CF08B EQ PUSH2 0x172D JUMPI DUP1 PUSH4 0x8DBBB03 EQ PUSH2 0x170B JUMPI DUP1 PUSH4 0x9A81D4B EQ PUSH2 0x1609 JUMPI DUP1 PUSH4 0xD61B519 EQ PUSH2 0x13F2 JUMPI DUP1 PUSH4 0x15373E3D EQ PUSH2 0x1187 JUMPI DUP1 PUSH4 0x24CDF458 EQ PUSH2 0x819 JUMPI DUP1 PUSH4 0x286B87C0 EQ PUSH2 0x1169 JUMPI DUP1 PUSH4 0x2DBF645A EQ PUSH2 0x1071 JUMPI DUP1 PUSH4 0x2F676B65 EQ PUSH2 0x7BA JUMPI DUP1 PUSH4 0x43390E3A EQ PUSH2 0xFF7 JUMPI DUP1 PUSH4 0x4C41E880 EQ PUSH2 0xFDE JUMPI DUP1 PUSH4 0x4DB0412C EQ PUSH2 0xEEB JUMPI DUP1 PUSH4 0x5A627DBC EQ PUSH2 0xE32 JUMPI DUP1 PUSH4 0x5C627358 EQ PUSH2 0xDA9 JUMPI DUP1 PUSH4 0x65E481E2 EQ PUSH2 0x8CE JUMPI DUP1 PUSH4 0x715018A6 EQ PUSH2 0x875 JUMPI DUP1 PUSH4 0x817B1CD2 EQ PUSH2 0x857 JUMPI DUP1 PUSH4 0x85B36D7B EQ PUSH2 0x819 JUMPI DUP1 PUSH4 0x873AED02 EQ PUSH2 0x7FD JUMPI DUP1 PUSH4 0x8C95AEF9 EQ PUSH2 0x7BA JUMPI DUP1 PUSH4 0x8DA5CB5B EQ PUSH2 0x791 JUMPI DUP1 PUSH4 0x960AF7A3 EQ PUSH2 0x6B9 JUMPI DUP1 PUSH4 0x9AB24EB0 EQ PUSH2 0x604 JUMPI DUP1 PUSH4 0x9B5655DC EQ PUSH2 0x5E8 JUMPI DUP1 PUSH4 0xBED9D861 EQ PUSH2 0x4AF JUMPI DUP1 PUSH4 0xC6CDBE5E EQ PUSH2 0x44E JUMPI DUP1 PUSH4 0xC7F758A8 EQ PUSH2 0x3CB JUMPI DUP1 PUSH4 0xDA35C664 EQ PUSH2 0x3AD JUMPI DUP1 PUSH4 0xDB2E21BC EQ PUSH2 0x310 JUMPI DUP1 PUSH4 0xE0A8F6F5 EQ PUSH2 0x23A JUMPI DUP1 PUSH4 0xF2FDE38B EQ PUSH2 0x1AA JUMPI PUSH4 0xF96DAE0A EQ PUSH2 0x17C JUMPI PUSH1 0x0 DUP1 REVERT JUMPDEST CALLVALUE PUSH2 0x1A5 JUMPI PUSH1 0x0 CALLDATASIZE PUSH1 0x3 NOT ADD SLT PUSH2 0x1A5 JUMPI PUSH1 0x9 SLOAD PUSH1 0x40 MLOAD PUSH1 0x1 PUSH1 0x1 PUSH1 0xA0 SHL SUB SWAP1 SWAP2 AND DUP2 MSTORE PUSH1 0x20 SWAP1 RETURN JUMPDEST PUSH1 0x0 DUP1 REVERT JUMPDEST CALLVALUE PUSH2 0x1A5 JUMPI PUSH1 0x20 CALLDATASIZE PUSH1 0x3 NOT ADD SLT PUSH2 0x1A5 JUMPI PUSH1 0x4 CALLDATALOAD PUSH1 0x1 PUSH1 0x1 PUSH1 0xA0 SHL SUB DUP2 DUP2 AND SWAP2 DUP3 SWAP1 SUB PUSH2 0x1A5 JUMPI PUSH2 0x1D9 PUSH2 0x1BFC JUMP JUMPDEST DUP2 ISZERO PUSH2 0x221 JUMPI PUSH1 0x0 SLOAD DUP3 PUSH12 0xFFFFFFFFFFFFFFFFFFFFFFFF PUSH1 0xA0 SHL DUP3 AND OR PUSH1 0x0 SSTORE AND PUSH32 0x8BE0079C531659141344CD1FD0A4F28419497F9722A3DAAFE3B4186F6B6457E0 PUSH1 0x0 DUP1 LOG3 STOP JUMPDEST PUSH1 0x40 MLOAD PUSH4 0x1E4FBDF7 PUSH1 0xE0 SHL DUP2 MSTORE PUSH1 0x0 PUSH1 0x4 DUP3 ADD MSTORE PUSH1 0x24 SWAP1 REVERT JUMPDEST CALLVALUE PUSH2 0x1A5 JUMPI PUSH1 0x20 CALLDATASIZE PUSH1 0x3 NOT ADD SLT PUSH2 0x1A5 JUMPI PUSH1 0x4 CALLDATALOAD DUP1 PUSH1 0x0 MSTORE PUSH1 0x4 PUSH1 0x20 MSTORE PUSH1 0x40 PUSH1 0x0 KECCAK256 PUSH2 0x268 DUP2 SLOAD ISZERO ISZERO PUSH2 0x1A73 JUMP JUMPDEST PUSH1 0x1 DUP2 ADD SLOAD CALLER PUSH1 0x1 PUSH1 0x1 PUSH1 0xA0 SHL SUB SWAP2 DUP3 AND EQ SWAP1 DUP2 ISZERO PUSH2 0x302 JUMPI JUMPDEST POP ISZERO PUSH2 0x2CC JUMPI PUSH1 0x8 ADD PUSH2 0x100 DUP2 SLOAD PUSH2 0x29D PUSH1 0xFF DUP3 AND ISZERO PUSH2 0x1ABF JUMP JUMPDEST PUSH2 0xFF00 NOT AND OR SWAP1 SSTORE PUSH32 0x789CF55BE980739DAD1D0699B93B58E806B51C9D96619BFA8FE0A28ABAA7B30C PUSH1 0x0 DUP1 LOG2 STOP JUMPDEST PUSH1 0x40 MLOAD PUSH3 0x461BCD PUSH1 0xE5 SHL DUP2 MSTORE PUSH1 0x20 PUSH1 0x4 DUP3 ADD MSTORE PUSH1 0xE PUSH1 0x24 DUP3 ADD MSTORE PUSH14 0x139BDD08185D5D1A1BDC9A5E9959 PUSH1 0x92 SHL PUSH1 0x44 DUP3 ADD MSTORE PUSH1 0x64 SWAP1 REVERT JUMPDEST PUSH1 0x0 SLOAD AND CALLER EQ SWAP1 POP DUP4 PUSH2 0x282 JUMP JUMPDEST CALLVALUE PUSH2 0x1A5 JUMPI PUSH1 0x0 CALLDATASIZE PUSH1 0x3 NOT ADD SLT PUSH2 0x1A5 JUMPI PUSH2 0x329 PUSH2 0x1BFC JUMP JUMPDEST PUSH1 0x8 SLOAD PUSH2 0x356 JUMPI PUSH2 0x354 PUSH1 0x0 DUP1 DUP1 DUP1 PUSH1 0x1 DUP1 PUSH1 0xA0 SHL SUB DUP2 SLOAD AND SELFBALANCE SWAP1 GAS CALL PUSH2 0x34E PUSH2 0x1B8B JUMP JUMPDEST POP PUSH2 0x1BBB JUMP JUMPDEST STOP JUMPDEST PUSH1 0x40 MLOAD PUSH3 0x461BCD PUSH1 0xE5 SHL DUP2 MSTORE PUSH1 0x20 PUSH1 0x4 DUP3 ADD MSTORE PUSH1 0x29 PUSH1 0x24 DUP3 ADD MSTORE PUSH32 0x43616E6E6F74207769746864726177207768696C65206D656D62657273206861 PUSH1 0x44 DUP3 ADD MSTORE PUSH9 0x7665207374616B6573 PUSH1 0xB8 SHL PUSH1 0x64 DUP3 ADD MSTORE PUSH1 0x84 SWAP1 REVERT JUMPDEST CALLVALUE PUSH2 0x1A5 JUMPI PUSH1 0x0 CALLDATASIZE PUSH1 0x3 NOT ADD SLT PUSH2 0x1A5 JUMPI PUSH1 0x20 PUSH1 0x7 SLOAD PUSH1 0x40 MLOAD SWAP1 DUP2 MSTORE RETURN JUMPDEST CALLVALUE PUSH2 0x1A5 JUMPI PUSH1 0x20 CALLDATASIZE PUSH1 0x3 NOT ADD SLT PUSH2 0x1A5 JUMPI PUSH1 0x4 CALLDATALOAD PUSH1 0x0 MSTORE PUSH1 0x4 PUSH1 0x20 MSTORE PUSH1 0x40 PUSH1 0x0 KECCAK256 DUP1 SLOAD PUSH2 0x44A PUSH1 0x1 DUP1 PUSH1 0xA0 SHL SUB PUSH1 0x1 DUP5 ADD SLOAD AND SWAP2 PUSH1 0x4 DUP5 ADD SLOAD SWAP1 PUSH1 0x5 DUP6 ADD SLOAD PUSH1 0x6 DUP7 ADD SLOAD PUSH1 0x7 DUP8 ADD SLOAD SWAP2 PUSH1 0x8 DUP9 ADD SLOAD SWAP5 PUSH2 0x433 PUSH1 0x3 PUSH2 0x42C PUSH1 0x2 DUP13 ADD PUSH2 0x180A JUMP JUMPDEST SWAP11 ADD PUSH2 0x180A JUMP JUMPDEST PUSH1 0x40 MLOAD SWAP10 DUP11 SWAP10 PUSH1 0xFF DUP1 DUP11 PUSH1 0x8 SHR AND SWAP10 AND SWAP8 DUP12 PUSH2 0x18F7 JUMP JUMPDEST SUB SWAP1 RETURN JUMPDEST CALLVALUE PUSH2 0x1A5 JUMPI PUSH1 0x20 CALLDATASIZE PUSH1 0x3 NOT ADD SLT PUSH2 0x1A5 JUMPI PUSH1 0x4 CALLDATALOAD PUSH1 0x6 SLOAD DUP2 LT ISZERO PUSH2 0x1A5 JUMPI PUSH2 0x475 SWAP1 PUSH2 0x19C2 JUMP JUMPDEST PUSH2 0x499 JUMPI PUSH2 0x485 PUSH2 0x44A SWAP2 PUSH2 0x180A JUMP JUMPDEST PUSH1 0x40 MLOAD SWAP2 DUP3 SWAP2 PUSH1 0x20 DUP4 MSTORE PUSH1 0x20 DUP4 ADD SWAP1 PUSH2 0x18D2 JUMP JUMPDEST PUSH4 0x4E487B71 PUSH1 0xE0 SHL PUSH1 0x0 MSTORE PUSH1 0x0 PUSH1 0x4 MSTORE PUSH1 0x24 PUSH1 0x0 REVERT JUMPDEST CALLVALUE PUSH2 0x1A5 JUMPI PUSH1 0x0 CALLDATASIZE PUSH1 0x3 NOT ADD SLT PUSH2 0x1A5 JUMPI PUSH1 0x2 PUSH1 0x1 SLOAD EQ PUSH2 0x5D6 JUMPI PUSH1 0x2 PUSH1 0x1 SSTORE CALLER PUSH1 0x0 MSTORE PUSH1 0x20 PUSH1 0x2 DUP2 MSTORE PUSH2 0x4EA PUSH1 0xFF PUSH1 0x40 PUSH1 0x0 KECCAK256 SLOAD AND PUSH2 0x1B43 JUMP JUMPDEST CALLER PUSH1 0x0 MSTORE PUSH1 0x3 DUP2 MSTORE PUSH1 0x40 PUSH1 0x0 KECCAK256 SLOAD ISZERO PUSH2 0x59B JUMPI CALLER PUSH1 0x0 MSTORE PUSH1 0x3 DUP2 MSTORE PUSH32 0x8108595EB6BAD3ACEFA9DA467D90CC2217686D5C5AC85460F8B7849C840645FC PUSH1 0x40 PUSH1 0x0 KECCAK256 SWAP2 PUSH1 0x0 DUP4 SLOAD SWAP4 SSTORE PUSH1 0x2 DUP2 MSTORE PUSH1 0x40 PUSH1 0x0 KECCAK256 PUSH1 0xFF NOT DUP2 SLOAD AND SWAP1 SSTORE PUSH2 0x54F DUP4 PUSH1 0x8 SLOAD PUSH2 0x1B7E JUMP JUMPDEST PUSH1 0x8 SSTORE PUSH2 0x566 PUSH1 0x0 DUP1 DUP1 DUP1 DUP8 CALLER GAS CALL PUSH2 0x34E PUSH2 0x1B8B JUMP JUMPDEST PUSH1 0x40 MLOAD SWAP3 DUP4 MSTORE CALLER SWAP3 LOG2 CALLER PUSH32 0xA22F826CFA669B4680F0CA673F9E9021392CFE223EF797FAF4005F9C8DC4D14B PUSH1 0x0 DUP1 LOG2 PUSH1 0x1 DUP1 SSTORE STOP JUMPDEST PUSH1 0x64 SWAP1 PUSH1 0x40 MLOAD SWAP1 PUSH3 0x461BCD PUSH1 0xE5 SHL DUP3 MSTORE PUSH1 0x4 DUP3 ADD MSTORE PUSH1 0x14 PUSH1 0x24 DUP3 ADD MSTORE PUSH20 0x4E6F207374616B6520746F207769746864726177 PUSH1 0x60 SHL PUSH1 0x44 DUP3 ADD MSTORE REVERT JUMPDEST PUSH1 0x40 MLOAD PUSH4 0x3EE5AEB5 PUSH1 0xE0 SHL DUP2 MSTORE PUSH1 0x4 SWAP1 REVERT JUMPDEST CALLVALUE PUSH2 0x1A5 JUMPI PUSH1 0x0 CALLDATASIZE PUSH1 0x3 NOT ADD SLT PUSH2 0x1A5 JUMPI PUSH1 0x20 SELFBALANCE PUSH1 0x40 MLOAD SWAP1 DUP2 MSTORE RETURN JUMPDEST CALLVALUE PUSH2 0x1A5 JUMPI PUSH1 0x20 DUP1 PUSH1 0x3 NOT CALLDATASIZE ADD SLT PUSH2 0x1A5 JUMPI PUSH1 0x4 CALLDATALOAD PUSH1 0x1 PUSH1 0x1 PUSH1 0xA0 SHL SUB DUP2 DUP2 AND SWAP2 DUP3 SWAP1 SUB PUSH2 0x1A5 JUMPI DUP2 PUSH1 0x0 MSTORE PUSH1 0x3 DUP4 MSTORE DUP3 PUSH1 0x40 PUSH1 0x0 KECCAK256 SLOAD SWAP2 PUSH1 0x9 SLOAD AND SWAP3 PUSH1 0x24 PUSH1 0x40 MLOAD DUP1 SWAP6 DUP2 SWAP4 PUSH4 0x70A08231 PUSH1 0xE0 SHL DUP4 MSTORE PUSH1 0x4 DUP4 ADD MSTORE GAS STATICCALL SWAP1 DUP2 ISZERO PUSH2 0x6AD JUMPI PUSH1 0x0 SWAP2 PUSH2 0x67C JUMPI JUMPDEST PUSH2 0x674 SWAP3 POP PUSH2 0x1A66 JUMP JUMPDEST PUSH1 0x40 MLOAD SWAP1 DUP2 MSTORE RETURN JUMPDEST SWAP1 POP DUP3 DUP3 DUP2 RETURNDATASIZE DUP4 GT PUSH2 0x6A6 JUMPI JUMPDEST PUSH2 0x693 DUP2 DUP4 PUSH2 0x17E8 JUMP JUMPDEST DUP2 ADD SUB SLT PUSH2 0x1A5 JUMPI PUSH2 0x674 SWAP2 MLOAD SWAP1 PUSH2 0x66A JUMP JUMPDEST POP RETURNDATASIZE PUSH2 0x689 JUMP JUMPDEST PUSH1 0x40 MLOAD RETURNDATASIZE PUSH1 0x0 DUP3 RETURNDATACOPY RETURNDATASIZE SWAP1 REVERT JUMPDEST CALLVALUE PUSH2 0x1A5 JUMPI PUSH1 0x20 DUP1 PUSH1 0x3 NOT CALLDATASIZE ADD SLT PUSH2 0x1A5 JUMPI PUSH1 0x4 CALLDATALOAD PUSH8 0xFFFFFFFFFFFFFFFF DUP2 GT PUSH2 0x1A5 JUMPI DUP2 PUSH2 0x6EF PUSH2 0x702 SWAP3 CALLDATASIZE SWAP1 PUSH1 0x4 ADD PUSH2 0x197B JUMP JUMPDEST DUP2 PUSH1 0x40 MLOAD SWAP4 DUP3 DUP6 DUP1 SWAP5 MLOAD SWAP4 DUP5 SWAP3 ADD PUSH2 0x18AF JUMP JUMPDEST DUP2 ADD PUSH1 0x5 DUP2 MSTORE SUB ADD SWAP1 KECCAK256 PUSH1 0x40 MLOAD SWAP1 DUP2 DUP4 DUP3 SLOAD SWAP2 DUP3 DUP2 MSTORE ADD SWAP1 DUP2 SWAP3 PUSH1 0x0 MSTORE DUP5 PUSH1 0x0 KECCAK256 SWAP1 PUSH1 0x0 JUMPDEST DUP7 DUP3 DUP3 LT PUSH2 0x77D JUMPI DUP7 DUP7 PUSH2 0x73D DUP3 DUP9 SUB DUP4 PUSH2 0x17E8 JUMP JUMPDEST PUSH1 0x40 MLOAD SWAP3 DUP4 SWAP3 DUP2 DUP5 ADD SWAP1 DUP3 DUP6 MSTORE MLOAD DUP1 SWAP2 MSTORE PUSH1 0x40 DUP5 ADD SWAP3 SWAP2 PUSH1 0x0 JUMPDEST DUP3 DUP2 LT PUSH2 0x766 JUMPI POP POP POP POP SUB SWAP1 RETURN JUMPDEST DUP4 MLOAD DUP6 MSTORE DUP7 SWAP6 POP SWAP4 DUP2 ADD SWAP4 SWAP3 DUP2 ADD SWAP3 PUSH1 0x1 ADD PUSH2 0x757 JUMP JUMPDEST DUP4 SLOAD DUP6 MSTORE SWAP1 SWAP4 ADD SWAP3 PUSH1 0x1 SWAP3 DUP4 ADD SWAP3 ADD PUSH2 0x727 JUMP JUMPDEST CALLVALUE PUSH2 0x1A5 JUMPI PUSH1 0x0 CALLDATASIZE PUSH1 0x3 NOT ADD SLT PUSH2 0x1A5 JUMPI PUSH1 0x0 SLOAD PUSH1 0x40 MLOAD PUSH1 0x1 PUSH1 0x1 PUSH1 0xA0 SHL SUB SWAP1 SWAP2 AND DUP2 MSTORE PUSH1 0x20 SWAP1 RETURN JUMPDEST CALLVALUE PUSH2 0x1A5 JUMPI PUSH1 0x20 CALLDATASIZE PUSH1 0x3 NOT ADD SLT PUSH2 0x1A5 JUMPI PUSH1 0x4 CALLDATALOAD PUSH1 0x1 PUSH1 0x1 PUSH1 0xA0 SHL SUB DUP2 AND SWAP1 DUP2 SWAP1 SUB PUSH2 0x1A5 JUMPI PUSH1 0x0 MSTORE PUSH1 0x2 PUSH1 0x20 MSTORE PUSH1 0x20 PUSH1 0xFF PUSH1 0x40 PUSH1 0x0 KECCAK256 SLOAD AND PUSH1 0x40 MLOAD SWAP1 ISZERO ISZERO DUP2 MSTORE RETURN JUMPDEST CALLVALUE PUSH2 0x1A5 JUMPI PUSH1 0x0 CALLDATASIZE PUSH1 0x3 NOT ADD SLT PUSH2 0x1A5 JUMPI PUSH1 0x20 PUSH1 0x40 MLOAD PUSH1 0xA DUP2 MSTORE RETURN JUMPDEST CALLVALUE PUSH2 0x1A5 JUMPI PUSH1 0x20 CALLDATASIZE PUSH1 0x3 NOT ADD SLT PUSH2 0x1A5 JUMPI PUSH1 0x4 CALLDATALOAD PUSH1 0x1 PUSH1 0x1 PUSH1 0xA0 SHL SUB DUP2 AND SWAP1 DUP2 SWAP1 SUB PUSH2 0x1A5 JUMPI PUSH1 0x0 MSTORE PUSH1 0x3 PUSH1 0x20 MSTORE PUSH1 0x20 PUSH1 0x40 PUSH1 0x0 KECCAK256 SLOAD PUSH1 0x40 MLOAD SWAP1 DUP2 MSTORE RETURN JUMPDEST CALLVALUE PUSH2 0x1A5 JUMPI PUSH1 0x0 CALLDATASIZE PUSH1 0x3 NOT ADD SLT PUSH2 0x1A5 JUMPI PUSH1 0x20 PUSH1 0x8 SLOAD PUSH1 0x40 MLOAD SWAP1 DUP2 MSTORE RETURN JUMPDEST CALLVALUE PUSH2 0x1A5 JUMPI PUSH1 0x0 CALLDATASIZE PUSH1 0x3 NOT ADD SLT PUSH2 0x1A5 JUMPI PUSH2 0x88E PUSH2 0x1BFC JUMP JUMPDEST PUSH1 0x0 DUP1 SLOAD PUSH1 0x1 PUSH1 0x1 PUSH1 0xA0 SHL SUB NOT DUP2 AND DUP3 SSTORE PUSH1 0x1 PUSH1 0x1 PUSH1 0xA0 SHL SUB AND PUSH32 0x8BE0079C531659141344CD1FD0A4F28419497F9722A3DAAFE3B4186F6B6457E0 DUP3 DUP1 LOG3 STOP JUMPDEST CALLVALUE PUSH2 0x1A5 JUMPI PUSH1 0x40 CALLDATASIZE PUSH1 0x3 NOT ADD SLT PUSH2 0x1A5 JUMPI PUSH1 0x4 CALLDATALOAD PUSH8 0xFFFFFFFFFFFFFFFF DUP2 GT PUSH2 0x1A5 JUMPI PUSH2 0x8FF SWAP1 CALLDATASIZE SWAP1 PUSH1 0x4 ADD PUSH2 0x197B JUMP JUMPDEST PUSH1 0x24 CALLDATALOAD PUSH8 0xFFFFFFFFFFFFFFFF DUP2 GT PUSH2 0x1A5 JUMPI PUSH2 0x91F SWAP1 CALLDATASIZE SWAP1 PUSH1 0x4 ADD PUSH2 0x197B JUMP JUMPDEST CALLER PUSH1 0x0 MSTORE PUSH1 0x2 PUSH1 0x20 MSTORE PUSH2 0x939 PUSH1 0xFF PUSH1 0x40 PUSH1 0x0 KECCAK256 SLOAD AND PUSH2 0x1AFE JUMP JUMPDEST PUSH1 0x0 DUP1 PUSH1 0x6 SLOAD SWAP1 JUMPDEST DUP2 DUP2 LT PUSH2 0xCD9 JUMPI JUMPDEST POP POP ISZERO PUSH2 0xCA1 JUMPI PUSH1 0x7 SLOAD PUSH1 0x0 NOT DUP2 EQ PUSH2 0xB15 JUMPI PUSH1 0x1 ADD SWAP1 DUP2 PUSH1 0x7 SSTORE DUP2 PUSH1 0x0 MSTORE PUSH1 0x4 PUSH1 0x20 MSTORE PUSH1 0x40 PUSH1 0x0 KECCAK256 SWAP2 DUP3 SSTORE PUSH1 0x1 DUP3 ADD CALLER PUSH12 0xFFFFFFFFFFFFFFFFFFFFFFFF PUSH1 0xA0 SHL DUP3 SLOAD AND OR SWAP1 SSTORE DUP3 MLOAD PUSH8 0xFFFFFFFFFFFFFFFF DUP2 GT PUSH2 0xAFF JUMPI PUSH2 0x9AE PUSH1 0x2 DUP5 ADD SLOAD PUSH2 0x17AE JUMP JUMPDEST PUSH1 0x1F DUP2 GT PUSH2 0xC5A JUMPI JUMPDEST POP PUSH1 0x20 PUSH1 0x1F DUP3 GT PUSH1 0x1 EQ PUSH2 0xBEE JUMPI DUP2 SWAP3 SWAP4 SWAP5 PUSH1 0x0 SWAP3 PUSH2 0xBE3 JUMPI JUMPDEST POP POP DUP2 PUSH1 0x1 SHL SWAP2 PUSH1 0x0 NOT SWAP1 PUSH1 0x3 SHL SHR NOT AND OR PUSH1 0x2 DUP4 ADD SSTORE JUMPDEST DUP1 MLOAD SWAP2 PUSH1 0x3 DUP2 ADD PUSH8 0xFFFFFFFFFFFFFFFF DUP5 GT PUSH2 0xAFF JUMPI PUSH2 0xA09 DUP2 SLOAD PUSH2 0x17AE JUMP JUMPDEST PUSH1 0x1F DUP2 GT PUSH2 0xB9B JUMPI JUMPDEST POP PUSH1 0x20 SWAP4 PUSH1 0x1F DUP2 GT PUSH1 0x1 EQ PUSH2 0xB36 JUMPI DUP1 SWAP2 SWAP3 SWAP4 SWAP5 PUSH1 0x0 SWAP2 PUSH2 0xB2B JUMPI JUMPDEST POP DUP2 PUSH1 0x1 SHL SWAP2 PUSH1 0x0 NOT SWAP1 PUSH1 0x3 SHL SHR NOT AND OR SWAP1 SSTORE JUMPDEST TIMESTAMP PUSH1 0x6 DUP3 ADD SSTORE PUSH3 0x93A80 TIMESTAMP ADD SWAP1 DUP2 TIMESTAMP GT PUSH2 0xB15 JUMPI PUSH1 0x7 ADD SSTORE PUSH1 0x40 MLOAD PUSH1 0x20 DUP2 DUP4 MLOAD PUSH2 0xA6F DUP2 DUP4 DUP6 DUP9 ADD PUSH2 0x18AF JUMP JUMPDEST DUP2 ADD PUSH1 0x5 DUP2 MSTORE SUB ADD SWAP1 KECCAK256 SWAP1 PUSH1 0x7 SLOAD DUP3 SLOAD SWAP3 PUSH9 0x10000000000000000 DUP5 LT ISZERO PUSH2 0xAFF JUMPI DUP4 PUSH2 0xAA3 SWAP2 PUSH1 0x1 PUSH1 0x20 SWAP7 ADD DUP2 SSTORE PUSH2 0x1A0F JUMP JUMPDEST DUP2 SWAP3 SWAP2 SLOAD SWAP1 PUSH1 0x3 SHL SWAP2 DUP3 SHL SWAP2 PUSH1 0x0 NOT SWAP1 SHL NOT AND OR SWAP1 SSTORE PUSH1 0x7 SLOAD SWAP1 DUP2 PUSH32 0x7585F467599D0F008985F231AF99293BE388626AC16CA59505C2F8F88969CD63 PUSH1 0x40 MLOAD DUP6 DUP2 MSTORE DUP1 PUSH2 0xAF4 CALLER SWAP6 DUP9 DUP4 ADD SWAP1 PUSH2 0x18D2 JUMP JUMPDEST SUB SWAP1 LOG3 PUSH1 0x40 MLOAD SWAP1 DUP2 MSTORE RETURN JUMPDEST PUSH4 0x4E487B71 PUSH1 0xE0 SHL PUSH1 0x0 MSTORE PUSH1 0x41 PUSH1 0x4 MSTORE PUSH1 0x24 PUSH1 0x0 REVERT JUMPDEST PUSH4 0x4E487B71 PUSH1 0xE0 SHL PUSH1 0x0 MSTORE PUSH1 0x11 PUSH1 0x4 MSTORE PUSH1 0x24 PUSH1 0x0 REVERT JUMPDEST SWAP1 POP DUP5 ADD MLOAD DUP6 PUSH2 0xA2E JUMP JUMPDEST PUSH1 0x1F NOT DUP2 AND SWAP5 DUP3 PUSH1 0x0 MSTORE PUSH1 0x20 PUSH1 0x0 KECCAK256 SWAP1 PUSH1 0x0 JUMPDEST DUP8 DUP2 LT PUSH2 0xB83 JUMPI POP DUP3 PUSH1 0x1 SWAP5 SWAP6 SWAP7 SWAP8 LT PUSH2 0xB6A JUMPI JUMPDEST POP POP DUP2 SHL ADD SWAP1 SSTORE PUSH2 0xA42 JUMP JUMPDEST DUP7 ADD MLOAD PUSH1 0x0 NOT PUSH1 0xF8 DUP5 PUSH1 0x3 SHL AND SHR NOT AND SWAP1 SSTORE DUP6 DUP1 PUSH2 0xB5E JUMP JUMPDEST SWAP1 SWAP2 PUSH1 0x20 PUSH1 0x1 DUP2 SWAP3 DUP6 DUP11 ADD MLOAD DUP2 SSTORE ADD SWAP4 ADD SWAP2 ADD PUSH2 0xB49 JUMP JUMPDEST DUP2 PUSH1 0x0 MSTORE PUSH1 0x20 PUSH1 0x0 KECCAK256 PUSH1 0x1F DUP7 ADD PUSH1 0x5 SHR DUP2 ADD SWAP2 PUSH1 0x20 DUP8 LT PUSH2 0xBD9 JUMPI JUMPDEST PUSH1 0x1F ADD PUSH1 0x5 SHR ADD SWAP1 JUMPDEST DUP2 DUP2 LT PUSH2 0xBCD JUMPI POP PUSH2 0xA12 JUMP JUMPDEST PUSH1 0x0 DUP2 SSTORE PUSH1 0x1 ADD PUSH2 0xBC0 JUMP JUMPDEST SWAP1 SWAP2 POP DUP2 SWAP1 PUSH2 0xBB7 JUMP JUMPDEST ADD MLOAD SWAP1 POP DUP5 DUP1 PUSH2 0x9D1 JUMP JUMPDEST PUSH1 0x1F NOT DUP3 AND SWAP1 PUSH1 0x2 DUP6 ADD PUSH1 0x0 MSTORE PUSH1 0x20 PUSH1 0x0 KECCAK256 SWAP2 PUSH1 0x0 JUMPDEST DUP2 DUP2 LT PUSH2 0xC42 JUMPI POP SWAP6 DUP4 PUSH1 0x1 SWAP6 SWAP7 SWAP8 LT PUSH2 0xC29 JUMPI JUMPDEST POP POP POP DUP2 SHL ADD PUSH1 0x2 DUP4 ADD SSTORE PUSH2 0x9E9 JUMP JUMPDEST ADD MLOAD PUSH1 0x0 NOT PUSH1 0xF8 DUP5 PUSH1 0x3 SHL AND SHR NOT AND SWAP1 SSTORE DUP5 DUP1 DUP1 PUSH2 0xC19 JUMP JUMPDEST SWAP2 SWAP3 PUSH1 0x20 PUSH1 0x1 DUP2 SWAP3 DUP7 DUP12 ADD MLOAD DUP2 SSTORE ADD SWAP5 ADD SWAP3 ADD PUSH2 0xC04 JUMP JUMPDEST PUSH1 0x2 DUP5 ADD PUSH1 0x0 MSTORE PUSH1 0x20 PUSH1 0x0 KECCAK256 PUSH1 0x1F DUP4 ADD PUSH1 0x5 SHR DUP2 ADD PUSH1 0x20 DUP5 LT PUSH2 0xC9A JUMPI JUMPDEST PUSH1 0x1F DUP4 ADD PUSH1 0x5 SHR DUP3 ADD DUP2 LT PUSH2 0xC8E JUMPI POP POP PUSH2 0x9B7 JUMP JUMPDEST PUSH1 0x0 DUP2 SSTORE PUSH1 0x1 ADD PUSH2 0xC78 JUMP JUMPDEST POP DUP1 PUSH2 0xC78 JUMP JUMPDEST PUSH1 0x40 MLOAD PUSH3 0x461BCD PUSH1 0xE5 SHL DUP2 MSTORE PUSH1 0x20 PUSH1 0x4 DUP3 ADD MSTORE PUSH1 0x10 PUSH1 0x24 DUP3 ADD MSTORE PUSH16 0x496E76616C69642063617465676F7279 PUSH1 0x80 SHL PUSH1 0x44 DUP3 ADD MSTORE PUSH1 0x64 SWAP1 REVERT JUMPDEST PUSH2 0xCE2 DUP2 PUSH2 0x19C2 JUMP JUMPDEST POP PUSH1 0x40 MLOAD SWAP1 DUP2 PUSH1 0x0 DUP3 SLOAD SWAP3 PUSH2 0xCF6 DUP5 PUSH2 0x17AE JUMP JUMPDEST DUP1 DUP5 MSTORE SWAP4 PUSH1 0x1 DUP2 AND SWAP1 DUP2 ISZERO PUSH2 0xD87 JUMPI POP PUSH1 0x1 EQ PUSH2 0xD42 JUMPI JUMPDEST POP PUSH2 0xD1B SWAP3 POP SUB DUP3 PUSH2 0x17E8 JUMP JUMPDEST PUSH1 0x20 DUP2 MLOAD SWAP2 ADD KECCAK256 DUP5 MLOAD PUSH1 0x20 DUP7 ADD KECCAK256 EQ PUSH2 0xD36 JUMPI PUSH1 0x1 ADD PUSH2 0x941 JUMP JUMPDEST POP POP POP PUSH1 0x1 DUP4 DUP1 PUSH2 0x949 JUMP JUMPDEST SWAP2 POP POP PUSH1 0x0 MSTORE DUP2 PUSH1 0x20 PUSH1 0x0 KECCAK256 SWAP2 PUSH1 0x0 SWAP3 JUMPDEST DUP2 DUP5 LT PUSH2 0xD6B JUMPI POP POP PUSH1 0x20 PUSH2 0xD1B SWAP3 DUP3 ADD ADD DUP10 PUSH2 0xD0E JUMP JUMPDEST PUSH1 0x20 SWAP2 SWAP3 POP DUP1 PUSH1 0x1 SWAP2 SLOAD DUP4 DUP7 DUP9 ADD ADD MSTORE ADD SWAP3 ADD SWAP2 SWAP1 DUP4 SWAP2 PUSH2 0xD53 JUMP JUMPDEST SWAP1 POP PUSH1 0x20 SWAP3 POP PUSH2 0xD1B SWAP5 SWAP2 POP PUSH1 0xFF NOT AND DUP3 DUP5 ADD MSTORE ISZERO ISZERO PUSH1 0x5 SHL DUP3 ADD ADD DUP10 PUSH2 0xD0E JUMP JUMPDEST CALLVALUE PUSH2 0x1A5 JUMPI PUSH1 0x20 CALLDATASIZE PUSH1 0x3 NOT ADD SLT PUSH2 0x1A5 JUMPI PUSH1 0x4 CALLDATALOAD PUSH1 0x1 PUSH1 0x1 PUSH1 0xA0 SHL SUB DUP2 AND SWAP1 DUP2 SWAP1 SUB PUSH2 0x1A5 JUMPI PUSH2 0xDD7 PUSH2 0x1BFC JUMP JUMPDEST DUP1 PUSH1 0x0 MSTORE PUSH1 0x2 PUSH1 0x20 MSTORE PUSH2 0xDF2 PUSH1 0xFF PUSH1 0x40 PUSH1 0x0 KECCAK256 SLOAD AND ISZERO PUSH2 0x1A27 JUMP JUMPDEST DUP1 PUSH1 0x0 MSTORE PUSH1 0x2 PUSH1 0x20 MSTORE PUSH1 0x40 PUSH1 0x0 KECCAK256 PUSH1 0x1 PUSH1 0xFF NOT DUP3 SLOAD AND OR SWAP1 SSTORE PUSH32 0xA41A5DDBF02B01025C5AC32C2038F209EABE5DDB2A83444F2ACBFE9F91DC8827 PUSH1 0x0 DUP1 LOG2 STOP JUMPDEST PUSH1 0x0 CALLDATASIZE PUSH1 0x3 NOT ADD SLT PUSH2 0x1A5 JUMPI CALLER PUSH1 0x0 MSTORE PUSH1 0x2 PUSH1 0x20 MSTORE PUSH2 0xE58 PUSH1 0xFF PUSH1 0x40 PUSH1 0x0 KECCAK256 SLOAD AND PUSH2 0x1B43 JUMP JUMPDEST CALLVALUE ISZERO PUSH2 0xEB6 JUMPI CALLER PUSH1 0x0 MSTORE PUSH1 0x3 PUSH1 0x20 MSTORE PUSH1 0x40 PUSH1 0x0 KECCAK256 PUSH2 0xE77 CALLVALUE DUP3 SLOAD PUSH2 0x1A66 JUMP JUMPDEST SWAP1 SSTORE PUSH2 0xE85 CALLVALUE PUSH1 0x8 SLOAD PUSH2 0x1A66 JUMP JUMPDEST PUSH1 0x8 SSTORE PUSH1 0x40 MLOAD CALLVALUE DUP2 MSTORE PUSH32 0xA7BB2E28CC4698AAC06DB79CF9163BFCC20719286CF59FA7D492CEDA1B8EDC2 PUSH1 0x20 CALLER SWAP3 LOG2 STOP JUMPDEST PUSH1 0x40 MLOAD PUSH3 0x461BCD PUSH1 0xE5 SHL DUP2 MSTORE PUSH1 0x20 PUSH1 0x4 DUP3 ADD MSTORE PUSH1 0xD PUSH1 0x24 DUP3 ADD MSTORE PUSH13 0x9AEAE6E840E6CADCC8408AA89 PUSH1 0x9B SHL PUSH1 0x44 DUP3 ADD MSTORE PUSH1 0x64 SWAP1 REVERT JUMPDEST CALLVALUE PUSH2 0x1A5 JUMPI PUSH1 0x0 CALLDATASIZE PUSH1 0x3 NOT ADD SLT PUSH2 0x1A5 JUMPI PUSH1 0x6 SLOAD PUSH8 0xFFFFFFFFFFFFFFFF DUP2 GT PUSH2 0xAFF JUMPI PUSH1 0x20 PUSH1 0x40 MLOAD SWAP2 PUSH2 0xF23 DUP3 DUP3 PUSH1 0x5 SHL ADD DUP5 PUSH2 0x17E8 JUMP JUMPDEST DUP1 DUP4 MSTORE DUP2 DUP4 ADD SWAP1 DUP2 PUSH1 0x6 PUSH1 0x0 MSTORE PUSH32 0xF652222313E28459528D920B65115C16C04F3EFC82AAEDC97BE59F3F377C0D3F PUSH1 0x0 SWAP2 JUMPDEST DUP4 DUP4 LT PUSH2 0xFBC JUMPI POP POP POP POP PUSH1 0x40 MLOAD SWAP2 DUP1 DUP4 ADD SWAP4 DUP2 DUP5 MSTORE MLOAD DUP1 SWAP5 MSTORE PUSH1 0x40 DUP4 ADD SWAP4 PUSH1 0x40 DUP2 PUSH1 0x5 SHL DUP6 ADD ADD SWAP3 SWAP2 PUSH1 0x0 SWAP6 JUMPDEST DUP3 DUP8 LT PUSH2 0xF90 JUMPI DUP6 DUP6 SUB DUP7 RETURN JUMPDEST SWAP1 SWAP2 SWAP3 SWAP4 DUP3 DUP1 PUSH2 0xFAC PUSH1 0x1 SWAP4 PUSH1 0x3F NOT DUP11 DUP3 SUB ADD DUP7 MSTORE DUP9 MLOAD PUSH2 0x18D2 JUMP JUMPDEST SWAP7 ADD SWAP3 ADD SWAP7 ADD SWAP6 SWAP3 SWAP2 SWAP1 SWAP3 PUSH2 0xF83 JUMP JUMPDEST PUSH1 0x1 DUP7 DUP2 SWAP3 PUSH2 0xFCD DUP6 SWAP11 SWAP10 SWAP11 PUSH2 0x180A JUMP JUMPDEST DUP2 MSTORE ADD SWAP3 ADD SWAP3 ADD SWAP2 SWAP1 SWAP6 SWAP5 SWAP6 PUSH2 0xF55 JUMP JUMPDEST CALLVALUE PUSH2 0x1A5 JUMPI PUSH1 0x20 CALLDATASIZE PUSH1 0x3 NOT ADD SLT PUSH2 0x1A5 JUMPI PUSH2 0x354 PUSH2 0x1BFC JUMP JUMPDEST CALLVALUE PUSH2 0x1A5 JUMPI PUSH1 0x40 CALLDATASIZE PUSH1 0x3 NOT ADD SLT PUSH2 0x1A5 JUMPI PUSH1 0x4 CALLDATALOAD PUSH8 0xFFFFFFFFFFFFFFFF DUP2 GT PUSH2 0x1A5 JUMPI PUSH2 0x1028 SWAP1 CALLDATASIZE SWAP1 PUSH1 0x4 ADD PUSH2 0x197B JUMP JUMPDEST PUSH2 0x1044 PUSH1 0x20 PUSH1 0x24 CALLDATALOAD SWAP3 DUP2 PUSH1 0x40 MLOAD SWAP4 DUP3 DUP6 DUP1 SWAP5 MLOAD SWAP4 DUP5 SWAP3 ADD PUSH2 0x18AF JUMP JUMPDEST DUP2 ADD PUSH1 0x5 DUP2 MSTORE SUB ADD SWAP1 KECCAK256 DUP1 SLOAD DUP3 LT ISZERO PUSH2 0x1A5 JUMPI PUSH1 0x20 SWAP2 PUSH2 0x1063 SWAP2 PUSH2 0x1A0F JUMP JUMPDEST SWAP1 SLOAD PUSH1 0x40 MLOAD SWAP2 PUSH1 0x3 SHL SHR DUP2 MSTORE RETURN JUMPDEST CALLVALUE PUSH2 0x1A5 JUMPI PUSH1 0x20 CALLDATASIZE PUSH1 0x3 NOT ADD SLT PUSH2 0x1A5 JUMPI PUSH1 0x4 CALLDATALOAD PUSH1 0x1 PUSH1 0x1 PUSH1 0xA0 SHL SUB DUP2 AND SWAP1 DUP2 SWAP1 SUB PUSH2 0x1A5 JUMPI PUSH2 0x109F PUSH2 0x1BFC JUMP JUMPDEST DUP1 PUSH1 0x0 MSTORE PUSH1 0x2 PUSH1 0x20 MSTORE PUSH2 0x10B9 PUSH1 0xFF PUSH1 0x40 PUSH1 0x0 KECCAK256 SLOAD AND PUSH2 0x1B43 JUMP JUMPDEST DUP1 PUSH1 0x0 MSTORE PUSH1 0x3 PUSH1 0x20 MSTORE DUP1 PUSH1 0x40 PUSH1 0x0 KECCAK256 DUP1 SLOAD SWAP1 DUP2 PUSH2 0x110F JUMPI JUMPDEST POP POP PUSH1 0x0 MSTORE PUSH1 0x2 PUSH1 0x20 MSTORE PUSH1 0x40 PUSH1 0x0 KECCAK256 PUSH1 0xFF NOT DUP2 SLOAD AND SWAP1 SSTORE PUSH32 0xA22F826CFA669B4680F0CA673F9E9021392CFE223EF797FAF4005F9C8DC4D14B PUSH1 0x0 DUP1 LOG2 STOP JUMPDEST PUSH32 0x8108595EB6BAD3ACEFA9DA467D90CC2217686D5C5AC85460F8B7849C840645FC SWAP2 PUSH1 0x0 PUSH1 0x20 SWAP3 SSTORE PUSH2 0x1143 DUP2 PUSH1 0x8 SLOAD PUSH2 0x1B7E JUMP JUMPDEST PUSH1 0x8 SSTORE PUSH2 0x115A PUSH1 0x0 DUP1 DUP1 DUP1 DUP6 DUP10 GAS CALL PUSH2 0x34E PUSH2 0x1B8B JUMP JUMPDEST PUSH1 0x40 MLOAD SWAP1 DUP2 MSTORE LOG2 DUP1 DUP3 DUP1 PUSH2 0x10D1 JUMP JUMPDEST CALLVALUE PUSH2 0x1A5 JUMPI PUSH1 0x0 CALLDATASIZE PUSH1 0x3 NOT ADD SLT PUSH2 0x1A5 JUMPI PUSH1 0x20 PUSH1 0x40 MLOAD PUSH3 0x93A80 DUP2 MSTORE RETURN JUMPDEST CALLVALUE PUSH2 0x1A5 JUMPI PUSH1 0x40 CALLDATASIZE PUSH1 0x3 NOT ADD SLT PUSH2 0x1A5 JUMPI PUSH1 0x24 DUP1 CALLDATALOAD DUP1 ISZERO ISZERO SWAP1 PUSH1 0x4 CALLDATALOAD SWAP1 DUP3 DUP2 SUB PUSH2 0x1A5 JUMPI DUP2 PUSH1 0x0 MSTORE PUSH1 0x20 SWAP1 PUSH1 0x4 DUP3 MSTORE PUSH1 0x40 PUSH1 0x0 KECCAK256 PUSH2 0x11C7 DUP2 SLOAD ISZERO ISZERO PUSH2 0x1A73 JUMP JUMPDEST PUSH1 0x6 DUP2 ADD SLOAD TIMESTAMP LT PUSH2 0x13B9 JUMPI PUSH1 0x7 DUP2 ADD SLOAD TIMESTAMP GT PUSH2 0x1386 JUMPI PUSH1 0x9 DUP2 ADD CALLER PUSH1 0x0 MSTORE DUP1 DUP5 MSTORE PUSH1 0xFF PUSH1 0x40 PUSH1 0x0 KECCAK256 SLOAD AND PUSH2 0x1352 JUMPI CALLER PUSH1 0x0 MSTORE PUSH1 0x2 DUP5 MSTORE PUSH2 0x120E PUSH1 0xFF PUSH1 0x40 PUSH1 0x0 KECCAK256 SLOAD AND PUSH2 0x1AFE JUMP JUMPDEST CALLER PUSH1 0x0 MSTORE DUP4 MSTORE PUSH1 0x40 PUSH1 0x0 KECCAK256 PUSH1 0xFF NOT SWAP1 PUSH1 0x1 DUP3 DUP3 SLOAD AND OR SWAP1 SSTORE PUSH1 0xA DUP3 ADD DUP5 MSTORE PUSH1 0x40 PUSH1 0x0 KECCAK256 SWAP1 DUP2 SLOAD AND PUSH1 0xFF DUP8 AND OR SWAP1 SSTORE PUSH1 0x3 DUP4 MSTORE DUP6 PUSH1 0x40 PUSH1 0x0 KECCAK256 SLOAD DUP5 PUSH1 0x1 DUP1 PUSH1 0xA0 SHL SUB PUSH1 0x9 SLOAD AND PUSH1 0x40 MLOAD SWAP4 DUP5 DUP1 SWAP3 PUSH4 0x70A08231 PUSH1 0xE0 SHL DUP3 MSTORE CALLER PUSH1 0x4 DUP4 ADD MSTORE GAS STATICCALL SWAP1 DUP2 ISZERO PUSH2 0x6AD JUMPI PUSH1 0x0 SWAP2 PUSH2 0x1321 JUMPI JUMPDEST PUSH2 0x1285 SWAP3 POP PUSH2 0x1A66 JUMP JUMPDEST SWAP2 DUP3 ISZERO PUSH2 0x12EB JUMPI PUSH32 0xE71FCDAC32DF1877C1700E7BDA2A03157E20993363A28FC35AC495CEFC76E4D4 SWAP5 SWAP6 SWAP7 POP PUSH1 0x0 EQ PUSH2 0x12D5 JUMPI PUSH1 0x4 PUSH2 0x12C7 SWAP2 ADD SWAP2 DUP3 SLOAD PUSH2 0x1A66 JUMP JUMPDEST SWAP1 SSTORE JUMPDEST PUSH1 0x40 MLOAD SWAP4 DUP5 MSTORE CALLER SWAP4 LOG3 STOP JUMPDEST PUSH1 0x5 PUSH2 0x12E4 SWAP2 ADD SWAP2 DUP3 SLOAD PUSH2 0x1A66 JUMP JUMPDEST SWAP1 SSTORE PUSH2 0x12CA JUMP JUMPDEST PUSH1 0x40 MLOAD PUSH3 0x461BCD PUSH1 0xE5 SHL DUP2 MSTORE PUSH1 0x4 DUP2 ADD DUP6 SWAP1 MSTORE PUSH1 0xF DUP2 DUP10 ADD MSTORE PUSH15 0x2737903B37BA34B733903837BBB2B9 PUSH1 0x89 SHL PUSH1 0x44 DUP3 ADD MSTORE PUSH1 0x64 SWAP1 REVERT JUMPDEST SWAP1 POP DUP5 DUP3 DUP2 RETURNDATASIZE DUP4 GT PUSH2 0x134B JUMPI JUMPDEST PUSH2 0x1338 DUP2 DUP4 PUSH2 0x17E8 JUMP JUMPDEST DUP2 ADD SUB SLT PUSH2 0x1A5 JUMPI PUSH2 0x1285 SWAP2 MLOAD SWAP1 PUSH2 0x127B JUMP JUMPDEST POP RETURNDATASIZE PUSH2 0x132E JUMP JUMPDEST PUSH1 0x40 MLOAD PUSH3 0x461BCD PUSH1 0xE5 SHL DUP2 MSTORE PUSH1 0x4 DUP2 ADD DUP6 SWAP1 MSTORE PUSH1 0xD DUP2 DUP10 ADD MSTORE PUSH13 0x105B1C9958591E481D9BDD1959 PUSH1 0x9A SHL PUSH1 0x44 DUP3 ADD MSTORE PUSH1 0x64 SWAP1 REVERT JUMPDEST PUSH1 0x40 MLOAD PUSH3 0x461BCD PUSH1 0xE5 SHL DUP2 MSTORE PUSH1 0x4 DUP2 ADD DUP5 SWAP1 MSTORE PUSH1 0xC DUP2 DUP9 ADD MSTORE PUSH12 0x159BDD1A5B99C8195B991959 PUSH1 0xA2 SHL PUSH1 0x44 DUP3 ADD MSTORE PUSH1 0x64 SWAP1 REVERT JUMPDEST PUSH1 0x40 MLOAD PUSH3 0x461BCD PUSH1 0xE5 SHL DUP2 MSTORE PUSH1 0x4 DUP2 ADD DUP5 SWAP1 MSTORE PUSH1 0x12 DUP2 DUP9 ADD MSTORE PUSH18 0x159BDD1A5B99C81B9BDD081CDD185C9D1959 PUSH1 0x72 SHL PUSH1 0x44 DUP3 ADD MSTORE PUSH1 0x64 SWAP1 REVERT JUMPDEST CALLVALUE PUSH2 0x1A5 JUMPI PUSH1 0x20 DUP1 PUSH1 0x3 NOT CALLDATASIZE ADD SLT PUSH2 0x1A5 JUMPI PUSH1 0x4 CALLDATALOAD SWAP1 DUP2 PUSH1 0x0 MSTORE PUSH1 0x4 DUP2 MSTORE PUSH1 0x40 PUSH1 0x0 KECCAK256 PUSH2 0x1421 DUP2 SLOAD ISZERO ISZERO PUSH2 0x1A73 JUMP JUMPDEST PUSH1 0x7 DUP2 ADD SLOAD TIMESTAMP GT ISZERO PUSH2 0x15D1 JUMPI PUSH1 0x8 DUP2 ADD SWAP2 DUP3 SLOAD SWAP2 PUSH2 0x1442 PUSH1 0xFF DUP5 AND ISZERO PUSH2 0x1ABF JUMP JUMPDEST PUSH1 0xFF DUP4 PUSH1 0x8 SHR AND PUSH2 0x1598 JUMPI PUSH1 0x5 PUSH1 0x4 DUP3 ADD SLOAD SWAP2 ADD SLOAD SWAP1 PUSH2 0x1462 DUP3 DUP3 PUSH2 0x1A66 JUMP JUMPDEST PUSH1 0x8 SLOAD PUSH1 0x9 SLOAD PUSH1 0x40 MLOAD PUSH4 0x18160DDD PUSH1 0xE0 SHL DUP2 MSTORE SWAP2 SWAP1 DUP7 SWAP1 DUP4 SWAP1 PUSH1 0x4 SWAP1 DUP3 SWAP1 PUSH1 0x1 PUSH1 0x1 PUSH1 0xA0 SHL SUB AND GAS STATICCALL SWAP1 DUP2 ISZERO PUSH2 0x6AD JUMPI PUSH1 0x0 SWAP2 PUSH2 0x1567 JUMPI JUMPDEST PUSH2 0x14A4 SWAP3 POP PUSH2 0x1A66 JUMP JUMPDEST PUSH1 0xA DUP2 MUL SWAP1 DUP1 DUP3 DIV PUSH1 0xA EQ SWAP1 ISZERO OR ISZERO PUSH2 0xB15 JUMPI PUSH1 0x64 SWAP1 DIV GT PUSH2 0x152D JUMPI GT ISZERO PUSH2 0x14F7 JUMPI POP PUSH1 0xFF NOT AND PUSH1 0x1 OR SWAP1 SSTORE PUSH32 0x712AE1383F79AC853F8D882153778E0260EF8F03B504E2866E0593E04D2B291F PUSH1 0x0 DUP1 LOG2 STOP JUMPDEST PUSH1 0x64 SWAP1 PUSH1 0x40 MLOAD SWAP1 PUSH3 0x461BCD PUSH1 0xE5 SHL DUP3 MSTORE PUSH1 0x4 DUP3 ADD MSTORE PUSH1 0xF PUSH1 0x24 DUP3 ADD MSTORE PUSH15 0x141C9BDC1BDCD85B0819985A5B1959 PUSH1 0x8A SHL PUSH1 0x44 DUP3 ADD MSTORE REVERT JUMPDEST PUSH1 0x40 MLOAD PUSH3 0x461BCD PUSH1 0xE5 SHL DUP2 MSTORE PUSH1 0x4 DUP2 ADD DUP5 SWAP1 MSTORE PUSH1 0x12 PUSH1 0x24 DUP3 ADD MSTORE PUSH18 0x145D5BDC9D5B481B9BDD081C995858DA1959 PUSH1 0x72 SHL PUSH1 0x44 DUP3 ADD MSTORE PUSH1 0x64 SWAP1 REVERT JUMPDEST SWAP1 POP DUP6 DUP3 DUP2 RETURNDATASIZE DUP4 GT PUSH2 0x1591 JUMPI JUMPDEST PUSH2 0x157E DUP2 DUP4 PUSH2 0x17E8 JUMP JUMPDEST DUP2 ADD SUB SLT PUSH2 0x1A5 JUMPI PUSH2 0x14A4 SWAP2 MLOAD SWAP1 PUSH2 0x149A JUMP JUMPDEST POP RETURNDATASIZE PUSH2 0x1574 JUMP JUMPDEST PUSH1 0x40 MLOAD PUSH3 0x461BCD PUSH1 0xE5 SHL DUP2 MSTORE PUSH1 0x4 DUP2 ADD DUP4 SWAP1 MSTORE PUSH1 0x11 PUSH1 0x24 DUP3 ADD MSTORE PUSH17 0x141C9BDC1BDCD85B0818D85B98D95B1959 PUSH1 0x7A SHL PUSH1 0x44 DUP3 ADD MSTORE PUSH1 0x64 SWAP1 REVERT JUMPDEST PUSH1 0x40 MLOAD PUSH3 0x461BCD PUSH1 0xE5 SHL DUP2 MSTORE PUSH1 0x4 DUP2 ADD DUP4 SWAP1 MSTORE PUSH1 0x10 PUSH1 0x24 DUP3 ADD MSTORE PUSH16 0x159BDD1A5B99C81B9BDD08195B991959 PUSH1 0x82 SHL PUSH1 0x44 DUP3 ADD MSTORE PUSH1 0x64 SWAP1 REVERT JUMPDEST PUSH1 0x0 CALLDATASIZE PUSH1 0x3 NOT ADD SLT PUSH2 0x1A5 JUMPI PUSH7 0x11C37937E08000 CALLVALUE LT PUSH2 0x16C6 JUMPI CALLER PUSH1 0x0 MSTORE PUSH1 0x2 PUSH1 0x20 MSTORE PUSH2 0x163E PUSH1 0xFF PUSH1 0x40 PUSH1 0x0 KECCAK256 SLOAD AND ISZERO PUSH2 0x1A27 JUMP JUMPDEST CALLER PUSH1 0x0 MSTORE PUSH1 0x3 PUSH1 0x20 MSTORE CALLVALUE PUSH1 0x40 PUSH1 0x0 KECCAK256 SSTORE PUSH1 0x2 PUSH1 0x20 MSTORE PUSH1 0x40 PUSH1 0x0 KECCAK256 PUSH1 0x1 PUSH1 0xFF NOT DUP3 SLOAD AND OR SWAP1 SSTORE PUSH2 0x166F CALLVALUE PUSH1 0x8 SLOAD PUSH2 0x1A66 JUMP JUMPDEST PUSH1 0x8 SSTORE PUSH1 0x40 MLOAD CALLVALUE DUP2 MSTORE PUSH32 0xA7BB2E28CC4698AAC06DB79CF9163BFCC20719286CF59FA7D492CEDA1B8EDC2 PUSH1 0x20 CALLER SWAP3 LOG2 CALLER PUSH32 0xA41A5DDBF02B01025C5AC32C2038F209EABE5DDB2A83444F2ACBFE9F91DC8827 PUSH1 0x0 DUP1 LOG2 STOP JUMPDEST PUSH1 0x40 MLOAD PUSH3 0x461BCD PUSH1 0xE5 SHL DUP2 MSTORE PUSH1 0x20 PUSH1 0x4 DUP3 ADD MSTORE PUSH1 0x19 PUSH1 0x24 DUP3 ADD MSTORE PUSH32 0x496E73756666696369656E74207374616B6520616D6F756E7400000000000000 PUSH1 0x44 DUP3 ADD MSTORE PUSH1 0x64 SWAP1 REVERT JUMPDEST CALLVALUE PUSH2 0x1A5 JUMPI PUSH1 0x0 CALLDATASIZE PUSH1 0x3 NOT ADD SLT PUSH2 0x1A5 JUMPI PUSH1 0x20 PUSH1 0x40 MLOAD PUSH7 0x11C37937E08000 DUP2 MSTORE RETURN JUMPDEST CALLVALUE PUSH2 0x1A5 JUMPI PUSH1 0x20 CALLDATASIZE PUSH1 0x3 NOT ADD SLT PUSH2 0x1A5 JUMPI PUSH1 0x4 CALLDATALOAD PUSH1 0x0 MSTORE PUSH1 0x4 PUSH1 0x20 MSTORE PUSH1 0x40 PUSH1 0x0 KECCAK256 DUP1 SLOAD SWAP1 PUSH2 0x44A PUSH1 0x1 DUP1 PUSH1 0xA0 SHL SUB PUSH1 0x1 DUP4 ADD SLOAD AND SWAP2 PUSH2 0x176E PUSH1 0x2 DUP3 ADD PUSH2 0x180A JUMP JUMPDEST SWAP4 PUSH2 0x177B PUSH1 0x3 DUP4 ADD PUSH2 0x180A JUMP JUMPDEST SWAP2 PUSH1 0x4 DUP2 ADD SLOAD PUSH1 0x5 DUP3 ADD SLOAD PUSH1 0x6 DUP4 ADD SLOAD SWAP2 PUSH1 0x8 PUSH1 0x7 DUP6 ADD SLOAD SWAP5 ADD SLOAD SWAP6 PUSH1 0x40 MLOAD SWAP10 DUP11 SWAP10 PUSH1 0xFF DUP1 DUP11 PUSH1 0x8 SHR AND SWAP10 AND SWAP8 DUP12 PUSH2 0x18F7 JUMP JUMPDEST SWAP1 PUSH1 0x1 DUP3 DUP2 SHR SWAP3 AND DUP1 ISZERO PUSH2 0x17DE JUMPI JUMPDEST PUSH1 0x20 DUP4 LT EQ PUSH2 0x17C8 JUMPI JUMP JUMPDEST PUSH4 0x4E487B71 PUSH1 0xE0 SHL PUSH1 0x0 MSTORE PUSH1 0x22 PUSH1 0x4 MSTORE PUSH1 0x24 PUSH1 0x0 REVERT JUMPDEST SWAP2 PUSH1 0x7F AND SWAP2 PUSH2 0x17BD JUMP JUMPDEST SWAP1 PUSH1 0x1F DUP1 NOT SWAP2 ADD AND DUP2 ADD SWAP1 DUP2 LT PUSH8 0xFFFFFFFFFFFFFFFF DUP3 GT OR PUSH2 0xAFF JUMPI PUSH1 0x40 MSTORE JUMP JUMPDEST SWAP1 PUSH1 0x40 MLOAD SWAP2 DUP3 PUSH1 0x0 DUP3 SLOAD PUSH2 0x181D DUP2 PUSH2 0x17AE JUMP JUMPDEST SWAP1 DUP2 DUP5 MSTORE PUSH1 0x20 SWAP5 PUSH1 0x1 SWAP2 PUSH1 0x1 DUP2 AND SWAP1 DUP2 PUSH1 0x0 EQ PUSH2 0x188D JUMPI POP PUSH1 0x1 EQ PUSH2 0x184E JUMPI JUMPDEST POP POP POP PUSH2 0x184C SWAP3 POP SUB DUP4 PUSH2 0x17E8 JUMP JUMPDEST JUMP JUMPDEST PUSH1 0x0 SWAP1 DUP2 MSTORE DUP6 DUP2 KECCAK256 SWAP6 SWAP4 POP SWAP2 SWAP1 JUMPDEST DUP2 DUP4 LT PUSH2 0x1875 JUMPI POP POP PUSH2 0x184C SWAP4 POP DUP3 ADD ADD CODESIZE DUP1 DUP1 PUSH2 0x183D JUMP JUMPDEST DUP6 SLOAD DUP9 DUP5 ADD DUP6 ADD MSTORE SWAP5 DUP6 ADD SWAP5 DUP8 SWAP5 POP SWAP2 DUP4 ADD SWAP2 PUSH2 0x185C JUMP JUMPDEST SWAP3 POP POP POP PUSH2 0x184C SWAP5 SWAP3 POP PUSH1 0xFF NOT AND DUP3 DUP5 ADD MSTORE ISZERO ISZERO PUSH1 0x5 SHL DUP3 ADD ADD CODESIZE DUP1 DUP1 PUSH2 0x183D JUMP JUMPDEST PUSH1 0x0 JUMPDEST DUP4 DUP2 LT PUSH2 0x18C2 JUMPI POP POP PUSH1 0x0 SWAP2 ADD MSTORE JUMP JUMPDEST DUP2 DUP2 ADD MLOAD DUP4 DUP3 ADD MSTORE PUSH1 0x20 ADD PUSH2 0x18B2 JUMP JUMPDEST SWAP1 PUSH1 0x20 SWAP2 PUSH2 0x18EB DUP2 MLOAD DUP1 SWAP3 DUP2 DUP6 MSTORE DUP6 DUP1 DUP7 ADD SWAP2 ADD PUSH2 0x18AF JUMP JUMPDEST PUSH1 0x1F ADD PUSH1 0x1F NOT AND ADD ADD SWAP1 JUMP JUMPDEST SWAP9 SWAP6 SWAP3 PUSH2 0x192D SWAP1 PUSH2 0x120 SWAP10 SWAP7 SWAP13 SWAP12 SWAP9 SWAP6 SWAP3 PUSH2 0x193B SWAP5 PUSH2 0x140 SWAP2 DUP14 MSTORE PUSH1 0x1 DUP1 PUSH1 0xA0 SHL SUB AND PUSH1 0x20 DUP14 ADD MSTORE DUP1 PUSH1 0x40 DUP14 ADD MSTORE DUP12 ADD SWAP1 PUSH2 0x18D2 JUMP JUMPDEST SWAP1 DUP10 DUP3 SUB PUSH1 0x60 DUP12 ADD MSTORE PUSH2 0x18D2 JUMP JUMPDEST SWAP9 PUSH1 0x80 DUP9 ADD MSTORE PUSH1 0xA0 DUP8 ADD MSTORE PUSH1 0xC0 DUP7 ADD MSTORE PUSH1 0xE0 DUP6 ADD MSTORE ISZERO ISZERO PUSH2 0x100 DUP5 ADD MSTORE ISZERO ISZERO SWAP2 ADD MSTORE JUMP JUMPDEST PUSH8 0xFFFFFFFFFFFFFFFF DUP2 GT PUSH2 0xAFF JUMPI PUSH1 0x1F ADD PUSH1 0x1F NOT AND PUSH1 0x20 ADD SWAP1 JUMP JUMPDEST DUP2 PUSH1 0x1F DUP3 ADD SLT ISZERO PUSH2 0x1A5 JUMPI DUP1 CALLDATALOAD SWAP1 PUSH2 0x1992 DUP3 PUSH2 0x195F JUMP JUMPDEST SWAP3 PUSH2 0x19A0 PUSH1 0x40 MLOAD SWAP5 DUP6 PUSH2 0x17E8 JUMP JUMPDEST DUP3 DUP5 MSTORE PUSH1 0x20 DUP4 DUP4 ADD ADD GT PUSH2 0x1A5 JUMPI DUP2 PUSH1 0x0 SWAP3 PUSH1 0x20 DUP1 SWAP4 ADD DUP4 DUP7 ADD CALLDATACOPY DUP4 ADD ADD MSTORE SWAP1 JUMP JUMPDEST PUSH1 0x6 SLOAD DUP2 LT ISZERO PUSH2 0x19F9 JUMPI PUSH1 0x6 PUSH1 0x0 MSTORE PUSH32 0xF652222313E28459528D920B65115C16C04F3EFC82AAEDC97BE59F3F377C0D3F ADD SWAP1 PUSH1 0x0 SWAP1 JUMP JUMPDEST PUSH4 0x4E487B71 PUSH1 0xE0 SHL PUSH1 0x0 MSTORE PUSH1 0x32 PUSH1 0x4 MSTORE PUSH1 0x24 PUSH1 0x0 REVERT JUMPDEST DUP1 SLOAD DUP3 LT ISZERO PUSH2 0x19F9 JUMPI PUSH1 0x0 MSTORE PUSH1 0x20 PUSH1 0x0 KECCAK256 ADD SWAP1 PUSH1 0x0 SWAP1 JUMP JUMPDEST ISZERO PUSH2 0x1A2E JUMPI JUMP JUMPDEST PUSH1 0x40 MLOAD PUSH3 0x461BCD PUSH1 0xE5 SHL DUP2 MSTORE PUSH1 0x20 PUSH1 0x4 DUP3 ADD MSTORE PUSH1 0x10 PUSH1 0x24 DUP3 ADD MSTORE PUSH16 0x20B63932B0B23C90309036B2B6B132B9 PUSH1 0x81 SHL PUSH1 0x44 DUP3 ADD MSTORE PUSH1 0x64 SWAP1 REVERT JUMPDEST SWAP2 SWAP1 DUP3 ADD DUP1 SWAP3 GT PUSH2 0xB15 JUMPI JUMP JUMPDEST ISZERO PUSH2 0x1A7A JUMPI JUMP JUMPDEST PUSH1 0x40 MLOAD PUSH3 0x461BCD PUSH1 0xE5 SHL DUP2 MSTORE PUSH1 0x20 PUSH1 0x4 DUP3 ADD MSTORE PUSH1 0x17 PUSH1 0x24 DUP3 ADD MSTORE PUSH32 0x50726F706F73616C20646F6573206E6F74206578697374000000000000000000 PUSH1 0x44 DUP3 ADD MSTORE PUSH1 0x64 SWAP1 REVERT JUMPDEST ISZERO PUSH2 0x1AC6 JUMPI JUMP JUMPDEST PUSH1 0x40 MLOAD PUSH3 0x461BCD PUSH1 0xE5 SHL DUP2 MSTORE PUSH1 0x20 PUSH1 0x4 DUP3 ADD MSTORE PUSH1 0x10 PUSH1 0x24 DUP3 ADD MSTORE PUSH16 0x105B1C9958591E48195E1958DD5D1959 PUSH1 0x82 SHL PUSH1 0x44 DUP3 ADD MSTORE PUSH1 0x64 SWAP1 REVERT JUMPDEST ISZERO PUSH2 0x1B05 JUMPI JUMP JUMPDEST PUSH1 0x40 MLOAD PUSH3 0x461BCD PUSH1 0xE5 SHL DUP2 MSTORE PUSH1 0x20 PUSH1 0x4 DUP3 ADD MSTORE PUSH1 0x16 PUSH1 0x24 DUP3 ADD MSTORE PUSH22 0x2737BA10309031B7B6B6BAB734BA3C9036B2B6B132B9 PUSH1 0x51 SHL PUSH1 0x44 DUP3 ADD MSTORE PUSH1 0x64 SWAP1 REVERT JUMPDEST ISZERO PUSH2 0x1B4A JUMPI JUMP JUMPDEST PUSH1 0x40 MLOAD PUSH3 0x461BCD PUSH1 0xE5 SHL DUP2 MSTORE PUSH1 0x20 PUSH1 0x4 DUP3 ADD MSTORE PUSH1 0xC PUSH1 0x24 DUP3 ADD MSTORE PUSH12 0x2737BA10309036B2B6B132B9 PUSH1 0xA1 SHL PUSH1 0x44 DUP3 ADD MSTORE PUSH1 0x64 SWAP1 REVERT JUMPDEST SWAP2 SWAP1 DUP3 SUB SWAP2 DUP3 GT PUSH2 0xB15 JUMPI JUMP JUMPDEST RETURNDATASIZE ISZERO PUSH2 0x1BB6 JUMPI RETURNDATASIZE SWAP1 PUSH2 0x1B9C DUP3 PUSH2 0x195F JUMP JUMPDEST SWAP2 PUSH2 0x1BAA PUSH1 0x40 MLOAD SWAP4 DUP5 PUSH2 0x17E8 JUMP JUMPDEST DUP3 MSTORE RETURNDATASIZE PUSH1 0x0 PUSH1 0x20 DUP5 ADD RETURNDATACOPY JUMP JUMPDEST PUSH1 0x60 SWAP1 JUMP JUMPDEST ISZERO PUSH2 0x1BC2 JUMPI JUMP JUMPDEST PUSH1 0x40 MLOAD PUSH3 0x461BCD PUSH1 0xE5 SHL DUP2 MSTORE PUSH1 0x20 PUSH1 0x4 DUP3 ADD MSTORE PUSH1 0x12 PUSH1 0x24 DUP3 ADD MSTORE PUSH18 0x8CC2D2D8CAC840E8DE40E6CADCC8408AA89 PUSH1 0x73 SHL PUSH1 0x44 DUP3 ADD MSTORE PUSH1 0x64 SWAP1 REVERT JUMPDEST PUSH1 0x0 SLOAD PUSH1 0x1 PUSH1 0x1 PUSH1 0xA0 SHL SUB AND CALLER SUB PUSH2 0x1C10 JUMPI JUMP JUMPDEST PUSH1 0x40 MLOAD PUSH4 0x118CDAA7 PUSH1 0xE0 SHL DUP2 MSTORE CALLER PUSH1 0x4 DUP3 ADD MSTORE PUSH1 0x24 SWAP1 REVERT INVALID LOG2 PUSH5 0x6970667358 0x22 SLT KECCAK256 OR EXTCODEHASH 0xE4 RETURNDATASIZE 0xC7 TLOAD 0xDA SAR PUSH13 0x7C674EC4DBF56754CC7BE5646F 0xE2 PUSH23 0xD1FD210C68CF62A164736F6C6343000818003300000000 "},"methodIdentifiers":{"BASE_QUORUM_PERCENTAGE()":"873aed02","BASE_VOTING_PERIOD()":"286b87c0","MINIMUM_STAKE()":"08dbbb03","addCommunityMember(address)":"5c627358","addStake()":"5a627dbc","cancelProposal(uint256)":"e0a8f6f5","castVote(uint256,bool)":"15373e3d","categories(uint256)":"c6cdbe5e","categoryProposals(string,uint256)":"43390e3a","communityMembers(address)":"8c95aef9","createProposal(string,string)":"65e481e2","emergencyWithdraw()":"db2e21bc","executeProposal(uint256)":"0d61b519","getCategories()":"4db0412c","getMemberStake(address)":"85b36d7b","getProposal(uint256)":"c7f758a8","getProposalsByCategory(string)":"960af7a3","getTreasuryBalance()":"9b5655dc","getVotes(address)":"9ab24eb0","governanceToken()":"f96dae0a","isCommunityMember(address)":"2f676b65","joinDAOWithStake()":"09a81d4b","memberStakes(address)":"24cdf458","owner()":"8da5cb5b","proposalCount()":"da35c664","proposals(uint256)":"013cf08b","removeCommunityMember(address)":"2dbf645a","renounceOwnership()":"715018a6","totalStaked()":"817b1cd2","transferOwnership(address)":"f2fde38b","updateMinimumStake(uint256)":"4c41e880","withdrawStake()":"bed9d861"}},"storageLayout":{"storage":[{"astId":8,"contract":"contracts/BaseCommunityDAOWithStaking.sol:BaseCommunityDAOWithStaking","label":"_owner","offset":0,"slot":"0","type":"t_address"},{"astId":266,"contract":"contracts/BaseCommunityDAOWithStaking.sol:BaseCommunityDAOWithStaking","label":"_status","offset":0,"slot":"1","type":"t_uint256"},{"astId":376,"contract":"contracts/BaseCommunityDAOWithStaking.sol:BaseCommunityDAOWithStaking","label":"communityMembers","offset":0,"slot":"2","type":"t_mapping(t_address,t_bool)"},{"astId":380,"contract":"contracts/BaseCommunityDAOWithStaking.sol:BaseCommunityDAOWithStaking","label":"memberStakes","offset":0,"slot":"3","type":"t_mapping(t_address,t_uint256)"},{"astId":385,"contract":"contracts/BaseCommunityDAOWithStaking.sol:BaseCommunityDAOWithStaking","label":"proposals","offset":0,"slot":"4","type":"t_mapping(t_uint256,t_struct(Proposal)363_storage)"},{"astId":390,"contract":"contracts/BaseCommunityDAOWithStaking.sol:BaseCommunityDAOWithStaking","label":"categoryProposals","offset":0,"slot":"5","type":"t_mapping(t_string_memory_ptr,t_array(t_uint256)dyn_storage)"},{"astId":401,"contract":"contracts/BaseCommunityDAOWithStaking.sol:BaseCommunityDAOWithStaking","label":"categories","offset":0,"slot":"6","type":"t_array(t_string_storage)dyn_storage"},{"astId":403,"contract":"contracts/BaseCommunityDAOWithStaking.sol:BaseCommunityDAOWithStaking","label":"proposalCount","offset":0,"slot":"7","type":"t_uint256"},{"astId":405,"contract":"contracts/BaseCommunityDAOWithStaking.sol:BaseCommunityDAOWithStaking","label":"totalStaked","offset":0,"slot":"8","type":"t_uint256"},{"astId":408,"contract":"contracts/BaseCommunityDAOWithStaking.sol:BaseCommunityDAOWithStaking","label":"governanceToken","offset":0,"slot":"9","type":"t_contract(IERC20)225"}],"types":{"t_address":{"encoding":"inplace","label":"address","numberOfBytes":"20"},"t_array(t_string_storage)dyn_storage":{"base":"t_string_storage","encoding":"dynamic_array","label":"string[]","numberOfBytes":"32"},"t_array(t_uint256)dyn_storage":{"base":"t_uint256","encoding":"dynamic_array","label":"uint256[]","numberOfBytes":"32"},"t_bool":{"encoding":"inplace","label":"bool","numberOfBytes":"1"},"t_contract(IERC20)225":{"encoding":"inplace","label":"contract IERC20","numberOfBytes":"20"},"t_mapping(t_address,t_bool)":{"encoding":"mapping","key":"t_address","label":"mapping(address => bool)","numberOfBytes":"32","value":"t_bool"},"t_mapping(t_address,t_uint256)":{"encoding":"mapping","key":"t_address","label":"mapping(address => uint256)","numberOfBytes":"32","value":"t_uint256"},"t_mapping(t_string_memory_ptr,t_array(t_uint256)dyn_storage)":{"encoding":"mapping","key":"t_string_memory_ptr","label":"mapping(string => uint256[])","numberOfBytes":"32","value":"t_array(t_uint256)dyn_storage"},"t_mapping(t_uint256,t_struct(Proposal)363_storage)":{"encoding":"mapping","key":"t_uint256","label":"mapping(uint256 => struct BaseCommunityDAOWithStaking.Proposal)","numberOfBytes":"32","value":"t_struct(Proposal)363_storage"},"t_string_memory_ptr":{"encoding":"bytes","label":"string","numberOfBytes":"32"},"t_string_storage":{"encoding":"bytes","label":"string","numberOfBytes":"32"},"t_struct(Proposal)363_storage":{"encoding":"inplace","label":"struct BaseCommunityDAOWithStaking.Proposal","members":[{"astId":336,"contract":"contracts/BaseCommunityDAOWithStaking.sol:BaseCommunityDAOWithStaking","label":"id","offset":0,"slot":"0","type":"t_uint256"},{"astId":338,"contract":"contracts/BaseCommunityDAOWithStaking.sol:BaseCommunityDAOWithStaking","label":"proposer","offset":0,"slot":"1","type":"t_address"},{"astId":340,"contract":"contracts/BaseCommunityDAOWithStaking.sol:BaseCommunityDAOWithStaking","label":"description","offset":0,"slot":"2","type":"t_string_storage"},{"astId":342,"contract":"contracts/BaseCommunityDAOWithStaking.sol:BaseCommunityDAOWithStaking","label":"category","offset":0,"slot":"3","type":"t_string_storage"},{"astId":344,"contract":"contracts/BaseCommunityDAOWithStaking.sol:BaseCommunityDAOWithStaking","label":"forVotes","offset":0,"slot":"4","type":"t_uint256"},{"astId":346,"contract":"contracts/BaseCommunityDAOWithStaking.sol:BaseCommunityDAOWithStaking","label":"againstVotes","offset":0,"slot":"5","type":"t_uint256"},{"astId":348,"contract":"contracts/BaseCommunityDAOWithStaking.sol:BaseCommunityDAOWithStaking","label":"startTime","offset":0,"slot":"6","type":"t_uint256"},{"astId":350,"contract":"contracts/BaseCommunityDAOWithStaking.sol:BaseCommunityDAOWithStaking","label":"endTime","offset":0,"slot":"7","type":"t_uint256"},{"astId":352,"contract":"contracts/BaseCommunityDAOWithStaking.sol:BaseCommunityDAOWithStaking","label":"executed","offset":0,"slot":"8","type":"t_bool"},{"astId":354,"contract":"contracts/BaseCommunityDAOWithStaking.sol:BaseCommunityDAOWithStaking","label":"canceled","offset":1,"slot":"8","type":"t_bool"},{"astId":358,"contract":"contracts/BaseCommunityDAOWithStaking.sol:BaseCommunityDAOWithStaking","label":"hasVoted","offset":0,"slot":"9","type":"t_mapping(t_address,t_bool)"},{"astId":362,"contract":"contracts/BaseCommunityDAOWithStaking.sol:BaseCommunityDAOWithStaking","label":"votes","offset":0,"slot":"10","type":"t_mapping(t_address,t_bool)"}],"numberOfBytes":"352"},"t_uint256":{"encoding":"inplace","label":"uint256","numberOfBytes":"32"}}}}}}