{
  "_format": "hh-sol-artifact-1",
  "contractName": "NyigbaGovernor",
  "sourceName": "contracts/NyigbaGovernor.sol",
  "abi": [
    {
      "inputs": [],
      "stateMutability": "nonpayable",
      "type": "constructor"
    },
    {
      "inputs": [],
      "name": "owner",
      "outputs": [
        {
          "internalType": "address",
          "name": "",
          "type": "address"
        }
      ],
      "stateMutability": "view",
      "type": "function"
    }
  ],
  "bytecode": "0x60808060405234602657600080546001600160a01b031916331790556082908161002c8239f35b600080fdfe6080806040526004361015601257600080fd5b600090813560e01c638da5cb5b14602857600080fd5b346048578160031936011260485790546001600160a01b03168152602090f35b5080fdfea26469706673582212208221a3acd8746351e49683661667b1bb02cc4190623844fc96cf6daf8c46b82664736f6c63430008180033",
  "linkReferences": {},
  "deployedLinkReferences": {}
}